{
	"contracts/3_Ballot.sol": {
		"Donation": {
			"abi": [
				{
					"inputs": [],
					"stateMutability": "nonpayable",
					"type": "constructor"
				},
				{
					"anonymous": false,
					"inputs": [
						{
							"indexed": false,
							"internalType": "uint256",
							"name": "orgId",
							"type": "uint256"
						},
						{
							"indexed": false,
							"internalType": "uint256",
							"name": "amount",
							"type": "uint256"
						}
					],
					"name": "DonationRecevied",
					"type": "event"
				},
				{
					"anonymous": false,
					"inputs": [
						{
							"indexed": false,
							"internalType": "uint256",
							"name": "id",
							"type": "uint256"
						},
						{
							"indexed": false,
							"internalType": "string",
							"name": "name",
							"type": "string"
						},
						{
							"indexed": false,
							"internalType": "string",
							"name": "description",
							"type": "string"
						}
					],
					"name": "OrganizationCreated",
					"type": "event"
				},
				{
					"inputs": [
						{
							"internalType": "string",
							"name": "_name",
							"type": "string"
						},
						{
							"internalType": "string",
							"name": "_description",
							"type": "string"
						}
					],
					"name": "createOrganization",
					"outputs": [],
					"stateMutability": "nonpayable",
					"type": "function"
				},
				{
					"inputs": [
						{
							"internalType": "uint256",
							"name": "_orgId",
							"type": "uint256"
						}
					],
					"name": "donate",
					"outputs": [],
					"stateMutability": "payable",
					"type": "function"
				},
				{
					"inputs": [
						{
							"internalType": "uint256",
							"name": "",
							"type": "uint256"
						}
					],
					"name": "donors",
					"outputs": [
						{
							"internalType": "uint256",
							"name": "totalDonated",
							"type": "uint256"
						},
						{
							"internalType": "uint256",
							"name": "numberOfDonations",
							"type": "uint256"
						},
						{
							"internalType": "string",
							"name": "name",
							"type": "string"
						}
					],
					"stateMutability": "view",
					"type": "function"
				},
				{
					"inputs": [
						{
							"internalType": "uint256",
							"name": "_orgId",
							"type": "uint256"
						}
					],
					"name": "getOrganizationDetails",
					"outputs": [
						{
							"components": [
								{
									"internalType": "uint256",
									"name": "id",
									"type": "uint256"
								},
								{
									"internalType": "string",
									"name": "name",
									"type": "string"
								},
								{
									"internalType": "string",
									"name": "description",
									"type": "string"
								},
								{
									"internalType": "uint256",
									"name": "total_amount",
									"type": "uint256"
								}
							],
							"internalType": "struct Donation.Organization",
							"name": "",
							"type": "tuple"
						}
					],
					"stateMutability": "view",
					"type": "function"
				},
				{
					"inputs": [],
					"name": "nextOrgId",
					"outputs": [
						{
							"internalType": "uint256",
							"name": "",
							"type": "uint256"
						}
					],
					"stateMutability": "view",
					"type": "function"
				},
				{
					"inputs": [
						{
							"internalType": "address",
							"name": "",
							"type": "address"
						}
					],
					"name": "organizationIdByOwner",
					"outputs": [
						{
							"internalType": "uint256",
							"name": "",
							"type": "uint256"
						}
					],
					"stateMutability": "view",
					"type": "function"
				},
				{
					"inputs": [
						{
							"internalType": "uint256",
							"name": "",
							"type": "uint256"
						}
					],
					"name": "organizations",
					"outputs": [
						{
							"internalType": "uint256",
							"name": "id",
							"type": "uint256"
						},
						{
							"internalType": "string",
							"name": "name",
							"type": "string"
						},
						{
							"internalType": "string",
							"name": "description",
							"type": "string"
						},
						{
							"internalType": "uint256",
							"name": "total_amount",
							"type": "uint256"
						}
					],
					"stateMutability": "view",
					"type": "function"
				},
				{
					"inputs": [],
					"name": "owner",
					"outputs": [
						{
							"internalType": "address",
							"name": "",
							"type": "address"
						}
					],
					"stateMutability": "view",
					"type": "function"
				}
			],
			"devdoc": {
				"kind": "dev",
				"methods": {},
				"version": 1
			},
			"evm": {
				"assembly": "    /* \"contracts/3_Ballot.sol\":25:1408  contract Donation {... */\n  mstore(0x40, 0x80)\n    /* \"contracts/3_Ballot.sol\":331:332  1 */\n  0x01\n    /* \"contracts/3_Ballot.sol\":307:332  uint public nextOrgId = 1 */\n  dup1\n  sstore\n    /* \"contracts/3_Ballot.sol\":623:672  constructor() {... */\n  callvalue\n  dup1\n  iszero\n  tag_1\n  jumpi\n  0x00\n  dup1\n  revert\ntag_1:\n  pop\n    /* \"contracts/3_Ballot.sol\":655:665  msg.sender */\n  caller\n    /* \"contracts/3_Ballot.sol\":647:652  owner */\n  0x00\n  dup1\n    /* \"contracts/3_Ballot.sol\":647:665  owner = msg.sender */\n  0x0100\n  exp\n  dup2\n  sload\n  dup2\n  0xffffffffffffffffffffffffffffffffffffffff\n  mul\n  not\n  and\n  swap1\n  dup4\n  0xffffffffffffffffffffffffffffffffffffffff\n  and\n  mul\n  or\n  swap1\n  sstore\n  pop\n    /* \"contracts/3_Ballot.sol\":25:1408  contract Donation {... */\n  dataSize(sub_0)\n  dup1\n  dataOffset(sub_0)\n  0x00\n  codecopy\n  0x00\n  return\nstop\n\nsub_0: assembly {\n        /* \"contracts/3_Ballot.sol\":25:1408  contract Donation {... */\n      mstore(0x40, 0x80)\n      jumpi(tag_1, lt(calldatasize, 0x04))\n      shr(0xe0, calldataload(0x00))\n      dup1\n      0xa411ef20\n      gt\n      tag_10\n      jumpi\n      dup1\n      0xa411ef20\n      eq\n      tag_6\n      jumpi\n      dup1\n      0xbe21d337\n      eq\n      tag_7\n      jumpi\n      dup1\n      0xe792dd8a\n      eq\n      tag_8\n      jumpi\n      dup1\n      0xf14faf6f\n      eq\n      tag_9\n      jumpi\n      jump(tag_1)\n    tag_10:\n      dup1\n      0x4abfa163\n      eq\n      tag_2\n      jumpi\n      dup1\n      0x79bb57b4\n      eq\n      tag_3\n      jumpi\n      dup1\n      0x8a5f067c\n      eq\n      tag_4\n      jumpi\n      dup1\n      0x8da5cb5b\n      eq\n      tag_5\n      jumpi\n    tag_1:\n      0x00\n      dup1\n      revert\n        /* \"contracts/3_Ballot.sol\":453:489  mapping(uint => Donor) public donors */\n    tag_2:\n      callvalue\n      dup1\n      iszero\n      tag_11\n      jumpi\n      0x00\n      dup1\n      revert\n    tag_11:\n      pop\n      tag_12\n      0x04\n      dup1\n      calldatasize\n      sub\n      dup2\n      add\n      swap1\n      tag_13\n      swap2\n      swap1\n      tag_14\n      jump\t// in\n    tag_13:\n      tag_15\n      jump\t// in\n    tag_12:\n      mload(0x40)\n      tag_16\n      swap4\n      swap3\n      swap2\n      swap1\n      tag_17\n      jump\t// in\n    tag_16:\n      mload(0x40)\n      dup1\n      swap2\n      sub\n      swap1\n      return\n        /* \"contracts/3_Ballot.sol\":1130:1262  function getOrganizationDetails(uint _orgId) public view returns (Organization memory) {... */\n    tag_3:\n      callvalue\n      dup1\n      iszero\n      tag_18\n      jumpi\n      0x00\n      dup1\n      revert\n    tag_18:\n      pop\n      tag_19\n      0x04\n      dup1\n      calldatasize\n      sub\n      dup2\n      add\n      swap1\n      tag_20\n      swap2\n      swap1\n      tag_14\n      jump\t// in\n    tag_20:\n      tag_21\n      jump\t// in\n    tag_19:\n      mload(0x40)\n      tag_22\n      swap2\n      swap1\n      tag_23\n      jump\t// in\n    tag_22:\n      mload(0x40)\n      dup1\n      swap2\n      sub\n      swap1\n      return\n        /* \"contracts/3_Ballot.sol\":307:332  uint public nextOrgId = 1 */\n    tag_4:\n      callvalue\n      dup1\n      iszero\n      tag_24\n      jumpi\n      0x00\n      dup1\n      revert\n    tag_24:\n      pop\n      tag_25\n      tag_26\n      jump\t// in\n    tag_25:\n      mload(0x40)\n      tag_27\n      swap2\n      swap1\n      tag_28\n      jump\t// in\n    tag_27:\n      mload(0x40)\n      dup1\n      swap2\n      sub\n      swap1\n      return\n        /* \"contracts/3_Ballot.sol\":49:69  address public owner */\n    tag_5:\n      callvalue\n      dup1\n      iszero\n      tag_29\n      jumpi\n      0x00\n      dup1\n      revert\n    tag_29:\n      pop\n      tag_30\n      tag_31\n      jump\t// in\n    tag_30:\n      mload(0x40)\n      tag_32\n      swap2\n      swap1\n      tag_33\n      jump\t// in\n    tag_32:\n      mload(0x40)\n      dup1\n      swap2\n      sub\n      swap1\n      return\n        /* \"contracts/3_Ballot.sol\":800:1124  function createOrganization(string memory _name, string memory _description) public onlyOwner {... */\n    tag_6:\n      callvalue\n      dup1\n      iszero\n      tag_34\n      jumpi\n      0x00\n      dup1\n      revert\n    tag_34:\n      pop\n      tag_35\n      0x04\n      dup1\n      calldatasize\n      sub\n      dup2\n      add\n      swap1\n      tag_36\n      swap2\n      swap1\n      tag_37\n      jump\t// in\n    tag_36:\n      tag_38\n      jump\t// in\n    tag_35:\n      stop\n        /* \"contracts/3_Ballot.sol\":394:447  mapping(address => uint) public organizationIdByOwner */\n    tag_7:\n      callvalue\n      dup1\n      iszero\n      tag_39\n      jumpi\n      0x00\n      dup1\n      revert\n    tag_39:\n      pop\n      tag_40\n      0x04\n      dup1\n      calldatasize\n      sub\n      dup2\n      add\n      swap1\n      tag_41\n      swap2\n      swap1\n      tag_42\n      jump\t// in\n    tag_41:\n      tag_43\n      jump\t// in\n    tag_40:\n      mload(0x40)\n      tag_44\n      swap2\n      swap1\n      tag_28\n      jump\t// in\n    tag_44:\n      mload(0x40)\n      dup1\n      swap2\n      sub\n      swap1\n      return\n        /* \"contracts/3_Ballot.sol\":338:388  mapping(uint => Organization) public organizations */\n    tag_8:\n      callvalue\n      dup1\n      iszero\n      tag_45\n      jumpi\n      0x00\n      dup1\n      revert\n    tag_45:\n      pop\n      tag_46\n      0x04\n      dup1\n      calldatasize\n      sub\n      dup2\n      add\n      swap1\n      tag_47\n      swap2\n      swap1\n      tag_14\n      jump\t// in\n    tag_47:\n      tag_48\n      jump\t// in\n    tag_46:\n      mload(0x40)\n      tag_49\n      swap5\n      swap4\n      swap3\n      swap2\n      swap1\n      tag_50\n      jump\t// in\n    tag_49:\n      mload(0x40)\n      dup1\n      swap2\n      sub\n      swap1\n      return\n        /* \"contracts/3_Ballot.sol\":1268:1406  function donate(uint _orgId) public payable {... */\n    tag_9:\n      tag_51\n      0x04\n      dup1\n      calldatasize\n      sub\n      dup2\n      add\n      swap1\n      tag_52\n      swap2\n      swap1\n      tag_14\n      jump\t// in\n    tag_52:\n      tag_53\n      jump\t// in\n    tag_51:\n      stop\n        /* \"contracts/3_Ballot.sol\":453:489  mapping(uint => Donor) public donors */\n    tag_15:\n      mstore(0x20, 0x04)\n      dup1\n      0x00\n      mstore\n      keccak256(0x00, 0x40)\n      0x00\n      swap2\n      pop\n      swap1\n      pop\n      dup1\n      0x00\n      add\n      sload\n      swap1\n      dup1\n      0x01\n      add\n      sload\n      swap1\n      dup1\n      0x02\n      add\n      dup1\n      sload\n      tag_54\n      swap1\n      tag_55\n      jump\t// in\n    tag_54:\n      dup1\n      0x1f\n      add\n      0x20\n      dup1\n      swap2\n      div\n      mul\n      0x20\n      add\n      mload(0x40)\n      swap1\n      dup2\n      add\n      0x40\n      mstore\n      dup1\n      swap3\n      swap2\n      swap1\n      dup2\n      dup2\n      mstore\n      0x20\n      add\n      dup3\n      dup1\n      sload\n      tag_56\n      swap1\n      tag_55\n      jump\t// in\n    tag_56:\n      dup1\n      iszero\n      tag_57\n      jumpi\n      dup1\n      0x1f\n      lt\n      tag_58\n      jumpi\n      0x0100\n      dup1\n      dup4\n      sload\n      div\n      mul\n      dup4\n      mstore\n      swap2\n      0x20\n      add\n      swap2\n      jump(tag_57)\n    tag_58:\n      dup3\n      add\n      swap2\n      swap1\n      0x00\n      mstore\n      keccak256(0x00, 0x20)\n      swap1\n    tag_59:\n      dup2\n      sload\n      dup2\n      mstore\n      swap1\n      0x01\n      add\n      swap1\n      0x20\n      add\n      dup1\n      dup4\n      gt\n      tag_59\n      jumpi\n      dup3\n      swap1\n      sub\n      0x1f\n      and\n      dup3\n      add\n      swap2\n    tag_57:\n      pop\n      pop\n      pop\n      pop\n      pop\n      swap1\n      pop\n      dup4\n      jump\t// out\n        /* \"contracts/3_Ballot.sol\":1130:1262  function getOrganizationDetails(uint _orgId) public view returns (Organization memory) {... */\n    tag_21:\n        /* \"contracts/3_Ballot.sol\":1196:1215  Organization memory */\n      tag_60\n      tag_61\n      jump\t// in\n    tag_60:\n        /* \"contracts/3_Ballot.sol\":1234:1247  organizations */\n      0x02\n        /* \"contracts/3_Ballot.sol\":1234:1255  organizations[_orgId] */\n      0x00\n        /* \"contracts/3_Ballot.sol\":1248:1254  _orgId */\n      dup4\n        /* \"contracts/3_Ballot.sol\":1234:1255  organizations[_orgId] */\n      dup2\n      mstore\n      0x20\n      add\n      swap1\n      dup2\n      mstore\n      0x20\n      add\n      0x00\n      keccak256\n        /* \"contracts/3_Ballot.sol\":1227:1255  return organizations[_orgId] */\n      mload(0x40)\n      dup1\n      0x80\n      add\n      0x40\n      mstore\n      swap1\n      dup2\n      0x00\n      dup3\n      add\n      sload\n      dup2\n      mstore\n      0x20\n      add\n      0x01\n      dup3\n      add\n      dup1\n      sload\n      tag_63\n      swap1\n      tag_55\n      jump\t// in\n    tag_63:\n      dup1\n      0x1f\n      add\n      0x20\n      dup1\n      swap2\n      div\n      mul\n      0x20\n      add\n      mload(0x40)\n      swap1\n      dup2\n      add\n      0x40\n      mstore\n      dup1\n      swap3\n      swap2\n      swap1\n      dup2\n      dup2\n      mstore\n      0x20\n      add\n      dup3\n      dup1\n      sload\n      tag_64\n      swap1\n      tag_55\n      jump\t// in\n    tag_64:\n      dup1\n      iszero\n      tag_65\n      jumpi\n      dup1\n      0x1f\n      lt\n      tag_66\n      jumpi\n      0x0100\n      dup1\n      dup4\n      sload\n      div\n      mul\n      dup4\n      mstore\n      swap2\n      0x20\n      add\n      swap2\n      jump(tag_65)\n    tag_66:\n      dup3\n      add\n      swap2\n      swap1\n      0x00\n      mstore\n      keccak256(0x00, 0x20)\n      swap1\n    tag_67:\n      dup2\n      sload\n      dup2\n      mstore\n      swap1\n      0x01\n      add\n      swap1\n      0x20\n      add\n      dup1\n      dup4\n      gt\n      tag_67\n      jumpi\n      dup3\n      swap1\n      sub\n      0x1f\n      and\n      dup3\n      add\n      swap2\n    tag_65:\n      pop\n      pop\n      pop\n      pop\n      pop\n      dup2\n      mstore\n      0x20\n      add\n      0x02\n      dup3\n      add\n      dup1\n      sload\n      tag_68\n      swap1\n      tag_55\n      jump\t// in\n    tag_68:\n      dup1\n      0x1f\n      add\n      0x20\n      dup1\n      swap2\n      div\n      mul\n      0x20\n      add\n      mload(0x40)\n      swap1\n      dup2\n      add\n      0x40\n      mstore\n      dup1\n      swap3\n      swap2\n      swap1\n      dup2\n      dup2\n      mstore\n      0x20\n      add\n      dup3\n      dup1\n      sload\n      tag_69\n      swap1\n      tag_55\n      jump\t// in\n    tag_69:\n      dup1\n      iszero\n      tag_70\n      jumpi\n      dup1\n      0x1f\n      lt\n      tag_71\n      jumpi\n      0x0100\n      dup1\n      dup4\n      sload\n      div\n      mul\n      dup4\n      mstore\n      swap2\n      0x20\n      add\n      swap2\n      jump(tag_70)\n    tag_71:\n      dup3\n      add\n      swap2\n      swap1\n      0x00\n      mstore\n      keccak256(0x00, 0x20)\n      swap1\n    tag_72:\n      dup2\n      sload\n      dup2\n      mstore\n      swap1\n      0x01\n      add\n      swap1\n      0x20\n      add\n      dup1\n      dup4\n      gt\n      tag_72\n      jumpi\n      dup3\n      swap1\n      sub\n      0x1f\n      and\n      dup3\n      add\n      swap2\n    tag_70:\n      pop\n      pop\n      pop\n      pop\n      pop\n      dup2\n      mstore\n      0x20\n      add\n      0x03\n      dup3\n      add\n      sload\n      dup2\n      mstore\n      pop\n      pop\n      swap1\n      pop\n        /* \"contracts/3_Ballot.sol\":1130:1262  function getOrganizationDetails(uint _orgId) public view returns (Organization memory) {... */\n      swap2\n      swap1\n      pop\n      jump\t// out\n        /* \"contracts/3_Ballot.sol\":307:332  uint public nextOrgId = 1 */\n    tag_26:\n      sload(0x01)\n      dup2\n      jump\t// out\n        /* \"contracts/3_Ballot.sol\":49:69  address public owner */\n    tag_31:\n      0x00\n      dup1\n      sload\n      swap1\n      0x0100\n      exp\n      swap1\n      div\n      0xffffffffffffffffffffffffffffffffffffffff\n      and\n      dup2\n      jump\t// out\n        /* \"contracts/3_Ballot.sol\":800:1124  function createOrganization(string memory _name, string memory _description) public onlyOwner {... */\n    tag_38:\n        /* \"contracts/3_Ballot.sol\":731:736  owner */\n      0x00\n      dup1\n      sload\n      swap1\n      0x0100\n      exp\n      swap1\n      div\n      0xffffffffffffffffffffffffffffffffffffffff\n      and\n        /* \"contracts/3_Ballot.sol\":717:736  msg.sender == owner */\n      0xffffffffffffffffffffffffffffffffffffffff\n      and\n        /* \"contracts/3_Ballot.sol\":717:727  msg.sender */\n      caller\n        /* \"contracts/3_Ballot.sol\":717:736  msg.sender == owner */\n      0xffffffffffffffffffffffffffffffffffffffff\n      and\n      eq\n        /* \"contracts/3_Ballot.sol\":709:776  require(msg.sender == owner, \"Only owner can perform this action.\") */\n      tag_74\n      jumpi\n      mload(0x40)\n      0x08c379a000000000000000000000000000000000000000000000000000000000\n      dup2\n      mstore\n      0x04\n      add\n      tag_75\n      swap1\n      tag_76\n      jump\t// in\n    tag_75:\n      mload(0x40)\n      dup1\n      swap2\n      sub\n      swap1\n      revert\n    tag_74:\n        /* \"contracts/3_Ballot.sol\":904:914  uint orgId */\n      0x00\n        /* \"contracts/3_Ballot.sol\":917:926  nextOrgId */\n      0x01\n      0x00\n        /* \"contracts/3_Ballot.sol\":917:928  nextOrgId++ */\n      dup2\n      sload\n      dup1\n      swap3\n      swap2\n      swap1\n      tag_78\n      swap1\n      tag_79\n      jump\t// in\n    tag_78:\n      swap2\n      swap1\n      pop\n      sstore\n        /* \"contracts/3_Ballot.sol\":904:928  uint orgId = nextOrgId++ */\n      swap1\n      pop\n        /* \"contracts/3_Ballot.sol\":961:1004  Organization(orgId, _name, _description, 0) */\n      mload(0x40)\n      dup1\n      0x80\n      add\n      0x40\n      mstore\n      dup1\n        /* \"contracts/3_Ballot.sol\":974:979  orgId */\n      dup3\n        /* \"contracts/3_Ballot.sol\":961:1004  Organization(orgId, _name, _description, 0) */\n      dup2\n      mstore\n      0x20\n      add\n        /* \"contracts/3_Ballot.sol\":981:986  _name */\n      dup5\n        /* \"contracts/3_Ballot.sol\":961:1004  Organization(orgId, _name, _description, 0) */\n      dup2\n      mstore\n      0x20\n      add\n        /* \"contracts/3_Ballot.sol\":988:1000  _description */\n      dup4\n        /* \"contracts/3_Ballot.sol\":961:1004  Organization(orgId, _name, _description, 0) */\n      dup2\n      mstore\n      0x20\n      add\n        /* \"contracts/3_Ballot.sol\":1002:1003  0 */\n      0x00\n        /* \"contracts/3_Ballot.sol\":961:1004  Organization(orgId, _name, _description, 0) */\n      dup2\n      mstore\n      pop\n        /* \"contracts/3_Ballot.sol\":938:951  organizations */\n      0x02\n        /* \"contracts/3_Ballot.sol\":938:958  organizations[orgId] */\n      0x00\n        /* \"contracts/3_Ballot.sol\":952:957  orgId */\n      dup4\n        /* \"contracts/3_Ballot.sol\":938:958  organizations[orgId] */\n      dup2\n      mstore\n      0x20\n      add\n      swap1\n      dup2\n      mstore\n      0x20\n      add\n      0x00\n      keccak256\n        /* \"contracts/3_Ballot.sol\":938:1004  organizations[orgId] = Organization(orgId, _name, _description, 0) */\n      0x00\n      dup3\n      add\n      mload\n      dup2\n      0x00\n      add\n      sstore\n      0x20\n      dup3\n      add\n      mload\n      dup2\n      0x01\n      add\n      swap1\n      dup2\n      tag_80\n      swap2\n      swap1\n      tag_81\n      jump\t// in\n    tag_80:\n      pop\n      0x40\n      dup3\n      add\n      mload\n      dup2\n      0x02\n      add\n      swap1\n      dup2\n      tag_82\n      swap2\n      swap1\n      tag_81\n      jump\t// in\n    tag_82:\n      pop\n      0x60\n      dup3\n      add\n      mload\n      dup2\n      0x03\n      add\n      sstore\n      swap1\n      pop\n      pop\n        /* \"contracts/3_Ballot.sol\":1050:1055  orgId */\n      dup1\n        /* \"contracts/3_Ballot.sol\":1014:1035  organizationIdByOwner */\n      0x03\n        /* \"contracts/3_Ballot.sol\":1014:1047  organizationIdByOwner[msg.sender] */\n      0x00\n        /* \"contracts/3_Ballot.sol\":1036:1046  msg.sender */\n      caller\n        /* \"contracts/3_Ballot.sol\":1014:1047  organizationIdByOwner[msg.sender] */\n      0xffffffffffffffffffffffffffffffffffffffff\n      and\n      0xffffffffffffffffffffffffffffffffffffffff\n      and\n      dup2\n      mstore\n      0x20\n      add\n      swap1\n      dup2\n      mstore\n      0x20\n      add\n      0x00\n      keccak256\n        /* \"contracts/3_Ballot.sol\":1014:1055  organizationIdByOwner[msg.sender] = orgId */\n      dup2\n      swap1\n      sstore\n      pop\n        /* \"contracts/3_Ballot.sol\":1070:1117  OrganizationCreated(orgId, _name, _description) */\n      0xfaad6f0f3cbe87e0dc46ccccfbb414f5c7bb7628d5958d64a709fc8b131602c8\n        /* \"contracts/3_Ballot.sol\":1090:1095  orgId */\n      dup2\n        /* \"contracts/3_Ballot.sol\":1097:1102  _name */\n      dup5\n        /* \"contracts/3_Ballot.sol\":1104:1116  _description */\n      dup5\n        /* \"contracts/3_Ballot.sol\":1070:1117  OrganizationCreated(orgId, _name, _description) */\n      mload(0x40)\n      tag_83\n      swap4\n      swap3\n      swap2\n      swap1\n      tag_84\n      jump\t// in\n    tag_83:\n      mload(0x40)\n      dup1\n      swap2\n      sub\n      swap1\n      log1\n        /* \"contracts/3_Ballot.sol\":894:1124  {... */\n      pop\n        /* \"contracts/3_Ballot.sol\":800:1124  function createOrganization(string memory _name, string memory _description) public onlyOwner {... */\n      pop\n      pop\n      jump\t// out\n        /* \"contracts/3_Ballot.sol\":394:447  mapping(address => uint) public organizationIdByOwner */\n    tag_43:\n      mstore(0x20, 0x03)\n      dup1\n      0x00\n      mstore\n      keccak256(0x00, 0x40)\n      0x00\n      swap2\n      pop\n      swap1\n      pop\n      sload\n      dup2\n      jump\t// out\n        /* \"contracts/3_Ballot.sol\":338:388  mapping(uint => Organization) public organizations */\n    tag_48:\n      mstore(0x20, 0x02)\n      dup1\n      0x00\n      mstore\n      keccak256(0x00, 0x40)\n      0x00\n      swap2\n      pop\n      swap1\n      pop\n      dup1\n      0x00\n      add\n      sload\n      swap1\n      dup1\n      0x01\n      add\n      dup1\n      sload\n      tag_85\n      swap1\n      tag_55\n      jump\t// in\n    tag_85:\n      dup1\n      0x1f\n      add\n      0x20\n      dup1\n      swap2\n      div\n      mul\n      0x20\n      add\n      mload(0x40)\n      swap1\n      dup2\n      add\n      0x40\n      mstore\n      dup1\n      swap3\n      swap2\n      swap1\n      dup2\n      dup2\n      mstore\n      0x20\n      add\n      dup3\n      dup1\n      sload\n      tag_86\n      swap1\n      tag_55\n      jump\t// in\n    tag_86:\n      dup1\n      iszero\n      tag_87\n      jumpi\n      dup1\n      0x1f\n      lt\n      tag_88\n      jumpi\n      0x0100\n      dup1\n      dup4\n      sload\n      div\n      mul\n      dup4\n      mstore\n      swap2\n      0x20\n      add\n      swap2\n      jump(tag_87)\n    tag_88:\n      dup3\n      add\n      swap2\n      swap1\n      0x00\n      mstore\n      keccak256(0x00, 0x20)\n      swap1\n    tag_89:\n      dup2\n      sload\n      dup2\n      mstore\n      swap1\n      0x01\n      add\n      swap1\n      0x20\n      add\n      dup1\n      dup4\n      gt\n      tag_89\n      jumpi\n      dup3\n      swap1\n      sub\n      0x1f\n      and\n      dup3\n      add\n      swap2\n    tag_87:\n      pop\n      pop\n      pop\n      pop\n      pop\n      swap1\n      dup1\n      0x02\n      add\n      dup1\n      sload\n      tag_90\n      swap1\n      tag_55\n      jump\t// in\n    tag_90:\n      dup1\n      0x1f\n      add\n      0x20\n      dup1\n      swap2\n      div\n      mul\n      0x20\n      add\n      mload(0x40)\n      swap1\n      dup2\n      add\n      0x40\n      mstore\n      dup1\n      swap3\n      swap2\n      swap1\n      dup2\n      dup2\n      mstore\n      0x20\n      add\n      dup3\n      dup1\n      sload\n      tag_91\n      swap1\n      tag_55\n      jump\t// in\n    tag_91:\n      dup1\n      iszero\n      tag_92\n      jumpi\n      dup1\n      0x1f\n      lt\n      tag_93\n      jumpi\n      0x0100\n      dup1\n      dup4\n      sload\n      div\n      mul\n      dup4\n      mstore\n      swap2\n      0x20\n      add\n      swap2\n      jump(tag_92)\n    tag_93:\n      dup3\n      add\n      swap2\n      swap1\n      0x00\n      mstore\n      keccak256(0x00, 0x20)\n      swap1\n    tag_94:\n      dup2\n      sload\n      dup2\n      mstore\n      swap1\n      0x01\n      add\n      swap1\n      0x20\n      add\n      dup1\n      dup4\n      gt\n      tag_94\n      jumpi\n      dup3\n      swap1\n      sub\n      0x1f\n      and\n      dup3\n      add\n      swap2\n    tag_92:\n      pop\n      pop\n      pop\n      pop\n      pop\n      swap1\n      dup1\n      0x03\n      add\n      sload\n      swap1\n      pop\n      dup5\n      jump\t// out\n        /* \"contracts/3_Ballot.sol\":1268:1406  function donate(uint _orgId) public payable {... */\n    tag_53:\n        /* \"contracts/3_Ballot.sol\":1342:1343  0 */\n      0x00\n        /* \"contracts/3_Ballot.sol\":1330:1339  msg.value */\n      callvalue\n        /* \"contracts/3_Ballot.sol\":1330:1343  msg.value > 0 */\n      gt\n        /* \"contracts/3_Ballot.sol\":1322:1390  require(msg.value > 0, \"You have some ether to perform this action\") */\n      tag_96\n      jumpi\n      mload(0x40)\n      0x08c379a000000000000000000000000000000000000000000000000000000000\n      dup2\n      mstore\n      0x04\n      add\n      tag_97\n      swap1\n      tag_98\n      jump\t// in\n    tag_97:\n      mload(0x40)\n      dup1\n      swap2\n      sub\n      swap1\n      revert\n    tag_96:\n        /* \"contracts/3_Ballot.sol\":1268:1406  function donate(uint _orgId) public payable {... */\n      pop\n      jump\t// out\n    tag_61:\n      mload(0x40)\n      dup1\n      0x80\n      add\n      0x40\n      mstore\n      dup1\n      0x00\n      dup2\n      mstore\n      0x20\n      add\n      0x60\n      dup2\n      mstore\n      0x20\n      add\n      0x60\n      dup2\n      mstore\n      0x20\n      add\n      0x00\n      dup2\n      mstore\n      pop\n      swap1\n      jump\t// out\n        /* \"#utility.yul\":7:82   */\n    tag_99:\n        /* \"#utility.yul\":40:46   */\n      0x00\n        /* \"#utility.yul\":73:75   */\n      0x40\n        /* \"#utility.yul\":67:76   */\n      mload\n        /* \"#utility.yul\":57:76   */\n      swap1\n      pop\n        /* \"#utility.yul\":7:82   */\n      swap1\n      jump\t// out\n        /* \"#utility.yul\":88:205   */\n    tag_100:\n        /* \"#utility.yul\":197:198   */\n      0x00\n        /* \"#utility.yul\":194:195   */\n      dup1\n        /* \"#utility.yul\":187:199   */\n      revert\n        /* \"#utility.yul\":211:328   */\n    tag_101:\n        /* \"#utility.yul\":320:321   */\n      0x00\n        /* \"#utility.yul\":317:318   */\n      dup1\n        /* \"#utility.yul\":310:322   */\n      revert\n        /* \"#utility.yul\":334:411   */\n    tag_102:\n        /* \"#utility.yul\":371:378   */\n      0x00\n        /* \"#utility.yul\":400:405   */\n      dup2\n        /* \"#utility.yul\":389:405   */\n      swap1\n      pop\n        /* \"#utility.yul\":334:411   */\n      swap2\n      swap1\n      pop\n      jump\t// out\n        /* \"#utility.yul\":417:539   */\n    tag_103:\n        /* \"#utility.yul\":490:514   */\n      tag_156\n        /* \"#utility.yul\":508:513   */\n      dup2\n        /* \"#utility.yul\":490:514   */\n      tag_102\n      jump\t// in\n    tag_156:\n        /* \"#utility.yul\":483:488   */\n      dup2\n        /* \"#utility.yul\":480:515   */\n      eq\n        /* \"#utility.yul\":470:533   */\n      tag_157\n      jumpi\n        /* \"#utility.yul\":529:530   */\n      0x00\n        /* \"#utility.yul\":526:527   */\n      dup1\n        /* \"#utility.yul\":519:531   */\n      revert\n        /* \"#utility.yul\":470:533   */\n    tag_157:\n        /* \"#utility.yul\":417:539   */\n      pop\n      jump\t// out\n        /* \"#utility.yul\":545:684   */\n    tag_104:\n        /* \"#utility.yul\":591:596   */\n      0x00\n        /* \"#utility.yul\":629:635   */\n      dup2\n        /* \"#utility.yul\":616:636   */\n      calldataload\n        /* \"#utility.yul\":607:636   */\n      swap1\n      pop\n        /* \"#utility.yul\":645:678   */\n      tag_159\n        /* \"#utility.yul\":672:677   */\n      dup2\n        /* \"#utility.yul\":645:678   */\n      tag_103\n      jump\t// in\n    tag_159:\n        /* \"#utility.yul\":545:684   */\n      swap3\n      swap2\n      pop\n      pop\n      jump\t// out\n        /* \"#utility.yul\":690:1019   */\n    tag_14:\n        /* \"#utility.yul\":749:755   */\n      0x00\n        /* \"#utility.yul\":798:800   */\n      0x20\n        /* \"#utility.yul\":786:795   */\n      dup3\n        /* \"#utility.yul\":777:784   */\n      dup5\n        /* \"#utility.yul\":773:796   */\n      sub\n        /* \"#utility.yul\":769:801   */\n      slt\n        /* \"#utility.yul\":766:885   */\n      iszero\n      tag_161\n      jumpi\n        /* \"#utility.yul\":804:883   */\n      tag_162\n      tag_100\n      jump\t// in\n    tag_162:\n        /* \"#utility.yul\":766:885   */\n    tag_161:\n        /* \"#utility.yul\":924:925   */\n      0x00\n        /* \"#utility.yul\":949:1002   */\n      tag_163\n        /* \"#utility.yul\":994:1001   */\n      dup5\n        /* \"#utility.yul\":985:991   */\n      dup3\n        /* \"#utility.yul\":974:983   */\n      dup6\n        /* \"#utility.yul\":970:992   */\n      add\n        /* \"#utility.yul\":949:1002   */\n      tag_104\n      jump\t// in\n    tag_163:\n        /* \"#utility.yul\":939:1002   */\n      swap2\n      pop\n        /* \"#utility.yul\":895:1012   */\n      pop\n        /* \"#utility.yul\":690:1019   */\n      swap3\n      swap2\n      pop\n      pop\n      jump\t// out\n        /* \"#utility.yul\":1025:1143   */\n    tag_105:\n        /* \"#utility.yul\":1112:1136   */\n      tag_165\n        /* \"#utility.yul\":1130:1135   */\n      dup2\n        /* \"#utility.yul\":1112:1136   */\n      tag_102\n      jump\t// in\n    tag_165:\n        /* \"#utility.yul\":1107:1110   */\n      dup3\n        /* \"#utility.yul\":1100:1137   */\n      mstore\n        /* \"#utility.yul\":1025:1143   */\n      pop\n      pop\n      jump\t// out\n        /* \"#utility.yul\":1149:1248   */\n    tag_106:\n        /* \"#utility.yul\":1201:1207   */\n      0x00\n        /* \"#utility.yul\":1235:1240   */\n      dup2\n        /* \"#utility.yul\":1229:1241   */\n      mload\n        /* \"#utility.yul\":1219:1241   */\n      swap1\n      pop\n        /* \"#utility.yul\":1149:1248   */\n      swap2\n      swap1\n      pop\n      jump\t// out\n        /* \"#utility.yul\":1254:1423   */\n    tag_107:\n        /* \"#utility.yul\":1338:1349   */\n      0x00\n        /* \"#utility.yul\":1372:1378   */\n      dup3\n        /* \"#utility.yul\":1367:1370   */\n      dup3\n        /* \"#utility.yul\":1360:1379   */\n      mstore\n        /* \"#utility.yul\":1412:1416   */\n      0x20\n        /* \"#utility.yul\":1407:1410   */\n      dup3\n        /* \"#utility.yul\":1403:1417   */\n      add\n        /* \"#utility.yul\":1388:1417   */\n      swap1\n      pop\n        /* \"#utility.yul\":1254:1423   */\n      swap3\n      swap2\n      pop\n      pop\n      jump\t// out\n        /* \"#utility.yul\":1429:1568   */\n    tag_108:\n        /* \"#utility.yul\":1518:1524   */\n      dup3\n        /* \"#utility.yul\":1513:1516   */\n      dup2\n        /* \"#utility.yul\":1508:1511   */\n      dup4\n        /* \"#utility.yul\":1502:1525   */\n      mcopy\n        /* \"#utility.yul\":1559:1560   */\n      0x00\n        /* \"#utility.yul\":1550:1556   */\n      dup4\n        /* \"#utility.yul\":1545:1548   */\n      dup4\n        /* \"#utility.yul\":1541:1557   */\n      add\n        /* \"#utility.yul\":1534:1561   */\n      mstore\n        /* \"#utility.yul\":1429:1568   */\n      pop\n      pop\n      pop\n      jump\t// out\n        /* \"#utility.yul\":1574:1676   */\n    tag_109:\n        /* \"#utility.yul\":1615:1621   */\n      0x00\n        /* \"#utility.yul\":1666:1668   */\n      0x1f\n        /* \"#utility.yul\":1662:1669   */\n      not\n        /* \"#utility.yul\":1657:1659   */\n      0x1f\n        /* \"#utility.yul\":1650:1655   */\n      dup4\n        /* \"#utility.yul\":1646:1660   */\n      add\n        /* \"#utility.yul\":1642:1670   */\n      and\n        /* \"#utility.yul\":1632:1670   */\n      swap1\n      pop\n        /* \"#utility.yul\":1574:1676   */\n      swap2\n      swap1\n      pop\n      jump\t// out\n        /* \"#utility.yul\":1682:2059   */\n    tag_110:\n        /* \"#utility.yul\":1770:1773   */\n      0x00\n        /* \"#utility.yul\":1798:1837   */\n      tag_171\n        /* \"#utility.yul\":1831:1836   */\n      dup3\n        /* \"#utility.yul\":1798:1837   */\n      tag_106\n      jump\t// in\n    tag_171:\n        /* \"#utility.yul\":1853:1924   */\n      tag_172\n        /* \"#utility.yul\":1917:1923   */\n      dup2\n        /* \"#utility.yul\":1912:1915   */\n      dup6\n        /* \"#utility.yul\":1853:1924   */\n      tag_107\n      jump\t// in\n    tag_172:\n        /* \"#utility.yul\":1846:1924   */\n      swap4\n      pop\n        /* \"#utility.yul\":1933:1998   */\n      tag_173\n        /* \"#utility.yul\":1991:1997   */\n      dup2\n        /* \"#utility.yul\":1986:1989   */\n      dup6\n        /* \"#utility.yul\":1979:1983   */\n      0x20\n        /* \"#utility.yul\":1972:1977   */\n      dup7\n        /* \"#utility.yul\":1968:1984   */\n      add\n        /* \"#utility.yul\":1933:1998   */\n      tag_108\n      jump\t// in\n    tag_173:\n        /* \"#utility.yul\":2023:2052   */\n      tag_174\n        /* \"#utility.yul\":2045:2051   */\n      dup2\n        /* \"#utility.yul\":2023:2052   */\n      tag_109\n      jump\t// in\n    tag_174:\n        /* \"#utility.yul\":2018:2021   */\n      dup5\n        /* \"#utility.yul\":2014:2053   */\n      add\n        /* \"#utility.yul\":2007:2053   */\n      swap2\n      pop\n        /* \"#utility.yul\":1774:2059   */\n      pop\n        /* \"#utility.yul\":1682:2059   */\n      swap3\n      swap2\n      pop\n      pop\n      jump\t// out\n        /* \"#utility.yul\":2065:2598   */\n    tag_17:\n        /* \"#utility.yul\":2234:2238   */\n      0x00\n        /* \"#utility.yul\":2272:2274   */\n      0x60\n        /* \"#utility.yul\":2261:2270   */\n      dup3\n        /* \"#utility.yul\":2257:2275   */\n      add\n        /* \"#utility.yul\":2249:2275   */\n      swap1\n      pop\n        /* \"#utility.yul\":2285:2356   */\n      tag_176\n        /* \"#utility.yul\":2353:2354   */\n      0x00\n        /* \"#utility.yul\":2342:2351   */\n      dup4\n        /* \"#utility.yul\":2338:2355   */\n      add\n        /* \"#utility.yul\":2329:2335   */\n      dup7\n        /* \"#utility.yul\":2285:2356   */\n      tag_105\n      jump\t// in\n    tag_176:\n        /* \"#utility.yul\":2366:2438   */\n      tag_177\n        /* \"#utility.yul\":2434:2436   */\n      0x20\n        /* \"#utility.yul\":2423:2432   */\n      dup4\n        /* \"#utility.yul\":2419:2437   */\n      add\n        /* \"#utility.yul\":2410:2416   */\n      dup6\n        /* \"#utility.yul\":2366:2438   */\n      tag_105\n      jump\t// in\n    tag_177:\n        /* \"#utility.yul\":2485:2494   */\n      dup2\n        /* \"#utility.yul\":2479:2483   */\n      dup2\n        /* \"#utility.yul\":2475:2495   */\n      sub\n        /* \"#utility.yul\":2470:2472   */\n      0x40\n        /* \"#utility.yul\":2459:2468   */\n      dup4\n        /* \"#utility.yul\":2455:2473   */\n      add\n        /* \"#utility.yul\":2448:2496   */\n      mstore\n        /* \"#utility.yul\":2513:2591   */\n      tag_178\n        /* \"#utility.yul\":2586:2590   */\n      dup2\n        /* \"#utility.yul\":2577:2583   */\n      dup5\n        /* \"#utility.yul\":2513:2591   */\n      tag_110\n      jump\t// in\n    tag_178:\n        /* \"#utility.yul\":2505:2591   */\n      swap1\n      pop\n        /* \"#utility.yul\":2065:2598   */\n      swap5\n      swap4\n      pop\n      pop\n      pop\n      pop\n      jump\t// out\n        /* \"#utility.yul\":2604:2712   */\n    tag_111:\n        /* \"#utility.yul\":2681:2705   */\n      tag_180\n        /* \"#utility.yul\":2699:2704   */\n      dup2\n        /* \"#utility.yul\":2681:2705   */\n      tag_102\n      jump\t// in\n    tag_180:\n        /* \"#utility.yul\":2676:2679   */\n      dup3\n        /* \"#utility.yul\":2669:2706   */\n      mstore\n        /* \"#utility.yul\":2604:2712   */\n      pop\n      pop\n      jump\t// out\n        /* \"#utility.yul\":2718:2877   */\n    tag_112:\n        /* \"#utility.yul\":2792:2803   */\n      0x00\n        /* \"#utility.yul\":2826:2832   */\n      dup3\n        /* \"#utility.yul\":2821:2824   */\n      dup3\n        /* \"#utility.yul\":2814:2833   */\n      mstore\n        /* \"#utility.yul\":2866:2870   */\n      0x20\n        /* \"#utility.yul\":2861:2864   */\n      dup3\n        /* \"#utility.yul\":2857:2871   */\n      add\n        /* \"#utility.yul\":2842:2871   */\n      swap1\n      pop\n        /* \"#utility.yul\":2718:2877   */\n      swap3\n      swap2\n      pop\n      pop\n      jump\t// out\n        /* \"#utility.yul\":2883:3240   */\n    tag_113:\n        /* \"#utility.yul\":2961:2964   */\n      0x00\n        /* \"#utility.yul\":2989:3028   */\n      tag_183\n        /* \"#utility.yul\":3022:3027   */\n      dup3\n        /* \"#utility.yul\":2989:3028   */\n      tag_106\n      jump\t// in\n    tag_183:\n        /* \"#utility.yul\":3044:3105   */\n      tag_184\n        /* \"#utility.yul\":3098:3104   */\n      dup2\n        /* \"#utility.yul\":3093:3096   */\n      dup6\n        /* \"#utility.yul\":3044:3105   */\n      tag_112\n      jump\t// in\n    tag_184:\n        /* \"#utility.yul\":3037:3105   */\n      swap4\n      pop\n        /* \"#utility.yul\":3114:3179   */\n      tag_185\n        /* \"#utility.yul\":3172:3178   */\n      dup2\n        /* \"#utility.yul\":3167:3170   */\n      dup6\n        /* \"#utility.yul\":3160:3164   */\n      0x20\n        /* \"#utility.yul\":3153:3158   */\n      dup7\n        /* \"#utility.yul\":3149:3165   */\n      add\n        /* \"#utility.yul\":3114:3179   */\n      tag_108\n      jump\t// in\n    tag_185:\n        /* \"#utility.yul\":3204:3233   */\n      tag_186\n        /* \"#utility.yul\":3226:3232   */\n      dup2\n        /* \"#utility.yul\":3204:3233   */\n      tag_109\n      jump\t// in\n    tag_186:\n        /* \"#utility.yul\":3199:3202   */\n      dup5\n        /* \"#utility.yul\":3195:3234   */\n      add\n        /* \"#utility.yul\":3188:3234   */\n      swap2\n      pop\n        /* \"#utility.yul\":2965:3240   */\n      pop\n        /* \"#utility.yul\":2883:3240   */\n      swap3\n      swap2\n      pop\n      pop\n      jump\t// out\n        /* \"#utility.yul\":3314:4358   */\n    tag_114:\n        /* \"#utility.yul\":3439:3442   */\n      0x00\n        /* \"#utility.yul\":3475:3479   */\n      0x80\n        /* \"#utility.yul\":3470:3473   */\n      dup4\n        /* \"#utility.yul\":3466:3480   */\n      add\n        /* \"#utility.yul\":3560:3564   */\n      0x00\n        /* \"#utility.yul\":3553:3558   */\n      dup4\n        /* \"#utility.yul\":3549:3565   */\n      add\n        /* \"#utility.yul\":3543:3566   */\n      mload\n        /* \"#utility.yul\":3579:3642   */\n      tag_188\n        /* \"#utility.yul\":3636:3640   */\n      0x00\n        /* \"#utility.yul\":3631:3634   */\n      dup7\n        /* \"#utility.yul\":3627:3641   */\n      add\n        /* \"#utility.yul\":3613:3625   */\n      dup3\n        /* \"#utility.yul\":3579:3642   */\n      tag_111\n      jump\t// in\n    tag_188:\n        /* \"#utility.yul\":3490:3652   */\n      pop\n        /* \"#utility.yul\":3734:3738   */\n      0x20\n        /* \"#utility.yul\":3727:3732   */\n      dup4\n        /* \"#utility.yul\":3723:3739   */\n      add\n        /* \"#utility.yul\":3717:3740   */\n      mload\n        /* \"#utility.yul\":3787:3790   */\n      dup5\n        /* \"#utility.yul\":3781:3785   */\n      dup3\n        /* \"#utility.yul\":3777:3791   */\n      sub\n        /* \"#utility.yul\":3770:3774   */\n      0x20\n        /* \"#utility.yul\":3765:3768   */\n      dup7\n        /* \"#utility.yul\":3761:3775   */\n      add\n        /* \"#utility.yul\":3754:3792   */\n      mstore\n        /* \"#utility.yul\":3813:3886   */\n      tag_189\n        /* \"#utility.yul\":3881:3885   */\n      dup3\n        /* \"#utility.yul\":3867:3879   */\n      dup3\n        /* \"#utility.yul\":3813:3886   */\n      tag_113\n      jump\t// in\n    tag_189:\n        /* \"#utility.yul\":3805:3886   */\n      swap2\n      pop\n        /* \"#utility.yul\":3662:3897   */\n      pop\n        /* \"#utility.yul\":3986:3990   */\n      0x40\n        /* \"#utility.yul\":3979:3984   */\n      dup4\n        /* \"#utility.yul\":3975:3991   */\n      add\n        /* \"#utility.yul\":3969:3992   */\n      mload\n        /* \"#utility.yul\":4039:4042   */\n      dup5\n        /* \"#utility.yul\":4033:4037   */\n      dup3\n        /* \"#utility.yul\":4029:4043   */\n      sub\n        /* \"#utility.yul\":4022:4026   */\n      0x40\n        /* \"#utility.yul\":4017:4020   */\n      dup7\n        /* \"#utility.yul\":4013:4027   */\n      add\n        /* \"#utility.yul\":4006:4044   */\n      mstore\n        /* \"#utility.yul\":4065:4138   */\n      tag_190\n        /* \"#utility.yul\":4133:4137   */\n      dup3\n        /* \"#utility.yul\":4119:4131   */\n      dup3\n        /* \"#utility.yul\":4065:4138   */\n      tag_113\n      jump\t// in\n    tag_190:\n        /* \"#utility.yul\":4057:4138   */\n      swap2\n      pop\n        /* \"#utility.yul\":3907:4149   */\n      pop\n        /* \"#utility.yul\":4239:4243   */\n      0x60\n        /* \"#utility.yul\":4232:4237   */\n      dup4\n        /* \"#utility.yul\":4228:4244   */\n      add\n        /* \"#utility.yul\":4222:4245   */\n      mload\n        /* \"#utility.yul\":4258:4321   */\n      tag_191\n        /* \"#utility.yul\":4315:4319   */\n      0x60\n        /* \"#utility.yul\":4310:4313   */\n      dup7\n        /* \"#utility.yul\":4306:4320   */\n      add\n        /* \"#utility.yul\":4292:4304   */\n      dup3\n        /* \"#utility.yul\":4258:4321   */\n      tag_111\n      jump\t// in\n    tag_191:\n        /* \"#utility.yul\":4159:4331   */\n      pop\n        /* \"#utility.yul\":4348:4352   */\n      dup1\n        /* \"#utility.yul\":4341:4352   */\n      swap2\n      pop\n        /* \"#utility.yul\":3444:4358   */\n      pop\n        /* \"#utility.yul\":3314:4358   */\n      swap3\n      swap2\n      pop\n      pop\n      jump\t// out\n        /* \"#utility.yul\":4364:4749   */\n    tag_23:\n        /* \"#utility.yul\":4513:4517   */\n      0x00\n        /* \"#utility.yul\":4551:4553   */\n      0x20\n        /* \"#utility.yul\":4540:4549   */\n      dup3\n        /* \"#utility.yul\":4536:4554   */\n      add\n        /* \"#utility.yul\":4528:4554   */\n      swap1\n      pop\n        /* \"#utility.yul\":4600:4609   */\n      dup2\n        /* \"#utility.yul\":4594:4598   */\n      dup2\n        /* \"#utility.yul\":4590:4610   */\n      sub\n        /* \"#utility.yul\":4586:4587   */\n      0x00\n        /* \"#utility.yul\":4575:4584   */\n      dup4\n        /* \"#utility.yul\":4571:4588   */\n      add\n        /* \"#utility.yul\":4564:4611   */\n      mstore\n        /* \"#utility.yul\":4628:4742   */\n      tag_193\n        /* \"#utility.yul\":4737:4741   */\n      dup2\n        /* \"#utility.yul\":4728:4734   */\n      dup5\n        /* \"#utility.yul\":4628:4742   */\n      tag_114\n      jump\t// in\n    tag_193:\n        /* \"#utility.yul\":4620:4742   */\n      swap1\n      pop\n        /* \"#utility.yul\":4364:4749   */\n      swap3\n      swap2\n      pop\n      pop\n      jump\t// out\n        /* \"#utility.yul\":4755:4977   */\n    tag_28:\n        /* \"#utility.yul\":4848:4852   */\n      0x00\n        /* \"#utility.yul\":4886:4888   */\n      0x20\n        /* \"#utility.yul\":4875:4884   */\n      dup3\n        /* \"#utility.yul\":4871:4889   */\n      add\n        /* \"#utility.yul\":4863:4889   */\n      swap1\n      pop\n        /* \"#utility.yul\":4899:4970   */\n      tag_195\n        /* \"#utility.yul\":4967:4968   */\n      0x00\n        /* \"#utility.yul\":4956:4965   */\n      dup4\n        /* \"#utility.yul\":4952:4969   */\n      add\n        /* \"#utility.yul\":4943:4949   */\n      dup5\n        /* \"#utility.yul\":4899:4970   */\n      tag_105\n      jump\t// in\n    tag_195:\n        /* \"#utility.yul\":4755:4977   */\n      swap3\n      swap2\n      pop\n      pop\n      jump\t// out\n        /* \"#utility.yul\":4983:5109   */\n    tag_115:\n        /* \"#utility.yul\":5020:5027   */\n      0x00\n        /* \"#utility.yul\":5060:5102   */\n      0xffffffffffffffffffffffffffffffffffffffff\n        /* \"#utility.yul\":5053:5058   */\n      dup3\n        /* \"#utility.yul\":5049:5103   */\n      and\n        /* \"#utility.yul\":5038:5103   */\n      swap1\n      pop\n        /* \"#utility.yul\":4983:5109   */\n      swap2\n      swap1\n      pop\n      jump\t// out\n        /* \"#utility.yul\":5115:5211   */\n    tag_116:\n        /* \"#utility.yul\":5152:5159   */\n      0x00\n        /* \"#utility.yul\":5181:5205   */\n      tag_198\n        /* \"#utility.yul\":5199:5204   */\n      dup3\n        /* \"#utility.yul\":5181:5205   */\n      tag_115\n      jump\t// in\n    tag_198:\n        /* \"#utility.yul\":5170:5205   */\n      swap1\n      pop\n        /* \"#utility.yul\":5115:5211   */\n      swap2\n      swap1\n      pop\n      jump\t// out\n        /* \"#utility.yul\":5217:5335   */\n    tag_117:\n        /* \"#utility.yul\":5304:5328   */\n      tag_200\n        /* \"#utility.yul\":5322:5327   */\n      dup2\n        /* \"#utility.yul\":5304:5328   */\n      tag_116\n      jump\t// in\n    tag_200:\n        /* \"#utility.yul\":5299:5302   */\n      dup3\n        /* \"#utility.yul\":5292:5329   */\n      mstore\n        /* \"#utility.yul\":5217:5335   */\n      pop\n      pop\n      jump\t// out\n        /* \"#utility.yul\":5341:5563   */\n    tag_33:\n        /* \"#utility.yul\":5434:5438   */\n      0x00\n        /* \"#utility.yul\":5472:5474   */\n      0x20\n        /* \"#utility.yul\":5461:5470   */\n      dup3\n        /* \"#utility.yul\":5457:5475   */\n      add\n        /* \"#utility.yul\":5449:5475   */\n      swap1\n      pop\n        /* \"#utility.yul\":5485:5556   */\n      tag_202\n        /* \"#utility.yul\":5553:5554   */\n      0x00\n        /* \"#utility.yul\":5542:5551   */\n      dup4\n        /* \"#utility.yul\":5538:5555   */\n      add\n        /* \"#utility.yul\":5529:5535   */\n      dup5\n        /* \"#utility.yul\":5485:5556   */\n      tag_117\n      jump\t// in\n    tag_202:\n        /* \"#utility.yul\":5341:5563   */\n      swap3\n      swap2\n      pop\n      pop\n      jump\t// out\n        /* \"#utility.yul\":5569:5686   */\n    tag_118:\n        /* \"#utility.yul\":5678:5679   */\n      0x00\n        /* \"#utility.yul\":5675:5676   */\n      dup1\n        /* \"#utility.yul\":5668:5680   */\n      revert\n        /* \"#utility.yul\":5692:5809   */\n    tag_119:\n        /* \"#utility.yul\":5801:5802   */\n      0x00\n        /* \"#utility.yul\":5798:5799   */\n      dup1\n        /* \"#utility.yul\":5791:5803   */\n      revert\n        /* \"#utility.yul\":5815:5995   */\n    tag_120:\n        /* \"#utility.yul\":5863:5940   */\n      0x4e487b7100000000000000000000000000000000000000000000000000000000\n        /* \"#utility.yul\":5860:5861   */\n      0x00\n        /* \"#utility.yul\":5853:5941   */\n      mstore\n        /* \"#utility.yul\":5960:5964   */\n      0x41\n        /* \"#utility.yul\":5957:5958   */\n      0x04\n        /* \"#utility.yul\":5950:5965   */\n      mstore\n        /* \"#utility.yul\":5984:5988   */\n      0x24\n        /* \"#utility.yul\":5981:5982   */\n      0x00\n        /* \"#utility.yul\":5974:5989   */\n      revert\n        /* \"#utility.yul\":6001:6282   */\n    tag_121:\n        /* \"#utility.yul\":6084:6111   */\n      tag_207\n        /* \"#utility.yul\":6106:6110   */\n      dup3\n        /* \"#utility.yul\":6084:6111   */\n      tag_109\n      jump\t// in\n    tag_207:\n        /* \"#utility.yul\":6076:6082   */\n      dup2\n        /* \"#utility.yul\":6072:6112   */\n      add\n        /* \"#utility.yul\":6214:6220   */\n      dup2\n        /* \"#utility.yul\":6202:6212   */\n      dup2\n        /* \"#utility.yul\":6199:6221   */\n      lt\n        /* \"#utility.yul\":6178:6196   */\n      0xffffffffffffffff\n        /* \"#utility.yul\":6166:6176   */\n      dup3\n        /* \"#utility.yul\":6163:6197   */\n      gt\n        /* \"#utility.yul\":6160:6222   */\n      or\n        /* \"#utility.yul\":6157:6245   */\n      iszero\n      tag_208\n      jumpi\n        /* \"#utility.yul\":6225:6243   */\n      tag_209\n      tag_120\n      jump\t// in\n    tag_209:\n        /* \"#utility.yul\":6157:6245   */\n    tag_208:\n        /* \"#utility.yul\":6265:6275   */\n      dup1\n        /* \"#utility.yul\":6261:6263   */\n      0x40\n        /* \"#utility.yul\":6254:6276   */\n      mstore\n        /* \"#utility.yul\":6044:6282   */\n      pop\n        /* \"#utility.yul\":6001:6282   */\n      pop\n      pop\n      jump\t// out\n        /* \"#utility.yul\":6288:6417   */\n    tag_122:\n        /* \"#utility.yul\":6322:6328   */\n      0x00\n        /* \"#utility.yul\":6349:6369   */\n      tag_211\n      tag_99\n      jump\t// in\n    tag_211:\n        /* \"#utility.yul\":6339:6369   */\n      swap1\n      pop\n        /* \"#utility.yul\":6378:6411   */\n      tag_212\n        /* \"#utility.yul\":6406:6410   */\n      dup3\n        /* \"#utility.yul\":6398:6404   */\n      dup3\n        /* \"#utility.yul\":6378:6411   */\n      tag_121\n      jump\t// in\n    tag_212:\n        /* \"#utility.yul\":6288:6417   */\n      swap2\n      swap1\n      pop\n      jump\t// out\n        /* \"#utility.yul\":6423:6731   */\n    tag_123:\n        /* \"#utility.yul\":6485:6489   */\n      0x00\n        /* \"#utility.yul\":6575:6593   */\n      0xffffffffffffffff\n        /* \"#utility.yul\":6567:6573   */\n      dup3\n        /* \"#utility.yul\":6564:6594   */\n      gt\n        /* \"#utility.yul\":6561:6617   */\n      iszero\n      tag_214\n      jumpi\n        /* \"#utility.yul\":6597:6615   */\n      tag_215\n      tag_120\n      jump\t// in\n    tag_215:\n        /* \"#utility.yul\":6561:6617   */\n    tag_214:\n        /* \"#utility.yul\":6635:6664   */\n      tag_216\n        /* \"#utility.yul\":6657:6663   */\n      dup3\n        /* \"#utility.yul\":6635:6664   */\n      tag_109\n      jump\t// in\n    tag_216:\n        /* \"#utility.yul\":6627:6664   */\n      swap1\n      pop\n        /* \"#utility.yul\":6719:6723   */\n      0x20\n        /* \"#utility.yul\":6713:6717   */\n      dup2\n        /* \"#utility.yul\":6709:6724   */\n      add\n        /* \"#utility.yul\":6701:6724   */\n      swap1\n      pop\n        /* \"#utility.yul\":6423:6731   */\n      swap2\n      swap1\n      pop\n      jump\t// out\n        /* \"#utility.yul\":6737:6885   */\n    tag_124:\n        /* \"#utility.yul\":6835:6841   */\n      dup3\n        /* \"#utility.yul\":6830:6833   */\n      dup2\n        /* \"#utility.yul\":6825:6828   */\n      dup4\n        /* \"#utility.yul\":6812:6842   */\n      calldatacopy\n        /* \"#utility.yul\":6876:6877   */\n      0x00\n        /* \"#utility.yul\":6867:6873   */\n      dup4\n        /* \"#utility.yul\":6862:6865   */\n      dup4\n        /* \"#utility.yul\":6858:6874   */\n      add\n        /* \"#utility.yul\":6851:6878   */\n      mstore\n        /* \"#utility.yul\":6737:6885   */\n      pop\n      pop\n      pop\n      jump\t// out\n        /* \"#utility.yul\":6891:7316   */\n    tag_125:\n        /* \"#utility.yul\":6969:6974   */\n      0x00\n        /* \"#utility.yul\":6994:7060   */\n      tag_219\n        /* \"#utility.yul\":7010:7059   */\n      tag_220\n        /* \"#utility.yul\":7052:7058   */\n      dup5\n        /* \"#utility.yul\":7010:7059   */\n      tag_123\n      jump\t// in\n    tag_220:\n        /* \"#utility.yul\":6994:7060   */\n      tag_122\n      jump\t// in\n    tag_219:\n        /* \"#utility.yul\":6985:7060   */\n      swap1\n      pop\n        /* \"#utility.yul\":7083:7089   */\n      dup3\n        /* \"#utility.yul\":7076:7081   */\n      dup2\n        /* \"#utility.yul\":7069:7090   */\n      mstore\n        /* \"#utility.yul\":7121:7125   */\n      0x20\n        /* \"#utility.yul\":7114:7119   */\n      dup2\n        /* \"#utility.yul\":7110:7126   */\n      add\n        /* \"#utility.yul\":7159:7162   */\n      dup5\n        /* \"#utility.yul\":7150:7156   */\n      dup5\n        /* \"#utility.yul\":7145:7148   */\n      dup5\n        /* \"#utility.yul\":7141:7157   */\n      add\n        /* \"#utility.yul\":7138:7163   */\n      gt\n        /* \"#utility.yul\":7135:7247   */\n      iszero\n      tag_221\n      jumpi\n        /* \"#utility.yul\":7166:7245   */\n      tag_222\n      tag_119\n      jump\t// in\n    tag_222:\n        /* \"#utility.yul\":7135:7247   */\n    tag_221:\n        /* \"#utility.yul\":7256:7310   */\n      tag_223\n        /* \"#utility.yul\":7303:7309   */\n      dup5\n        /* \"#utility.yul\":7298:7301   */\n      dup3\n        /* \"#utility.yul\":7293:7296   */\n      dup6\n        /* \"#utility.yul\":7256:7310   */\n      tag_124\n      jump\t// in\n    tag_223:\n        /* \"#utility.yul\":6975:7316   */\n      pop\n        /* \"#utility.yul\":6891:7316   */\n      swap4\n      swap3\n      pop\n      pop\n      pop\n      jump\t// out\n        /* \"#utility.yul\":7336:7676   */\n    tag_126:\n        /* \"#utility.yul\":7392:7397   */\n      0x00\n        /* \"#utility.yul\":7441:7444   */\n      dup3\n        /* \"#utility.yul\":7434:7438   */\n      0x1f\n        /* \"#utility.yul\":7426:7432   */\n      dup4\n        /* \"#utility.yul\":7422:7439   */\n      add\n        /* \"#utility.yul\":7418:7445   */\n      slt\n        /* \"#utility.yul\":7408:7530   */\n      tag_225\n      jumpi\n        /* \"#utility.yul\":7449:7528   */\n      tag_226\n      tag_118\n      jump\t// in\n    tag_226:\n        /* \"#utility.yul\":7408:7530   */\n    tag_225:\n        /* \"#utility.yul\":7566:7572   */\n      dup2\n        /* \"#utility.yul\":7553:7573   */\n      calldataload\n        /* \"#utility.yul\":7591:7670   */\n      tag_227\n        /* \"#utility.yul\":7666:7669   */\n      dup5\n        /* \"#utility.yul\":7658:7664   */\n      dup3\n        /* \"#utility.yul\":7651:7655   */\n      0x20\n        /* \"#utility.yul\":7643:7649   */\n      dup7\n        /* \"#utility.yul\":7639:7656   */\n      add\n        /* \"#utility.yul\":7591:7670   */\n      tag_125\n      jump\t// in\n    tag_227:\n        /* \"#utility.yul\":7582:7670   */\n      swap2\n      pop\n        /* \"#utility.yul\":7398:7676   */\n      pop\n        /* \"#utility.yul\":7336:7676   */\n      swap3\n      swap2\n      pop\n      pop\n      jump\t// out\n        /* \"#utility.yul\":7682:8516   */\n    tag_37:\n        /* \"#utility.yul\":7770:7776   */\n      0x00\n        /* \"#utility.yul\":7778:7784   */\n      dup1\n        /* \"#utility.yul\":7827:7829   */\n      0x40\n        /* \"#utility.yul\":7815:7824   */\n      dup4\n        /* \"#utility.yul\":7806:7813   */\n      dup6\n        /* \"#utility.yul\":7802:7825   */\n      sub\n        /* \"#utility.yul\":7798:7830   */\n      slt\n        /* \"#utility.yul\":7795:7914   */\n      iszero\n      tag_229\n      jumpi\n        /* \"#utility.yul\":7833:7912   */\n      tag_230\n      tag_100\n      jump\t// in\n    tag_230:\n        /* \"#utility.yul\":7795:7914   */\n    tag_229:\n        /* \"#utility.yul\":7981:7982   */\n      0x00\n        /* \"#utility.yul\":7970:7979   */\n      dup4\n        /* \"#utility.yul\":7966:7983   */\n      add\n        /* \"#utility.yul\":7953:7984   */\n      calldataload\n        /* \"#utility.yul\":8011:8029   */\n      0xffffffffffffffff\n        /* \"#utility.yul\":8003:8009   */\n      dup2\n        /* \"#utility.yul\":8000:8030   */\n      gt\n        /* \"#utility.yul\":7997:8114   */\n      iszero\n      tag_231\n      jumpi\n        /* \"#utility.yul\":8033:8112   */\n      tag_232\n      tag_101\n      jump\t// in\n    tag_232:\n        /* \"#utility.yul\":7997:8114   */\n    tag_231:\n        /* \"#utility.yul\":8138:8201   */\n      tag_233\n        /* \"#utility.yul\":8193:8200   */\n      dup6\n        /* \"#utility.yul\":8184:8190   */\n      dup3\n        /* \"#utility.yul\":8173:8182   */\n      dup7\n        /* \"#utility.yul\":8169:8191   */\n      add\n        /* \"#utility.yul\":8138:8201   */\n      tag_126\n      jump\t// in\n    tag_233:\n        /* \"#utility.yul\":8128:8201   */\n      swap3\n      pop\n        /* \"#utility.yul\":7924:8211   */\n      pop\n        /* \"#utility.yul\":8278:8280   */\n      0x20\n        /* \"#utility.yul\":8267:8276   */\n      dup4\n        /* \"#utility.yul\":8263:8281   */\n      add\n        /* \"#utility.yul\":8250:8282   */\n      calldataload\n        /* \"#utility.yul\":8309:8327   */\n      0xffffffffffffffff\n        /* \"#utility.yul\":8301:8307   */\n      dup2\n        /* \"#utility.yul\":8298:8328   */\n      gt\n        /* \"#utility.yul\":8295:8412   */\n      iszero\n      tag_234\n      jumpi\n        /* \"#utility.yul\":8331:8410   */\n      tag_235\n      tag_101\n      jump\t// in\n    tag_235:\n        /* \"#utility.yul\":8295:8412   */\n    tag_234:\n        /* \"#utility.yul\":8436:8499   */\n      tag_236\n        /* \"#utility.yul\":8491:8498   */\n      dup6\n        /* \"#utility.yul\":8482:8488   */\n      dup3\n        /* \"#utility.yul\":8471:8480   */\n      dup7\n        /* \"#utility.yul\":8467:8489   */\n      add\n        /* \"#utility.yul\":8436:8499   */\n      tag_126\n      jump\t// in\n    tag_236:\n        /* \"#utility.yul\":8426:8499   */\n      swap2\n      pop\n        /* \"#utility.yul\":8221:8509   */\n      pop\n        /* \"#utility.yul\":7682:8516   */\n      swap3\n      pop\n      swap3\n      swap1\n      pop\n      jump\t// out\n        /* \"#utility.yul\":8522:8644   */\n    tag_127:\n        /* \"#utility.yul\":8595:8619   */\n      tag_238\n        /* \"#utility.yul\":8613:8618   */\n      dup2\n        /* \"#utility.yul\":8595:8619   */\n      tag_116\n      jump\t// in\n    tag_238:\n        /* \"#utility.yul\":8588:8593   */\n      dup2\n        /* \"#utility.yul\":8585:8620   */\n      eq\n        /* \"#utility.yul\":8575:8638   */\n      tag_239\n      jumpi\n        /* \"#utility.yul\":8634:8635   */\n      0x00\n        /* \"#utility.yul\":8631:8632   */\n      dup1\n        /* \"#utility.yul\":8624:8636   */\n      revert\n        /* \"#utility.yul\":8575:8638   */\n    tag_239:\n        /* \"#utility.yul\":8522:8644   */\n      pop\n      jump\t// out\n        /* \"#utility.yul\":8650:8789   */\n    tag_128:\n        /* \"#utility.yul\":8696:8701   */\n      0x00\n        /* \"#utility.yul\":8734:8740   */\n      dup2\n        /* \"#utility.yul\":8721:8741   */\n      calldataload\n        /* \"#utility.yul\":8712:8741   */\n      swap1\n      pop\n        /* \"#utility.yul\":8750:8783   */\n      tag_241\n        /* \"#utility.yul\":8777:8782   */\n      dup2\n        /* \"#utility.yul\":8750:8783   */\n      tag_127\n      jump\t// in\n    tag_241:\n        /* \"#utility.yul\":8650:8789   */\n      swap3\n      swap2\n      pop\n      pop\n      jump\t// out\n        /* \"#utility.yul\":8795:9124   */\n    tag_42:\n        /* \"#utility.yul\":8854:8860   */\n      0x00\n        /* \"#utility.yul\":8903:8905   */\n      0x20\n        /* \"#utility.yul\":8891:8900   */\n      dup3\n        /* \"#utility.yul\":8882:8889   */\n      dup5\n        /* \"#utility.yul\":8878:8901   */\n      sub\n        /* \"#utility.yul\":8874:8906   */\n      slt\n        /* \"#utility.yul\":8871:8990   */\n      iszero\n      tag_243\n      jumpi\n        /* \"#utility.yul\":8909:8988   */\n      tag_244\n      tag_100\n      jump\t// in\n    tag_244:\n        /* \"#utility.yul\":8871:8990   */\n    tag_243:\n        /* \"#utility.yul\":9029:9030   */\n      0x00\n        /* \"#utility.yul\":9054:9107   */\n      tag_245\n        /* \"#utility.yul\":9099:9106   */\n      dup5\n        /* \"#utility.yul\":9090:9096   */\n      dup3\n        /* \"#utility.yul\":9079:9088   */\n      dup6\n        /* \"#utility.yul\":9075:9097   */\n      add\n        /* \"#utility.yul\":9054:9107   */\n      tag_128\n      jump\t// in\n    tag_245:\n        /* \"#utility.yul\":9044:9107   */\n      swap2\n      pop\n        /* \"#utility.yul\":9000:9117   */\n      pop\n        /* \"#utility.yul\":8795:9124   */\n      swap3\n      swap2\n      pop\n      pop\n      jump\t// out\n        /* \"#utility.yul\":9130:9865   */\n    tag_50:\n        /* \"#utility.yul\":9347:9351   */\n      0x00\n        /* \"#utility.yul\":9385:9388   */\n      0x80\n        /* \"#utility.yul\":9374:9383   */\n      dup3\n        /* \"#utility.yul\":9370:9389   */\n      add\n        /* \"#utility.yul\":9362:9389   */\n      swap1\n      pop\n        /* \"#utility.yul\":9399:9470   */\n      tag_247\n        /* \"#utility.yul\":9467:9468   */\n      0x00\n        /* \"#utility.yul\":9456:9465   */\n      dup4\n        /* \"#utility.yul\":9452:9469   */\n      add\n        /* \"#utility.yul\":9443:9449   */\n      dup8\n        /* \"#utility.yul\":9399:9470   */\n      tag_105\n      jump\t// in\n    tag_247:\n        /* \"#utility.yul\":9517:9526   */\n      dup2\n        /* \"#utility.yul\":9511:9515   */\n      dup2\n        /* \"#utility.yul\":9507:9527   */\n      sub\n        /* \"#utility.yul\":9502:9504   */\n      0x20\n        /* \"#utility.yul\":9491:9500   */\n      dup4\n        /* \"#utility.yul\":9487:9505   */\n      add\n        /* \"#utility.yul\":9480:9528   */\n      mstore\n        /* \"#utility.yul\":9545:9623   */\n      tag_248\n        /* \"#utility.yul\":9618:9622   */\n      dup2\n        /* \"#utility.yul\":9609:9615   */\n      dup7\n        /* \"#utility.yul\":9545:9623   */\n      tag_110\n      jump\t// in\n    tag_248:\n        /* \"#utility.yul\":9537:9623   */\n      swap1\n      pop\n        /* \"#utility.yul\":9670:9679   */\n      dup2\n        /* \"#utility.yul\":9664:9668   */\n      dup2\n        /* \"#utility.yul\":9660:9680   */\n      sub\n        /* \"#utility.yul\":9655:9657   */\n      0x40\n        /* \"#utility.yul\":9644:9653   */\n      dup4\n        /* \"#utility.yul\":9640:9658   */\n      add\n        /* \"#utility.yul\":9633:9681   */\n      mstore\n        /* \"#utility.yul\":9698:9776   */\n      tag_249\n        /* \"#utility.yul\":9771:9775   */\n      dup2\n        /* \"#utility.yul\":9762:9768   */\n      dup6\n        /* \"#utility.yul\":9698:9776   */\n      tag_110\n      jump\t// in\n    tag_249:\n        /* \"#utility.yul\":9690:9776   */\n      swap1\n      pop\n        /* \"#utility.yul\":9786:9858   */\n      tag_250\n        /* \"#utility.yul\":9854:9856   */\n      0x60\n        /* \"#utility.yul\":9843:9852   */\n      dup4\n        /* \"#utility.yul\":9839:9857   */\n      add\n        /* \"#utility.yul\":9830:9836   */\n      dup5\n        /* \"#utility.yul\":9786:9858   */\n      tag_105\n      jump\t// in\n    tag_250:\n        /* \"#utility.yul\":9130:9865   */\n      swap6\n      swap5\n      pop\n      pop\n      pop\n      pop\n      pop\n      jump\t// out\n        /* \"#utility.yul\":9871:10051   */\n    tag_129:\n        /* \"#utility.yul\":9919:9996   */\n      0x4e487b7100000000000000000000000000000000000000000000000000000000\n        /* \"#utility.yul\":9916:9917   */\n      0x00\n        /* \"#utility.yul\":9909:9997   */\n      mstore\n        /* \"#utility.yul\":10016:10020   */\n      0x22\n        /* \"#utility.yul\":10013:10014   */\n      0x04\n        /* \"#utility.yul\":10006:10021   */\n      mstore\n        /* \"#utility.yul\":10040:10044   */\n      0x24\n        /* \"#utility.yul\":10037:10038   */\n      0x00\n        /* \"#utility.yul\":10030:10045   */\n      revert\n        /* \"#utility.yul\":10057:10377   */\n    tag_55:\n        /* \"#utility.yul\":10101:10107   */\n      0x00\n        /* \"#utility.yul\":10138:10139   */\n      0x02\n        /* \"#utility.yul\":10132:10136   */\n      dup3\n        /* \"#utility.yul\":10128:10140   */\n      div\n        /* \"#utility.yul\":10118:10140   */\n      swap1\n      pop\n        /* \"#utility.yul\":10185:10186   */\n      0x01\n        /* \"#utility.yul\":10179:10183   */\n      dup3\n        /* \"#utility.yul\":10175:10187   */\n      and\n        /* \"#utility.yul\":10206:10224   */\n      dup1\n        /* \"#utility.yul\":10196:10277   */\n      tag_253\n      jumpi\n        /* \"#utility.yul\":10262:10266   */\n      0x7f\n        /* \"#utility.yul\":10254:10260   */\n      dup3\n        /* \"#utility.yul\":10250:10267   */\n      and\n        /* \"#utility.yul\":10240:10267   */\n      swap2\n      pop\n        /* \"#utility.yul\":10196:10277   */\n    tag_253:\n        /* \"#utility.yul\":10324:10326   */\n      0x20\n        /* \"#utility.yul\":10316:10322   */\n      dup3\n        /* \"#utility.yul\":10313:10327   */\n      lt\n        /* \"#utility.yul\":10293:10311   */\n      dup2\n        /* \"#utility.yul\":10290:10328   */\n      sub\n        /* \"#utility.yul\":10287:10371   */\n      tag_254\n      jumpi\n        /* \"#utility.yul\":10343:10361   */\n      tag_255\n      tag_129\n      jump\t// in\n    tag_255:\n        /* \"#utility.yul\":10287:10371   */\n    tag_254:\n        /* \"#utility.yul\":10108:10377   */\n      pop\n        /* \"#utility.yul\":10057:10377   */\n      swap2\n      swap1\n      pop\n      jump\t// out\n        /* \"#utility.yul\":10383:10605   */\n    tag_130:\n        /* \"#utility.yul\":10523:10557   */\n      0x4f6e6c79206f776e65722063616e20706572666f726d20746869732061637469\n        /* \"#utility.yul\":10519:10520   */\n      0x00\n        /* \"#utility.yul\":10511:10517   */\n      dup3\n        /* \"#utility.yul\":10507:10521   */\n      add\n        /* \"#utility.yul\":10500:10558   */\n      mstore\n        /* \"#utility.yul\":10592:10597   */\n      0x6f6e2e0000000000000000000000000000000000000000000000000000000000\n        /* \"#utility.yul\":10587:10589   */\n      0x20\n        /* \"#utility.yul\":10579:10585   */\n      dup3\n        /* \"#utility.yul\":10575:10590   */\n      add\n        /* \"#utility.yul\":10568:10598   */\n      mstore\n        /* \"#utility.yul\":10383:10605   */\n      pop\n      jump\t// out\n        /* \"#utility.yul\":10611:10977   */\n    tag_131:\n        /* \"#utility.yul\":10753:10756   */\n      0x00\n        /* \"#utility.yul\":10774:10841   */\n      tag_258\n        /* \"#utility.yul\":10838:10840   */\n      0x23\n        /* \"#utility.yul\":10833:10836   */\n      dup4\n        /* \"#utility.yul\":10774:10841   */\n      tag_107\n      jump\t// in\n    tag_258:\n        /* \"#utility.yul\":10767:10841   */\n      swap2\n      pop\n        /* \"#utility.yul\":10850:10943   */\n      tag_259\n        /* \"#utility.yul\":10939:10942   */\n      dup3\n        /* \"#utility.yul\":10850:10943   */\n      tag_130\n      jump\t// in\n    tag_259:\n        /* \"#utility.yul\":10968:10970   */\n      0x40\n        /* \"#utility.yul\":10963:10966   */\n      dup3\n        /* \"#utility.yul\":10959:10971   */\n      add\n        /* \"#utility.yul\":10952:10971   */\n      swap1\n      pop\n        /* \"#utility.yul\":10611:10977   */\n      swap2\n      swap1\n      pop\n      jump\t// out\n        /* \"#utility.yul\":10983:11402   */\n    tag_76:\n        /* \"#utility.yul\":11149:11153   */\n      0x00\n        /* \"#utility.yul\":11187:11189   */\n      0x20\n        /* \"#utility.yul\":11176:11185   */\n      dup3\n        /* \"#utility.yul\":11172:11190   */\n      add\n        /* \"#utility.yul\":11164:11190   */\n      swap1\n      pop\n        /* \"#utility.yul\":11236:11245   */\n      dup2\n        /* \"#utility.yul\":11230:11234   */\n      dup2\n        /* \"#utility.yul\":11226:11246   */\n      sub\n        /* \"#utility.yul\":11222:11223   */\n      0x00\n        /* \"#utility.yul\":11211:11220   */\n      dup4\n        /* \"#utility.yul\":11207:11224   */\n      add\n        /* \"#utility.yul\":11200:11247   */\n      mstore\n        /* \"#utility.yul\":11264:11395   */\n      tag_261\n        /* \"#utility.yul\":11390:11394   */\n      dup2\n        /* \"#utility.yul\":11264:11395   */\n      tag_131\n      jump\t// in\n    tag_261:\n        /* \"#utility.yul\":11256:11395   */\n      swap1\n      pop\n        /* \"#utility.yul\":10983:11402   */\n      swap2\n      swap1\n      pop\n      jump\t// out\n        /* \"#utility.yul\":11408:11588   */\n    tag_132:\n        /* \"#utility.yul\":11456:11533   */\n      0x4e487b7100000000000000000000000000000000000000000000000000000000\n        /* \"#utility.yul\":11453:11454   */\n      0x00\n        /* \"#utility.yul\":11446:11534   */\n      mstore\n        /* \"#utility.yul\":11553:11557   */\n      0x11\n        /* \"#utility.yul\":11550:11551   */\n      0x04\n        /* \"#utility.yul\":11543:11558   */\n      mstore\n        /* \"#utility.yul\":11577:11581   */\n      0x24\n        /* \"#utility.yul\":11574:11575   */\n      0x00\n        /* \"#utility.yul\":11567:11582   */\n      revert\n        /* \"#utility.yul\":11594:11827   */\n    tag_79:\n        /* \"#utility.yul\":11633:11636   */\n      0x00\n        /* \"#utility.yul\":11656:11680   */\n      tag_264\n        /* \"#utility.yul\":11674:11679   */\n      dup3\n        /* \"#utility.yul\":11656:11680   */\n      tag_102\n      jump\t// in\n    tag_264:\n        /* \"#utility.yul\":11647:11680   */\n      swap2\n      pop\n        /* \"#utility.yul\":11702:11768   */\n      0xffffffffffffffffffffffffffffffffffffffffffffffffffffffffffffffff\n        /* \"#utility.yul\":11695:11700   */\n      dup3\n        /* \"#utility.yul\":11692:11769   */\n      sub\n        /* \"#utility.yul\":11689:11792   */\n      tag_265\n      jumpi\n        /* \"#utility.yul\":11772:11790   */\n      tag_266\n      tag_132\n      jump\t// in\n    tag_266:\n        /* \"#utility.yul\":11689:11792   */\n    tag_265:\n        /* \"#utility.yul\":11819:11820   */\n      0x01\n        /* \"#utility.yul\":11812:11817   */\n      dup3\n        /* \"#utility.yul\":11808:11821   */\n      add\n        /* \"#utility.yul\":11801:11821   */\n      swap1\n      pop\n        /* \"#utility.yul\":11594:11827   */\n      swap2\n      swap1\n      pop\n      jump\t// out\n        /* \"#utility.yul\":11833:11974   */\n    tag_133:\n        /* \"#utility.yul\":11882:11886   */\n      0x00\n        /* \"#utility.yul\":11905:11908   */\n      dup2\n        /* \"#utility.yul\":11897:11908   */\n      swap1\n      pop\n        /* \"#utility.yul\":11928:11931   */\n      dup2\n        /* \"#utility.yul\":11925:11926   */\n      0x00\n        /* \"#utility.yul\":11918:11932   */\n      mstore\n        /* \"#utility.yul\":11962:11966   */\n      0x20\n        /* \"#utility.yul\":11959:11960   */\n      0x00\n        /* \"#utility.yul\":11949:11967   */\n      keccak256\n        /* \"#utility.yul\":11941:11967   */\n      swap1\n      pop\n        /* \"#utility.yul\":11833:11974   */\n      swap2\n      swap1\n      pop\n      jump\t// out\n        /* \"#utility.yul\":11980:12073   */\n    tag_134:\n        /* \"#utility.yul\":12017:12023   */\n      0x00\n        /* \"#utility.yul\":12064:12066   */\n      0x20\n        /* \"#utility.yul\":12059:12061   */\n      0x1f\n        /* \"#utility.yul\":12052:12057   */\n      dup4\n        /* \"#utility.yul\":12048:12062   */\n      add\n        /* \"#utility.yul\":12044:12067   */\n      div\n        /* \"#utility.yul\":12034:12067   */\n      swap1\n      pop\n        /* \"#utility.yul\":11980:12073   */\n      swap2\n      swap1\n      pop\n      jump\t// out\n        /* \"#utility.yul\":12079:12186   */\n    tag_135:\n        /* \"#utility.yul\":12123:12131   */\n      0x00\n        /* \"#utility.yul\":12173:12178   */\n      dup3\n        /* \"#utility.yul\":12167:12171   */\n      dup3\n        /* \"#utility.yul\":12163:12179   */\n      shl\n        /* \"#utility.yul\":12142:12179   */\n      swap1\n      pop\n        /* \"#utility.yul\":12079:12186   */\n      swap3\n      swap2\n      pop\n      pop\n      jump\t// out\n        /* \"#utility.yul\":12192:12585   */\n    tag_136:\n        /* \"#utility.yul\":12261:12267   */\n      0x00\n        /* \"#utility.yul\":12311:12312   */\n      0x08\n        /* \"#utility.yul\":12299:12309   */\n      dup4\n        /* \"#utility.yul\":12295:12313   */\n      mul\n        /* \"#utility.yul\":12334:12431   */\n      tag_271\n        /* \"#utility.yul\":12364:12430   */\n      0xffffffffffffffffffffffffffffffffffffffffffffffffffffffffffffffff\n        /* \"#utility.yul\":12353:12362   */\n      dup3\n        /* \"#utility.yul\":12334:12431   */\n      tag_135\n      jump\t// in\n    tag_271:\n        /* \"#utility.yul\":12452:12491   */\n      tag_272\n        /* \"#utility.yul\":12482:12490   */\n      dup7\n        /* \"#utility.yul\":12471:12480   */\n      dup4\n        /* \"#utility.yul\":12452:12491   */\n      tag_135\n      jump\t// in\n    tag_272:\n        /* \"#utility.yul\":12440:12491   */\n      swap6\n      pop\n        /* \"#utility.yul\":12524:12528   */\n      dup1\n        /* \"#utility.yul\":12520:12529   */\n      not\n        /* \"#utility.yul\":12513:12518   */\n      dup5\n        /* \"#utility.yul\":12509:12530   */\n      and\n        /* \"#utility.yul\":12500:12530   */\n      swap4\n      pop\n        /* \"#utility.yul\":12573:12577   */\n      dup1\n        /* \"#utility.yul\":12563:12571   */\n      dup7\n        /* \"#utility.yul\":12559:12578   */\n      and\n        /* \"#utility.yul\":12552:12557   */\n      dup5\n        /* \"#utility.yul\":12549:12579   */\n      or\n        /* \"#utility.yul\":12539:12579   */\n      swap3\n      pop\n        /* \"#utility.yul\":12268:12585   */\n      pop\n      pop\n        /* \"#utility.yul\":12192:12585   */\n      swap4\n      swap3\n      pop\n      pop\n      pop\n      jump\t// out\n        /* \"#utility.yul\":12591:12651   */\n    tag_137:\n        /* \"#utility.yul\":12619:12622   */\n      0x00\n        /* \"#utility.yul\":12640:12645   */\n      dup2\n        /* \"#utility.yul\":12633:12645   */\n      swap1\n      pop\n        /* \"#utility.yul\":12591:12651   */\n      swap2\n      swap1\n      pop\n      jump\t// out\n        /* \"#utility.yul\":12657:12799   */\n    tag_138:\n        /* \"#utility.yul\":12707:12716   */\n      0x00\n        /* \"#utility.yul\":12740:12793   */\n      tag_275\n        /* \"#utility.yul\":12758:12792   */\n      tag_276\n        /* \"#utility.yul\":12767:12791   */\n      tag_277\n        /* \"#utility.yul\":12785:12790   */\n      dup5\n        /* \"#utility.yul\":12767:12791   */\n      tag_102\n      jump\t// in\n    tag_277:\n        /* \"#utility.yul\":12758:12792   */\n      tag_137\n      jump\t// in\n    tag_276:\n        /* \"#utility.yul\":12740:12793   */\n      tag_102\n      jump\t// in\n    tag_275:\n        /* \"#utility.yul\":12727:12793   */\n      swap1\n      pop\n        /* \"#utility.yul\":12657:12799   */\n      swap2\n      swap1\n      pop\n      jump\t// out\n        /* \"#utility.yul\":12805:12880   */\n    tag_139:\n        /* \"#utility.yul\":12848:12851   */\n      0x00\n        /* \"#utility.yul\":12869:12874   */\n      dup2\n        /* \"#utility.yul\":12862:12874   */\n      swap1\n      pop\n        /* \"#utility.yul\":12805:12880   */\n      swap2\n      swap1\n      pop\n      jump\t// out\n        /* \"#utility.yul\":12886:13155   */\n    tag_140:\n        /* \"#utility.yul\":12996:13035   */\n      tag_280\n        /* \"#utility.yul\":13027:13034   */\n      dup4\n        /* \"#utility.yul\":12996:13035   */\n      tag_138\n      jump\t// in\n    tag_280:\n        /* \"#utility.yul\":13057:13148   */\n      tag_281\n        /* \"#utility.yul\":13106:13147   */\n      tag_282\n        /* \"#utility.yul\":13130:13146   */\n      dup3\n        /* \"#utility.yul\":13106:13147   */\n      tag_139\n      jump\t// in\n    tag_282:\n        /* \"#utility.yul\":13098:13104   */\n      dup5\n        /* \"#utility.yul\":13091:13095   */\n      dup5\n        /* \"#utility.yul\":13085:13096   */\n      sload\n        /* \"#utility.yul\":13057:13148   */\n      tag_136\n      jump\t// in\n    tag_281:\n        /* \"#utility.yul\":13051:13055   */\n      dup3\n        /* \"#utility.yul\":13044:13149   */\n      sstore\n        /* \"#utility.yul\":12962:13155   */\n      pop\n        /* \"#utility.yul\":12886:13155   */\n      pop\n      pop\n      pop\n      jump\t// out\n        /* \"#utility.yul\":13161:13234   */\n    tag_141:\n        /* \"#utility.yul\":13206:13209   */\n      0x00\n        /* \"#utility.yul\":13161:13234   */\n      swap1\n      jump\t// out\n        /* \"#utility.yul\":13240:13429   */\n    tag_142:\n        /* \"#utility.yul\":13317:13349   */\n      tag_285\n      tag_141\n      jump\t// in\n    tag_285:\n        /* \"#utility.yul\":13358:13423   */\n      tag_286\n        /* \"#utility.yul\":13416:13422   */\n      dup2\n        /* \"#utility.yul\":13408:13414   */\n      dup5\n        /* \"#utility.yul\":13402:13406   */\n      dup5\n        /* \"#utility.yul\":13358:13423   */\n      tag_140\n      jump\t// in\n    tag_286:\n        /* \"#utility.yul\":13293:13429   */\n      pop\n        /* \"#utility.yul\":13240:13429   */\n      pop\n      pop\n      jump\t// out\n        /* \"#utility.yul\":13435:13621   */\n    tag_143:\n        /* \"#utility.yul\":13495:13615   */\n    tag_288:\n        /* \"#utility.yul\":13512:13515   */\n      dup2\n        /* \"#utility.yul\":13505:13510   */\n      dup2\n        /* \"#utility.yul\":13502:13516   */\n      lt\n        /* \"#utility.yul\":13495:13615   */\n      iszero\n      tag_290\n      jumpi\n        /* \"#utility.yul\":13566:13605   */\n      tag_291\n        /* \"#utility.yul\":13603:13604   */\n      0x00\n        /* \"#utility.yul\":13596:13601   */\n      dup3\n        /* \"#utility.yul\":13566:13605   */\n      tag_142\n      jump\t// in\n    tag_291:\n        /* \"#utility.yul\":13539:13540   */\n      0x01\n        /* \"#utility.yul\":13532:13537   */\n      dup2\n        /* \"#utility.yul\":13528:13541   */\n      add\n        /* \"#utility.yul\":13519:13541   */\n      swap1\n      pop\n        /* \"#utility.yul\":13495:13615   */\n      jump(tag_288)\n    tag_290:\n        /* \"#utility.yul\":13435:13621   */\n      pop\n      pop\n      jump\t// out\n        /* \"#utility.yul\":13627:14170   */\n    tag_144:\n        /* \"#utility.yul\":13728:13730   */\n      0x1f\n        /* \"#utility.yul\":13723:13726   */\n      dup3\n        /* \"#utility.yul\":13720:13731   */\n      gt\n        /* \"#utility.yul\":13717:14163   */\n      iszero\n      tag_293\n      jumpi\n        /* \"#utility.yul\":13762:13800   */\n      tag_294\n        /* \"#utility.yul\":13794:13799   */\n      dup2\n        /* \"#utility.yul\":13762:13800   */\n      tag_133\n      jump\t// in\n    tag_294:\n        /* \"#utility.yul\":13846:13875   */\n      tag_295\n        /* \"#utility.yul\":13864:13874   */\n      dup5\n        /* \"#utility.yul\":13846:13875   */\n      tag_134\n      jump\t// in\n    tag_295:\n        /* \"#utility.yul\":13836:13844   */\n      dup2\n        /* \"#utility.yul\":13832:13876   */\n      add\n        /* \"#utility.yul\":14029:14031   */\n      0x20\n        /* \"#utility.yul\":14017:14027   */\n      dup6\n        /* \"#utility.yul\":14014:14032   */\n      lt\n        /* \"#utility.yul\":14011:14060   */\n      iszero\n      tag_296\n      jumpi\n        /* \"#utility.yul\":14050:14058   */\n      dup2\n        /* \"#utility.yul\":14035:14058   */\n      swap1\n      pop\n        /* \"#utility.yul\":14011:14060   */\n    tag_296:\n        /* \"#utility.yul\":14073:14153   */\n      tag_297\n        /* \"#utility.yul\":14129:14151   */\n      tag_298\n        /* \"#utility.yul\":14147:14150   */\n      dup6\n        /* \"#utility.yul\":14129:14151   */\n      tag_134\n      jump\t// in\n    tag_298:\n        /* \"#utility.yul\":14119:14127   */\n      dup4\n        /* \"#utility.yul\":14115:14152   */\n      add\n        /* \"#utility.yul\":14102:14113   */\n      dup3\n        /* \"#utility.yul\":14073:14153   */\n      tag_143\n      jump\t// in\n    tag_297:\n        /* \"#utility.yul\":13732:14163   */\n      pop\n      pop\n        /* \"#utility.yul\":13717:14163   */\n    tag_293:\n        /* \"#utility.yul\":13627:14170   */\n      pop\n      pop\n      pop\n      jump\t// out\n        /* \"#utility.yul\":14176:14293   */\n    tag_145:\n        /* \"#utility.yul\":14230:14238   */\n      0x00\n        /* \"#utility.yul\":14280:14285   */\n      dup3\n        /* \"#utility.yul\":14274:14278   */\n      dup3\n        /* \"#utility.yul\":14270:14286   */\n      shr\n        /* \"#utility.yul\":14249:14286   */\n      swap1\n      pop\n        /* \"#utility.yul\":14176:14293   */\n      swap3\n      swap2\n      pop\n      pop\n      jump\t// out\n        /* \"#utility.yul\":14299:14468   */\n    tag_146:\n        /* \"#utility.yul\":14343:14349   */\n      0x00\n        /* \"#utility.yul\":14376:14427   */\n      tag_301\n        /* \"#utility.yul\":14424:14425   */\n      0x00\n        /* \"#utility.yul\":14420:14426   */\n      not\n        /* \"#utility.yul\":14412:14417   */\n      dup5\n        /* \"#utility.yul\":14409:14410   */\n      0x08\n        /* \"#utility.yul\":14405:14418   */\n      mul\n        /* \"#utility.yul\":14376:14427   */\n      tag_145\n      jump\t// in\n    tag_301:\n        /* \"#utility.yul\":14372:14428   */\n      not\n        /* \"#utility.yul\":14457:14461   */\n      dup1\n        /* \"#utility.yul\":14451:14455   */\n      dup4\n        /* \"#utility.yul\":14447:14462   */\n      and\n        /* \"#utility.yul\":14437:14462   */\n      swap2\n      pop\n        /* \"#utility.yul\":14350:14468   */\n      pop\n        /* \"#utility.yul\":14299:14468   */\n      swap3\n      swap2\n      pop\n      pop\n      jump\t// out\n        /* \"#utility.yul\":14473:14768   */\n    tag_147:\n        /* \"#utility.yul\":14549:14553   */\n      0x00\n        /* \"#utility.yul\":14695:14724   */\n      tag_303\n        /* \"#utility.yul\":14720:14723   */\n      dup4\n        /* \"#utility.yul\":14714:14718   */\n      dup4\n        /* \"#utility.yul\":14695:14724   */\n      tag_146\n      jump\t// in\n    tag_303:\n        /* \"#utility.yul\":14687:14724   */\n      swap2\n      pop\n        /* \"#utility.yul\":14757:14760   */\n      dup3\n        /* \"#utility.yul\":14754:14755   */\n      0x02\n        /* \"#utility.yul\":14750:14761   */\n      mul\n        /* \"#utility.yul\":14744:14748   */\n      dup3\n        /* \"#utility.yul\":14741:14762   */\n      or\n        /* \"#utility.yul\":14733:14762   */\n      swap1\n      pop\n        /* \"#utility.yul\":14473:14768   */\n      swap3\n      swap2\n      pop\n      pop\n      jump\t// out\n        /* \"#utility.yul\":14773:16168   */\n    tag_81:\n        /* \"#utility.yul\":14890:14927   */\n      tag_305\n        /* \"#utility.yul\":14923:14926   */\n      dup3\n        /* \"#utility.yul\":14890:14927   */\n      tag_106\n      jump\t// in\n    tag_305:\n        /* \"#utility.yul\":14992:15010   */\n      0xffffffffffffffff\n        /* \"#utility.yul\":14984:14990   */\n      dup2\n        /* \"#utility.yul\":14981:15011   */\n      gt\n        /* \"#utility.yul\":14978:15034   */\n      iszero\n      tag_306\n      jumpi\n        /* \"#utility.yul\":15014:15032   */\n      tag_307\n      tag_120\n      jump\t// in\n    tag_307:\n        /* \"#utility.yul\":14978:15034   */\n    tag_306:\n        /* \"#utility.yul\":15058:15096   */\n      tag_308\n        /* \"#utility.yul\":15090:15094   */\n      dup3\n        /* \"#utility.yul\":15084:15095   */\n      sload\n        /* \"#utility.yul\":15058:15096   */\n      tag_55\n      jump\t// in\n    tag_308:\n        /* \"#utility.yul\":15143:15210   */\n      tag_309\n        /* \"#utility.yul\":15203:15209   */\n      dup3\n        /* \"#utility.yul\":15195:15201   */\n      dup3\n        /* \"#utility.yul\":15189:15193   */\n      dup6\n        /* \"#utility.yul\":15143:15210   */\n      tag_144\n      jump\t// in\n    tag_309:\n        /* \"#utility.yul\":15237:15238   */\n      0x00\n        /* \"#utility.yul\":15261:15265   */\n      0x20\n        /* \"#utility.yul\":15248:15265   */\n      swap1\n      pop\n        /* \"#utility.yul\":15293:15295   */\n      0x1f\n        /* \"#utility.yul\":15285:15291   */\n      dup4\n        /* \"#utility.yul\":15282:15296   */\n      gt\n        /* \"#utility.yul\":15310:15311   */\n      0x01\n        /* \"#utility.yul\":15305:15923   */\n      dup2\n      eq\n      tag_311\n      jumpi\n        /* \"#utility.yul\":15967:15968   */\n      0x00\n        /* \"#utility.yul\":15984:15990   */\n      dup5\n        /* \"#utility.yul\":15981:16058   */\n      iszero\n      tag_312\n      jumpi\n        /* \"#utility.yul\":16033:16042   */\n      dup3\n        /* \"#utility.yul\":16028:16031   */\n      dup8\n        /* \"#utility.yul\":16024:16043   */\n      add\n        /* \"#utility.yul\":16018:16044   */\n      mload\n        /* \"#utility.yul\":16009:16044   */\n      swap1\n      pop\n        /* \"#utility.yul\":15981:16058   */\n    tag_312:\n        /* \"#utility.yul\":16084:16151   */\n      tag_313\n        /* \"#utility.yul\":16144:16150   */\n      dup6\n        /* \"#utility.yul\":16137:16142   */\n      dup3\n        /* \"#utility.yul\":16084:16151   */\n      tag_147\n      jump\t// in\n    tag_313:\n        /* \"#utility.yul\":16078:16082   */\n      dup7\n        /* \"#utility.yul\":16071:16152   */\n      sstore\n        /* \"#utility.yul\":15940:16162   */\n      pop\n        /* \"#utility.yul\":15275:16162   */\n      jump(tag_310)\n        /* \"#utility.yul\":15305:15923   */\n    tag_311:\n        /* \"#utility.yul\":15357:15361   */\n      0x1f\n        /* \"#utility.yul\":15353:15362   */\n      not\n        /* \"#utility.yul\":15345:15351   */\n      dup5\n        /* \"#utility.yul\":15341:15363   */\n      and\n        /* \"#utility.yul\":15391:15428   */\n      tag_314\n        /* \"#utility.yul\":15423:15427   */\n      dup7\n        /* \"#utility.yul\":15391:15428   */\n      tag_133\n      jump\t// in\n    tag_314:\n        /* \"#utility.yul\":15450:15451   */\n      0x00\n        /* \"#utility.yul\":15464:15672   */\n    tag_315:\n        /* \"#utility.yul\":15478:15485   */\n      dup3\n        /* \"#utility.yul\":15475:15476   */\n      dup2\n        /* \"#utility.yul\":15472:15486   */\n      lt\n        /* \"#utility.yul\":15464:15672   */\n      iszero\n      tag_317\n      jumpi\n        /* \"#utility.yul\":15557:15566   */\n      dup5\n        /* \"#utility.yul\":15552:15555   */\n      dup10\n        /* \"#utility.yul\":15548:15567   */\n      add\n        /* \"#utility.yul\":15542:15568   */\n      mload\n        /* \"#utility.yul\":15534:15540   */\n      dup3\n        /* \"#utility.yul\":15527:15569   */\n      sstore\n        /* \"#utility.yul\":15608:15609   */\n      0x01\n        /* \"#utility.yul\":15600:15606   */\n      dup3\n        /* \"#utility.yul\":15596:15610   */\n      add\n        /* \"#utility.yul\":15586:15610   */\n      swap2\n      pop\n        /* \"#utility.yul\":15655:15657   */\n      0x20\n        /* \"#utility.yul\":15644:15653   */\n      dup6\n        /* \"#utility.yul\":15640:15658   */\n      add\n        /* \"#utility.yul\":15627:15658   */\n      swap5\n      pop\n        /* \"#utility.yul\":15501:15505   */\n      0x20\n        /* \"#utility.yul\":15498:15499   */\n      dup2\n        /* \"#utility.yul\":15494:15506   */\n      add\n        /* \"#utility.yul\":15489:15506   */\n      swap1\n      pop\n        /* \"#utility.yul\":15464:15672   */\n      jump(tag_315)\n    tag_317:\n        /* \"#utility.yul\":15700:15706   */\n      dup7\n        /* \"#utility.yul\":15691:15698   */\n      dup4\n        /* \"#utility.yul\":15688:15707   */\n      lt\n        /* \"#utility.yul\":15685:15864   */\n      iszero\n      tag_318\n      jumpi\n        /* \"#utility.yul\":15758:15767   */\n      dup5\n        /* \"#utility.yul\":15753:15756   */\n      dup10\n        /* \"#utility.yul\":15749:15768   */\n      add\n        /* \"#utility.yul\":15743:15769   */\n      mload\n        /* \"#utility.yul\":15801:15849   */\n      tag_319\n        /* \"#utility.yul\":15843:15847   */\n      0x1f\n        /* \"#utility.yul\":15835:15841   */\n      dup10\n        /* \"#utility.yul\":15831:15848   */\n      and\n        /* \"#utility.yul\":15820:15829   */\n      dup3\n        /* \"#utility.yul\":15801:15849   */\n      tag_146\n      jump\t// in\n    tag_319:\n        /* \"#utility.yul\":15793:15799   */\n      dup4\n        /* \"#utility.yul\":15786:15850   */\n      sstore\n        /* \"#utility.yul\":15708:15864   */\n      pop\n        /* \"#utility.yul\":15685:15864   */\n    tag_318:\n        /* \"#utility.yul\":15910:15911   */\n      0x01\n        /* \"#utility.yul\":15906:15907   */\n      0x02\n        /* \"#utility.yul\":15898:15904   */\n      dup9\n        /* \"#utility.yul\":15894:15908   */\n      mul\n        /* \"#utility.yul\":15890:15912   */\n      add\n        /* \"#utility.yul\":15884:15888   */\n      dup9\n        /* \"#utility.yul\":15877:15913   */\n      sstore\n        /* \"#utility.yul\":15312:15923   */\n      pop\n      pop\n      pop\n        /* \"#utility.yul\":15275:16162   */\n    tag_310:\n      pop\n        /* \"#utility.yul\":14865:16168   */\n      pop\n      pop\n      pop\n        /* \"#utility.yul\":14773:16168   */\n      pop\n      pop\n      jump\t// out\n        /* \"#utility.yul\":16174:16798   */\n    tag_84:\n        /* \"#utility.yul\":16363:16367   */\n      0x00\n        /* \"#utility.yul\":16401:16403   */\n      0x60\n        /* \"#utility.yul\":16390:16399   */\n      dup3\n        /* \"#utility.yul\":16386:16404   */\n      add\n        /* \"#utility.yul\":16378:16404   */\n      swap1\n      pop\n        /* \"#utility.yul\":16414:16485   */\n      tag_321\n        /* \"#utility.yul\":16482:16483   */\n      0x00\n        /* \"#utility.yul\":16471:16480   */\n      dup4\n        /* \"#utility.yul\":16467:16484   */\n      add\n        /* \"#utility.yul\":16458:16464   */\n      dup7\n        /* \"#utility.yul\":16414:16485   */\n      tag_105\n      jump\t// in\n    tag_321:\n        /* \"#utility.yul\":16532:16541   */\n      dup2\n        /* \"#utility.yul\":16526:16530   */\n      dup2\n        /* \"#utility.yul\":16522:16542   */\n      sub\n        /* \"#utility.yul\":16517:16519   */\n      0x20\n        /* \"#utility.yul\":16506:16515   */\n      dup4\n        /* \"#utility.yul\":16502:16520   */\n      add\n        /* \"#utility.yul\":16495:16543   */\n      mstore\n        /* \"#utility.yul\":16560:16638   */\n      tag_322\n        /* \"#utility.yul\":16633:16637   */\n      dup2\n        /* \"#utility.yul\":16624:16630   */\n      dup6\n        /* \"#utility.yul\":16560:16638   */\n      tag_110\n      jump\t// in\n    tag_322:\n        /* \"#utility.yul\":16552:16638   */\n      swap1\n      pop\n        /* \"#utility.yul\":16685:16694   */\n      dup2\n        /* \"#utility.yul\":16679:16683   */\n      dup2\n        /* \"#utility.yul\":16675:16695   */\n      sub\n        /* \"#utility.yul\":16670:16672   */\n      0x40\n        /* \"#utility.yul\":16659:16668   */\n      dup4\n        /* \"#utility.yul\":16655:16673   */\n      add\n        /* \"#utility.yul\":16648:16696   */\n      mstore\n        /* \"#utility.yul\":16713:16791   */\n      tag_323\n        /* \"#utility.yul\":16786:16790   */\n      dup2\n        /* \"#utility.yul\":16777:16783   */\n      dup5\n        /* \"#utility.yul\":16713:16791   */\n      tag_110\n      jump\t// in\n    tag_323:\n        /* \"#utility.yul\":16705:16791   */\n      swap1\n      pop\n        /* \"#utility.yul\":16174:16798   */\n      swap5\n      swap4\n      pop\n      pop\n      pop\n      pop\n      jump\t// out\n        /* \"#utility.yul\":16804:17033   */\n    tag_148:\n        /* \"#utility.yul\":16944:16978   */\n      0x596f75206861766520736f6d6520657468657220746f20706572666f726d2074\n        /* \"#utility.yul\":16940:16941   */\n      0x00\n        /* \"#utility.yul\":16932:16938   */\n      dup3\n        /* \"#utility.yul\":16928:16942   */\n      add\n        /* \"#utility.yul\":16921:16979   */\n      mstore\n        /* \"#utility.yul\":17013:17025   */\n      0x68697320616374696f6e00000000000000000000000000000000000000000000\n        /* \"#utility.yul\":17008:17010   */\n      0x20\n        /* \"#utility.yul\":17000:17006   */\n      dup3\n        /* \"#utility.yul\":16996:17011   */\n      add\n        /* \"#utility.yul\":16989:17026   */\n      mstore\n        /* \"#utility.yul\":16804:17033   */\n      pop\n      jump\t// out\n        /* \"#utility.yul\":17039:17405   */\n    tag_149:\n        /* \"#utility.yul\":17181:17184   */\n      0x00\n        /* \"#utility.yul\":17202:17269   */\n      tag_326\n        /* \"#utility.yul\":17266:17268   */\n      0x2a\n        /* \"#utility.yul\":17261:17264   */\n      dup4\n        /* \"#utility.yul\":17202:17269   */\n      tag_107\n      jump\t// in\n    tag_326:\n        /* \"#utility.yul\":17195:17269   */\n      swap2\n      pop\n        /* \"#utility.yul\":17278:17371   */\n      tag_327\n        /* \"#utility.yul\":17367:17370   */\n      dup3\n        /* \"#utility.yul\":17278:17371   */\n      tag_148\n      jump\t// in\n    tag_327:\n        /* \"#utility.yul\":17396:17398   */\n      0x40\n        /* \"#utility.yul\":17391:17394   */\n      dup3\n        /* \"#utility.yul\":17387:17399   */\n      add\n        /* \"#utility.yul\":17380:17399   */\n      swap1\n      pop\n        /* \"#utility.yul\":17039:17405   */\n      swap2\n      swap1\n      pop\n      jump\t// out\n        /* \"#utility.yul\":17411:17830   */\n    tag_98:\n        /* \"#utility.yul\":17577:17581   */\n      0x00\n        /* \"#utility.yul\":17615:17617   */\n      0x20\n        /* \"#utility.yul\":17604:17613   */\n      dup3\n        /* \"#utility.yul\":17600:17618   */\n      add\n        /* \"#utility.yul\":17592:17618   */\n      swap1\n      pop\n        /* \"#utility.yul\":17664:17673   */\n      dup2\n        /* \"#utility.yul\":17658:17662   */\n      dup2\n        /* \"#utility.yul\":17654:17674   */\n      sub\n        /* \"#utility.yul\":17650:17651   */\n      0x00\n        /* \"#utility.yul\":17639:17648   */\n      dup4\n        /* \"#utility.yul\":17635:17652   */\n      add\n        /* \"#utility.yul\":17628:17675   */\n      mstore\n        /* \"#utility.yul\":17692:17823   */\n      tag_329\n        /* \"#utility.yul\":17818:17822   */\n      dup2\n        /* \"#utility.yul\":17692:17823   */\n      tag_149\n      jump\t// in\n    tag_329:\n        /* \"#utility.yul\":17684:17823   */\n      swap1\n      pop\n        /* \"#utility.yul\":17411:17830   */\n      swap2\n      swap1\n      pop\n      jump\t// out\n\n    auxdata: 0xa26469706673582212205f22a73f8456663de9a3b6050eb9d1152d726a7979438bc8b6f697d7925ceedc64736f6c63430008190033\n}\n",
				"bytecode": {
					"linkReferences": {},
					"object": "6080604052600180553480156012575f80fd5b50335f806101000a81548173ffffffffffffffffffffffffffffffffffffffff021916908373ffffffffffffffffffffffffffffffffffffffff1602179055506111248061005f5f395ff3fe60806040526004361061007a575f3560e01c8063a411ef201161004d578063a411ef201461014c578063be21d33714610174578063e792dd8a146101b0578063f14faf6f146101ef5761007a565b80634abfa1631461007e57806379bb57b4146100bc5780638a5f067c146100f85780638da5cb5b14610122575b5f80fd5b348015610089575f80fd5b506100a4600480360381019061009f91906107d5565b61020b565b6040516100b39392919061087f565b60405180910390f35b3480156100c7575f80fd5b506100e260048036038101906100dd91906107d5565b6102b7565b6040516100ef9190610979565b60405180910390f35b348015610103575f80fd5b5061010c610415565b6040516101199190610999565b60405180910390f35b34801561012d575f80fd5b5061013661041b565b60405161014391906109f1565b60405180910390f35b348015610157575f80fd5b50610172600480360381019061016d9190610b36565b61043e565b005b34801561017f575f80fd5b5061019a60048036038101906101959190610bd6565b6105d9565b6040516101a79190610999565b60405180910390f35b3480156101bb575f80fd5b506101d660048036038101906101d191906107d5565b6105ee565b6040516101e69493929190610c01565b60405180910390f35b610209600480360381019061020491906107d5565b610726565b005b6004602052805f5260405f205f91509050805f01549080600101549080600201805461023690610c7f565b80601f016020809104026020016040519081016040528092919081815260200182805461026290610c7f565b80156102ad5780601f10610284576101008083540402835291602001916102ad565b820191905f5260205f20905b81548152906001019060200180831161029057829003601f168201915b5050505050905083565b6102bf61076b565b60025f8381526020019081526020015f206040518060800160405290815f82015481526020016001820180546102f490610c7f565b80601f016020809104026020016040519081016040528092919081815260200182805461032090610c7f565b801561036b5780601f106103425761010080835404028352916020019161036b565b820191905f5260205f20905b81548152906001019060200180831161034e57829003601f168201915b5050505050815260200160028201805461038490610c7f565b80601f01602080910402602001604051908101604052809291908181526020018280546103b090610c7f565b80156103fb5780601f106103d2576101008083540402835291602001916103fb565b820191905f5260205f20905b8154815290600101906020018083116103de57829003601f168201915b505050505081526020016003820154815250509050919050565b60015481565b5f8054906101000a900473ffffffffffffffffffffffffffffffffffffffff1681565b5f8054906101000a900473ffffffffffffffffffffffffffffffffffffffff1673ffffffffffffffffffffffffffffffffffffffff163373ffffffffffffffffffffffffffffffffffffffff16146104cb576040517f08c379a00000000000000000000000000000000000000000000000000000000081526004016104c290610d1f565b60405180910390fd5b5f60015f8154809291906104de90610d6a565b91905055905060405180608001604052808281526020018481526020018381526020015f81525060025f8381526020019081526020015f205f820151815f015560208201518160010190816105339190610f4e565b5060408201518160020190816105499190610f4e565b50606082015181600301559050508060035f3373ffffffffffffffffffffffffffffffffffffffff1673ffffffffffffffffffffffffffffffffffffffff1681526020019081526020015f20819055507ffaad6f0f3cbe87e0dc46ccccfbb414f5c7bb7628d5958d64a709fc8b131602c88184846040516105cc9392919061101d565b60405180910390a1505050565b6003602052805f5260405f205f915090505481565b6002602052805f5260405f205f91509050805f01549080600101805461061390610c7f565b80601f016020809104026020016040519081016040528092919081815260200182805461063f90610c7f565b801561068a5780601f106106615761010080835404028352916020019161068a565b820191905f5260205f20905b81548152906001019060200180831161066d57829003601f168201915b50505050509080600201805461069f90610c7f565b80601f01602080910402602001604051908101604052809291908181526020018280546106cb90610c7f565b80156107165780601f106106ed57610100808354040283529160200191610716565b820191905f5260205f20905b8154815290600101906020018083116106f957829003601f168201915b5050505050908060030154905084565b5f3411610768576040517f08c379a000000000000000000000000000000000000000000000000000000000815260040161075f906110d0565b60405180910390fd5b50565b60405180608001604052805f815260200160608152602001606081526020015f81525090565b5f604051905090565b5f80fd5b5f80fd5b5f819050919050565b6107b4816107a2565b81146107be575f80fd5b50565b5f813590506107cf816107ab565b92915050565b5f602082840312156107ea576107e961079a565b5b5f6107f7848285016107c1565b91505092915050565b610809816107a2565b82525050565b5f81519050919050565b5f82825260208201905092915050565b8281835e5f83830152505050565b5f601f19601f8301169050919050565b5f6108518261080f565b61085b8185610819565b935061086b818560208601610829565b61087481610837565b840191505092915050565b5f6060820190506108925f830186610800565b61089f6020830185610800565b81810360408301526108b18184610847565b9050949350505050565b6108c4816107a2565b82525050565b5f82825260208201905092915050565b5f6108e48261080f565b6108ee81856108ca565b93506108fe818560208601610829565b61090781610837565b840191505092915050565b5f608083015f8301516109275f8601826108bb565b506020830151848203602086015261093f82826108da565b9150506040830151848203604086015261095982826108da565b915050606083015161096e60608601826108bb565b508091505092915050565b5f6020820190508181035f8301526109918184610912565b905092915050565b5f6020820190506109ac5f830184610800565b92915050565b5f73ffffffffffffffffffffffffffffffffffffffff82169050919050565b5f6109db826109b2565b9050919050565b6109eb816109d1565b82525050565b5f602082019050610a045f8301846109e2565b92915050565b5f80fd5b5f80fd5b7f4e487b71000000000000000000000000000000000000000000000000000000005f52604160045260245ffd5b610a4882610837565b810181811067ffffffffffffffff82111715610a6757610a66610a12565b5b80604052505050565b5f610a79610791565b9050610a858282610a3f565b919050565b5f67ffffffffffffffff821115610aa457610aa3610a12565b5b610aad82610837565b9050602081019050919050565b828183375f83830152505050565b5f610ada610ad584610a8a565b610a70565b905082815260208101848484011115610af657610af5610a0e565b5b610b01848285610aba565b509392505050565b5f82601f830112610b1d57610b1c610a0a565b5b8135610b2d848260208601610ac8565b91505092915050565b5f8060408385031215610b4c57610b4b61079a565b5b5f83013567ffffffffffffffff811115610b6957610b6861079e565b5b610b7585828601610b09565b925050602083013567ffffffffffffffff811115610b9657610b9561079e565b5b610ba285828601610b09565b9150509250929050565b610bb5816109d1565b8114610bbf575f80fd5b50565b5f81359050610bd081610bac565b92915050565b5f60208284031215610beb57610bea61079a565b5b5f610bf884828501610bc2565b91505092915050565b5f608082019050610c145f830187610800565b8181036020830152610c268186610847565b90508181036040830152610c3a8185610847565b9050610c496060830184610800565b95945050505050565b7f4e487b71000000000000000000000000000000000000000000000000000000005f52602260045260245ffd5b5f6002820490506001821680610c9657607f821691505b602082108103610ca957610ca8610c52565b5b50919050565b7f4f6e6c79206f776e65722063616e20706572666f726d207468697320616374695f8201527f6f6e2e0000000000000000000000000000000000000000000000000000000000602082015250565b5f610d09602383610819565b9150610d1482610caf565b604082019050919050565b5f6020820190508181035f830152610d3681610cfd565b9050919050565b7f4e487b71000000000000000000000000000000000000000000000000000000005f52601160045260245ffd5b5f610d74826107a2565b91507fffffffffffffffffffffffffffffffffffffffffffffffffffffffffffffffff8203610da657610da5610d3d565b5b600182019050919050565b5f819050815f5260205f209050919050565b5f6020601f8301049050919050565b5f82821b905092915050565b5f60088302610e0d7fffffffffffffffffffffffffffffffffffffffffffffffffffffffffffffffff82610dd2565b610e178683610dd2565b95508019841693508086168417925050509392505050565b5f819050919050565b5f610e52610e4d610e48846107a2565b610e2f565b6107a2565b9050919050565b5f819050919050565b610e6b83610e38565b610e7f610e7782610e59565b848454610dde565b825550505050565b5f90565b610e93610e87565b610e9e818484610e62565b505050565b5b81811015610ec157610eb65f82610e8b565b600181019050610ea4565b5050565b601f821115610f0657610ed781610db1565b610ee084610dc3565b81016020851015610eef578190505b610f03610efb85610dc3565b830182610ea3565b50505b505050565b5f82821c905092915050565b5f610f265f1984600802610f0b565b1980831691505092915050565b5f610f3e8383610f17565b9150826002028217905092915050565b610f578261080f565b67ffffffffffffffff811115610f7057610f6f610a12565b5b610f7a8254610c7f565b610f85828285610ec5565b5f60209050601f831160018114610fb6575f8415610fa4578287015190505b610fae8582610f33565b865550611015565b601f198416610fc486610db1565b5f5b82811015610feb57848901518255600182019150602085019450602081019050610fc6565b868310156110085784890151611004601f891682610f17565b8355505b6001600288020188555050505b505050505050565b5f6060820190506110305f830186610800565b81810360208301526110428185610847565b905081810360408301526110568184610847565b9050949350505050565b7f596f75206861766520736f6d6520657468657220746f20706572666f726d20745f8201527f68697320616374696f6e00000000000000000000000000000000000000000000602082015250565b5f6110ba602a83610819565b91506110c582611060565b604082019050919050565b5f6020820190508181035f8301526110e7816110ae565b905091905056fea26469706673582212205f22a73f8456663de9a3b6050eb9d1152d726a7979438bc8b6f697d7925ceedc64736f6c63430008190033",
					"opcodes": "PUSH1 0x80 PUSH1 0x40 MSTORE PUSH1 0x1 DUP1 SSTORE CALLVALUE DUP1 ISZERO PUSH1 0x12 JUMPI PUSH0 DUP1 REVERT JUMPDEST POP CALLER PUSH0 DUP1 PUSH2 0x100 EXP DUP2 SLOAD DUP2 PUSH20 0xFFFFFFFFFFFFFFFFFFFFFFFFFFFFFFFFFFFFFFFF MUL NOT AND SWAP1 DUP4 PUSH20 0xFFFFFFFFFFFFFFFFFFFFFFFFFFFFFFFFFFFFFFFF AND MUL OR SWAP1 SSTORE POP PUSH2 0x1124 DUP1 PUSH2 0x5F PUSH0 CODECOPY PUSH0 RETURN INVALID PUSH1 0x80 PUSH1 0x40 MSTORE PUSH1 0x4 CALLDATASIZE LT PUSH2 0x7A JUMPI PUSH0 CALLDATALOAD PUSH1 0xE0 SHR DUP1 PUSH4 0xA411EF20 GT PUSH2 0x4D JUMPI DUP1 PUSH4 0xA411EF20 EQ PUSH2 0x14C JUMPI DUP1 PUSH4 0xBE21D337 EQ PUSH2 0x174 JUMPI DUP1 PUSH4 0xE792DD8A EQ PUSH2 0x1B0 JUMPI DUP1 PUSH4 0xF14FAF6F EQ PUSH2 0x1EF JUMPI PUSH2 0x7A JUMP JUMPDEST DUP1 PUSH4 0x4ABFA163 EQ PUSH2 0x7E JUMPI DUP1 PUSH4 0x79BB57B4 EQ PUSH2 0xBC JUMPI DUP1 PUSH4 0x8A5F067C EQ PUSH2 0xF8 JUMPI DUP1 PUSH4 0x8DA5CB5B EQ PUSH2 0x122 JUMPI JUMPDEST PUSH0 DUP1 REVERT JUMPDEST CALLVALUE DUP1 ISZERO PUSH2 0x89 JUMPI PUSH0 DUP1 REVERT JUMPDEST POP PUSH2 0xA4 PUSH1 0x4 DUP1 CALLDATASIZE SUB DUP2 ADD SWAP1 PUSH2 0x9F SWAP2 SWAP1 PUSH2 0x7D5 JUMP JUMPDEST PUSH2 0x20B JUMP JUMPDEST PUSH1 0x40 MLOAD PUSH2 0xB3 SWAP4 SWAP3 SWAP2 SWAP1 PUSH2 0x87F JUMP JUMPDEST PUSH1 0x40 MLOAD DUP1 SWAP2 SUB SWAP1 RETURN JUMPDEST CALLVALUE DUP1 ISZERO PUSH2 0xC7 JUMPI PUSH0 DUP1 REVERT JUMPDEST POP PUSH2 0xE2 PUSH1 0x4 DUP1 CALLDATASIZE SUB DUP2 ADD SWAP1 PUSH2 0xDD SWAP2 SWAP1 PUSH2 0x7D5 JUMP JUMPDEST PUSH2 0x2B7 JUMP JUMPDEST PUSH1 0x40 MLOAD PUSH2 0xEF SWAP2 SWAP1 PUSH2 0x979 JUMP JUMPDEST PUSH1 0x40 MLOAD DUP1 SWAP2 SUB SWAP1 RETURN JUMPDEST CALLVALUE DUP1 ISZERO PUSH2 0x103 JUMPI PUSH0 DUP1 REVERT JUMPDEST POP PUSH2 0x10C PUSH2 0x415 JUMP JUMPDEST PUSH1 0x40 MLOAD PUSH2 0x119 SWAP2 SWAP1 PUSH2 0x999 JUMP JUMPDEST PUSH1 0x40 MLOAD DUP1 SWAP2 SUB SWAP1 RETURN JUMPDEST CALLVALUE DUP1 ISZERO PUSH2 0x12D JUMPI PUSH0 DUP1 REVERT JUMPDEST POP PUSH2 0x136 PUSH2 0x41B JUMP JUMPDEST PUSH1 0x40 MLOAD PUSH2 0x143 SWAP2 SWAP1 PUSH2 0x9F1 JUMP JUMPDEST PUSH1 0x40 MLOAD DUP1 SWAP2 SUB SWAP1 RETURN JUMPDEST CALLVALUE DUP1 ISZERO PUSH2 0x157 JUMPI PUSH0 DUP1 REVERT JUMPDEST POP PUSH2 0x172 PUSH1 0x4 DUP1 CALLDATASIZE SUB DUP2 ADD SWAP1 PUSH2 0x16D SWAP2 SWAP1 PUSH2 0xB36 JUMP JUMPDEST PUSH2 0x43E JUMP JUMPDEST STOP JUMPDEST CALLVALUE DUP1 ISZERO PUSH2 0x17F JUMPI PUSH0 DUP1 REVERT JUMPDEST POP PUSH2 0x19A PUSH1 0x4 DUP1 CALLDATASIZE SUB DUP2 ADD SWAP1 PUSH2 0x195 SWAP2 SWAP1 PUSH2 0xBD6 JUMP JUMPDEST PUSH2 0x5D9 JUMP JUMPDEST PUSH1 0x40 MLOAD PUSH2 0x1A7 SWAP2 SWAP1 PUSH2 0x999 JUMP JUMPDEST PUSH1 0x40 MLOAD DUP1 SWAP2 SUB SWAP1 RETURN JUMPDEST CALLVALUE DUP1 ISZERO PUSH2 0x1BB JUMPI PUSH0 DUP1 REVERT JUMPDEST POP PUSH2 0x1D6 PUSH1 0x4 DUP1 CALLDATASIZE SUB DUP2 ADD SWAP1 PUSH2 0x1D1 SWAP2 SWAP1 PUSH2 0x7D5 JUMP JUMPDEST PUSH2 0x5EE JUMP JUMPDEST PUSH1 0x40 MLOAD PUSH2 0x1E6 SWAP5 SWAP4 SWAP3 SWAP2 SWAP1 PUSH2 0xC01 JUMP JUMPDEST PUSH1 0x40 MLOAD DUP1 SWAP2 SUB SWAP1 RETURN JUMPDEST PUSH2 0x209 PUSH1 0x4 DUP1 CALLDATASIZE SUB DUP2 ADD SWAP1 PUSH2 0x204 SWAP2 SWAP1 PUSH2 0x7D5 JUMP JUMPDEST PUSH2 0x726 JUMP JUMPDEST STOP JUMPDEST PUSH1 0x4 PUSH1 0x20 MSTORE DUP1 PUSH0 MSTORE PUSH1 0x40 PUSH0 KECCAK256 PUSH0 SWAP2 POP SWAP1 POP DUP1 PUSH0 ADD SLOAD SWAP1 DUP1 PUSH1 0x1 ADD SLOAD SWAP1 DUP1 PUSH1 0x2 ADD DUP1 SLOAD PUSH2 0x236 SWAP1 PUSH2 0xC7F JUMP JUMPDEST DUP1 PUSH1 0x1F ADD PUSH1 0x20 DUP1 SWAP2 DIV MUL PUSH1 0x20 ADD PUSH1 0x40 MLOAD SWAP1 DUP2 ADD PUSH1 0x40 MSTORE DUP1 SWAP3 SWAP2 SWAP1 DUP2 DUP2 MSTORE PUSH1 0x20 ADD DUP3 DUP1 SLOAD PUSH2 0x262 SWAP1 PUSH2 0xC7F JUMP JUMPDEST DUP1 ISZERO PUSH2 0x2AD JUMPI DUP1 PUSH1 0x1F LT PUSH2 0x284 JUMPI PUSH2 0x100 DUP1 DUP4 SLOAD DIV MUL DUP4 MSTORE SWAP2 PUSH1 0x20 ADD SWAP2 PUSH2 0x2AD JUMP JUMPDEST DUP3 ADD SWAP2 SWAP1 PUSH0 MSTORE PUSH1 0x20 PUSH0 KECCAK256 SWAP1 JUMPDEST DUP2 SLOAD DUP2 MSTORE SWAP1 PUSH1 0x1 ADD SWAP1 PUSH1 0x20 ADD DUP1 DUP4 GT PUSH2 0x290 JUMPI DUP3 SWAP1 SUB PUSH1 0x1F AND DUP3 ADD SWAP2 JUMPDEST POP POP POP POP POP SWAP1 POP DUP4 JUMP JUMPDEST PUSH2 0x2BF PUSH2 0x76B JUMP JUMPDEST PUSH1 0x2 PUSH0 DUP4 DUP2 MSTORE PUSH1 0x20 ADD SWAP1 DUP2 MSTORE PUSH1 0x20 ADD PUSH0 KECCAK256 PUSH1 0x40 MLOAD DUP1 PUSH1 0x80 ADD PUSH1 0x40 MSTORE SWAP1 DUP2 PUSH0 DUP3 ADD SLOAD DUP2 MSTORE PUSH1 0x20 ADD PUSH1 0x1 DUP3 ADD DUP1 SLOAD PUSH2 0x2F4 SWAP1 PUSH2 0xC7F JUMP JUMPDEST DUP1 PUSH1 0x1F ADD PUSH1 0x20 DUP1 SWAP2 DIV MUL PUSH1 0x20 ADD PUSH1 0x40 MLOAD SWAP1 DUP2 ADD PUSH1 0x40 MSTORE DUP1 SWAP3 SWAP2 SWAP1 DUP2 DUP2 MSTORE PUSH1 0x20 ADD DUP3 DUP1 SLOAD PUSH2 0x320 SWAP1 PUSH2 0xC7F JUMP JUMPDEST DUP1 ISZERO PUSH2 0x36B JUMPI DUP1 PUSH1 0x1F LT PUSH2 0x342 JUMPI PUSH2 0x100 DUP1 DUP4 SLOAD DIV MUL DUP4 MSTORE SWAP2 PUSH1 0x20 ADD SWAP2 PUSH2 0x36B JUMP JUMPDEST DUP3 ADD SWAP2 SWAP1 PUSH0 MSTORE PUSH1 0x20 PUSH0 KECCAK256 SWAP1 JUMPDEST DUP2 SLOAD DUP2 MSTORE SWAP1 PUSH1 0x1 ADD SWAP1 PUSH1 0x20 ADD DUP1 DUP4 GT PUSH2 0x34E JUMPI DUP3 SWAP1 SUB PUSH1 0x1F AND DUP3 ADD SWAP2 JUMPDEST POP POP POP POP POP DUP2 MSTORE PUSH1 0x20 ADD PUSH1 0x2 DUP3 ADD DUP1 SLOAD PUSH2 0x384 SWAP1 PUSH2 0xC7F JUMP JUMPDEST DUP1 PUSH1 0x1F ADD PUSH1 0x20 DUP1 SWAP2 DIV MUL PUSH1 0x20 ADD PUSH1 0x40 MLOAD SWAP1 DUP2 ADD PUSH1 0x40 MSTORE DUP1 SWAP3 SWAP2 SWAP1 DUP2 DUP2 MSTORE PUSH1 0x20 ADD DUP3 DUP1 SLOAD PUSH2 0x3B0 SWAP1 PUSH2 0xC7F JUMP JUMPDEST DUP1 ISZERO PUSH2 0x3FB JUMPI DUP1 PUSH1 0x1F LT PUSH2 0x3D2 JUMPI PUSH2 0x100 DUP1 DUP4 SLOAD DIV MUL DUP4 MSTORE SWAP2 PUSH1 0x20 ADD SWAP2 PUSH2 0x3FB JUMP JUMPDEST DUP3 ADD SWAP2 SWAP1 PUSH0 MSTORE PUSH1 0x20 PUSH0 KECCAK256 SWAP1 JUMPDEST DUP2 SLOAD DUP2 MSTORE SWAP1 PUSH1 0x1 ADD SWAP1 PUSH1 0x20 ADD DUP1 DUP4 GT PUSH2 0x3DE JUMPI DUP3 SWAP1 SUB PUSH1 0x1F AND DUP3 ADD SWAP2 JUMPDEST POP POP POP POP POP DUP2 MSTORE PUSH1 0x20 ADD PUSH1 0x3 DUP3 ADD SLOAD DUP2 MSTORE POP POP SWAP1 POP SWAP2 SWAP1 POP JUMP JUMPDEST PUSH1 0x1 SLOAD DUP2 JUMP JUMPDEST PUSH0 DUP1 SLOAD SWAP1 PUSH2 0x100 EXP SWAP1 DIV PUSH20 0xFFFFFFFFFFFFFFFFFFFFFFFFFFFFFFFFFFFFFFFF AND DUP2 JUMP JUMPDEST PUSH0 DUP1 SLOAD SWAP1 PUSH2 0x100 EXP SWAP1 DIV PUSH20 0xFFFFFFFFFFFFFFFFFFFFFFFFFFFFFFFFFFFFFFFF AND PUSH20 0xFFFFFFFFFFFFFFFFFFFFFFFFFFFFFFFFFFFFFFFF AND CALLER PUSH20 0xFFFFFFFFFFFFFFFFFFFFFFFFFFFFFFFFFFFFFFFF AND EQ PUSH2 0x4CB JUMPI PUSH1 0x40 MLOAD PUSH32 0x8C379A000000000000000000000000000000000000000000000000000000000 DUP2 MSTORE PUSH1 0x4 ADD PUSH2 0x4C2 SWAP1 PUSH2 0xD1F JUMP JUMPDEST PUSH1 0x40 MLOAD DUP1 SWAP2 SUB SWAP1 REVERT JUMPDEST PUSH0 PUSH1 0x1 PUSH0 DUP2 SLOAD DUP1 SWAP3 SWAP2 SWAP1 PUSH2 0x4DE SWAP1 PUSH2 0xD6A JUMP JUMPDEST SWAP2 SWAP1 POP SSTORE SWAP1 POP PUSH1 0x40 MLOAD DUP1 PUSH1 0x80 ADD PUSH1 0x40 MSTORE DUP1 DUP3 DUP2 MSTORE PUSH1 0x20 ADD DUP5 DUP2 MSTORE PUSH1 0x20 ADD DUP4 DUP2 MSTORE PUSH1 0x20 ADD PUSH0 DUP2 MSTORE POP PUSH1 0x2 PUSH0 DUP4 DUP2 MSTORE PUSH1 0x20 ADD SWAP1 DUP2 MSTORE PUSH1 0x20 ADD PUSH0 KECCAK256 PUSH0 DUP3 ADD MLOAD DUP2 PUSH0 ADD SSTORE PUSH1 0x20 DUP3 ADD MLOAD DUP2 PUSH1 0x1 ADD SWAP1 DUP2 PUSH2 0x533 SWAP2 SWAP1 PUSH2 0xF4E JUMP JUMPDEST POP PUSH1 0x40 DUP3 ADD MLOAD DUP2 PUSH1 0x2 ADD SWAP1 DUP2 PUSH2 0x549 SWAP2 SWAP1 PUSH2 0xF4E JUMP JUMPDEST POP PUSH1 0x60 DUP3 ADD MLOAD DUP2 PUSH1 0x3 ADD SSTORE SWAP1 POP POP DUP1 PUSH1 0x3 PUSH0 CALLER PUSH20 0xFFFFFFFFFFFFFFFFFFFFFFFFFFFFFFFFFFFFFFFF AND PUSH20 0xFFFFFFFFFFFFFFFFFFFFFFFFFFFFFFFFFFFFFFFF AND DUP2 MSTORE PUSH1 0x20 ADD SWAP1 DUP2 MSTORE PUSH1 0x20 ADD PUSH0 KECCAK256 DUP2 SWAP1 SSTORE POP PUSH32 0xFAAD6F0F3CBE87E0DC46CCCCFBB414F5C7BB7628D5958D64A709FC8B131602C8 DUP2 DUP5 DUP5 PUSH1 0x40 MLOAD PUSH2 0x5CC SWAP4 SWAP3 SWAP2 SWAP1 PUSH2 0x101D JUMP JUMPDEST PUSH1 0x40 MLOAD DUP1 SWAP2 SUB SWAP1 LOG1 POP POP POP JUMP JUMPDEST PUSH1 0x3 PUSH1 0x20 MSTORE DUP1 PUSH0 MSTORE PUSH1 0x40 PUSH0 KECCAK256 PUSH0 SWAP2 POP SWAP1 POP SLOAD DUP2 JUMP JUMPDEST PUSH1 0x2 PUSH1 0x20 MSTORE DUP1 PUSH0 MSTORE PUSH1 0x40 PUSH0 KECCAK256 PUSH0 SWAP2 POP SWAP1 POP DUP1 PUSH0 ADD SLOAD SWAP1 DUP1 PUSH1 0x1 ADD DUP1 SLOAD PUSH2 0x613 SWAP1 PUSH2 0xC7F JUMP JUMPDEST DUP1 PUSH1 0x1F ADD PUSH1 0x20 DUP1 SWAP2 DIV MUL PUSH1 0x20 ADD PUSH1 0x40 MLOAD SWAP1 DUP2 ADD PUSH1 0x40 MSTORE DUP1 SWAP3 SWAP2 SWAP1 DUP2 DUP2 MSTORE PUSH1 0x20 ADD DUP3 DUP1 SLOAD PUSH2 0x63F SWAP1 PUSH2 0xC7F JUMP JUMPDEST DUP1 ISZERO PUSH2 0x68A JUMPI DUP1 PUSH1 0x1F LT PUSH2 0x661 JUMPI PUSH2 0x100 DUP1 DUP4 SLOAD DIV MUL DUP4 MSTORE SWAP2 PUSH1 0x20 ADD SWAP2 PUSH2 0x68A JUMP JUMPDEST DUP3 ADD SWAP2 SWAP1 PUSH0 MSTORE PUSH1 0x20 PUSH0 KECCAK256 SWAP1 JUMPDEST DUP2 SLOAD DUP2 MSTORE SWAP1 PUSH1 0x1 ADD SWAP1 PUSH1 0x20 ADD DUP1 DUP4 GT PUSH2 0x66D JUMPI DUP3 SWAP1 SUB PUSH1 0x1F AND DUP3 ADD SWAP2 JUMPDEST POP POP POP POP POP SWAP1 DUP1 PUSH1 0x2 ADD DUP1 SLOAD PUSH2 0x69F SWAP1 PUSH2 0xC7F JUMP JUMPDEST DUP1 PUSH1 0x1F ADD PUSH1 0x20 DUP1 SWAP2 DIV MUL PUSH1 0x20 ADD PUSH1 0x40 MLOAD SWAP1 DUP2 ADD PUSH1 0x40 MSTORE DUP1 SWAP3 SWAP2 SWAP1 DUP2 DUP2 MSTORE PUSH1 0x20 ADD DUP3 DUP1 SLOAD PUSH2 0x6CB SWAP1 PUSH2 0xC7F JUMP JUMPDEST DUP1 ISZERO PUSH2 0x716 JUMPI DUP1 PUSH1 0x1F LT PUSH2 0x6ED JUMPI PUSH2 0x100 DUP1 DUP4 SLOAD DIV MUL DUP4 MSTORE SWAP2 PUSH1 0x20 ADD SWAP2 PUSH2 0x716 JUMP JUMPDEST DUP3 ADD SWAP2 SWAP1 PUSH0 MSTORE PUSH1 0x20 PUSH0 KECCAK256 SWAP1 JUMPDEST DUP2 SLOAD DUP2 MSTORE SWAP1 PUSH1 0x1 ADD SWAP1 PUSH1 0x20 ADD DUP1 DUP4 GT PUSH2 0x6F9 JUMPI DUP3 SWAP1 SUB PUSH1 0x1F AND DUP3 ADD SWAP2 JUMPDEST POP POP POP POP POP SWAP1 DUP1 PUSH1 0x3 ADD SLOAD SWAP1 POP DUP5 JUMP JUMPDEST PUSH0 CALLVALUE GT PUSH2 0x768 JUMPI PUSH1 0x40 MLOAD PUSH32 0x8C379A000000000000000000000000000000000000000000000000000000000 DUP2 MSTORE PUSH1 0x4 ADD PUSH2 0x75F SWAP1 PUSH2 0x10D0 JUMP JUMPDEST PUSH1 0x40 MLOAD DUP1 SWAP2 SUB SWAP1 REVERT JUMPDEST POP JUMP JUMPDEST PUSH1 0x40 MLOAD DUP1 PUSH1 0x80 ADD PUSH1 0x40 MSTORE DUP1 PUSH0 DUP2 MSTORE PUSH1 0x20 ADD PUSH1 0x60 DUP2 MSTORE PUSH1 0x20 ADD PUSH1 0x60 DUP2 MSTORE PUSH1 0x20 ADD PUSH0 DUP2 MSTORE POP SWAP1 JUMP JUMPDEST PUSH0 PUSH1 0x40 MLOAD SWAP1 POP SWAP1 JUMP JUMPDEST PUSH0 DUP1 REVERT JUMPDEST PUSH0 DUP1 REVERT JUMPDEST PUSH0 DUP2 SWAP1 POP SWAP2 SWAP1 POP JUMP JUMPDEST PUSH2 0x7B4 DUP2 PUSH2 0x7A2 JUMP JUMPDEST DUP2 EQ PUSH2 0x7BE JUMPI PUSH0 DUP1 REVERT JUMPDEST POP JUMP JUMPDEST PUSH0 DUP2 CALLDATALOAD SWAP1 POP PUSH2 0x7CF DUP2 PUSH2 0x7AB JUMP JUMPDEST SWAP3 SWAP2 POP POP JUMP JUMPDEST PUSH0 PUSH1 0x20 DUP3 DUP5 SUB SLT ISZERO PUSH2 0x7EA JUMPI PUSH2 0x7E9 PUSH2 0x79A JUMP JUMPDEST JUMPDEST PUSH0 PUSH2 0x7F7 DUP5 DUP3 DUP6 ADD PUSH2 0x7C1 JUMP JUMPDEST SWAP2 POP POP SWAP3 SWAP2 POP POP JUMP JUMPDEST PUSH2 0x809 DUP2 PUSH2 0x7A2 JUMP JUMPDEST DUP3 MSTORE POP POP JUMP JUMPDEST PUSH0 DUP2 MLOAD SWAP1 POP SWAP2 SWAP1 POP JUMP JUMPDEST PUSH0 DUP3 DUP3 MSTORE PUSH1 0x20 DUP3 ADD SWAP1 POP SWAP3 SWAP2 POP POP JUMP JUMPDEST DUP3 DUP2 DUP4 MCOPY PUSH0 DUP4 DUP4 ADD MSTORE POP POP POP JUMP JUMPDEST PUSH0 PUSH1 0x1F NOT PUSH1 0x1F DUP4 ADD AND SWAP1 POP SWAP2 SWAP1 POP JUMP JUMPDEST PUSH0 PUSH2 0x851 DUP3 PUSH2 0x80F JUMP JUMPDEST PUSH2 0x85B DUP2 DUP6 PUSH2 0x819 JUMP JUMPDEST SWAP4 POP PUSH2 0x86B DUP2 DUP6 PUSH1 0x20 DUP7 ADD PUSH2 0x829 JUMP JUMPDEST PUSH2 0x874 DUP2 PUSH2 0x837 JUMP JUMPDEST DUP5 ADD SWAP2 POP POP SWAP3 SWAP2 POP POP JUMP JUMPDEST PUSH0 PUSH1 0x60 DUP3 ADD SWAP1 POP PUSH2 0x892 PUSH0 DUP4 ADD DUP7 PUSH2 0x800 JUMP JUMPDEST PUSH2 0x89F PUSH1 0x20 DUP4 ADD DUP6 PUSH2 0x800 JUMP JUMPDEST DUP2 DUP2 SUB PUSH1 0x40 DUP4 ADD MSTORE PUSH2 0x8B1 DUP2 DUP5 PUSH2 0x847 JUMP JUMPDEST SWAP1 POP SWAP5 SWAP4 POP POP POP POP JUMP JUMPDEST PUSH2 0x8C4 DUP2 PUSH2 0x7A2 JUMP JUMPDEST DUP3 MSTORE POP POP JUMP JUMPDEST PUSH0 DUP3 DUP3 MSTORE PUSH1 0x20 DUP3 ADD SWAP1 POP SWAP3 SWAP2 POP POP JUMP JUMPDEST PUSH0 PUSH2 0x8E4 DUP3 PUSH2 0x80F JUMP JUMPDEST PUSH2 0x8EE DUP2 DUP6 PUSH2 0x8CA JUMP JUMPDEST SWAP4 POP PUSH2 0x8FE DUP2 DUP6 PUSH1 0x20 DUP7 ADD PUSH2 0x829 JUMP JUMPDEST PUSH2 0x907 DUP2 PUSH2 0x837 JUMP JUMPDEST DUP5 ADD SWAP2 POP POP SWAP3 SWAP2 POP POP JUMP JUMPDEST PUSH0 PUSH1 0x80 DUP4 ADD PUSH0 DUP4 ADD MLOAD PUSH2 0x927 PUSH0 DUP7 ADD DUP3 PUSH2 0x8BB JUMP JUMPDEST POP PUSH1 0x20 DUP4 ADD MLOAD DUP5 DUP3 SUB PUSH1 0x20 DUP7 ADD MSTORE PUSH2 0x93F DUP3 DUP3 PUSH2 0x8DA JUMP JUMPDEST SWAP2 POP POP PUSH1 0x40 DUP4 ADD MLOAD DUP5 DUP3 SUB PUSH1 0x40 DUP7 ADD MSTORE PUSH2 0x959 DUP3 DUP3 PUSH2 0x8DA JUMP JUMPDEST SWAP2 POP POP PUSH1 0x60 DUP4 ADD MLOAD PUSH2 0x96E PUSH1 0x60 DUP7 ADD DUP3 PUSH2 0x8BB JUMP JUMPDEST POP DUP1 SWAP2 POP POP SWAP3 SWAP2 POP POP JUMP JUMPDEST PUSH0 PUSH1 0x20 DUP3 ADD SWAP1 POP DUP2 DUP2 SUB PUSH0 DUP4 ADD MSTORE PUSH2 0x991 DUP2 DUP5 PUSH2 0x912 JUMP JUMPDEST SWAP1 POP SWAP3 SWAP2 POP POP JUMP JUMPDEST PUSH0 PUSH1 0x20 DUP3 ADD SWAP1 POP PUSH2 0x9AC PUSH0 DUP4 ADD DUP5 PUSH2 0x800 JUMP JUMPDEST SWAP3 SWAP2 POP POP JUMP JUMPDEST PUSH0 PUSH20 0xFFFFFFFFFFFFFFFFFFFFFFFFFFFFFFFFFFFFFFFF DUP3 AND SWAP1 POP SWAP2 SWAP1 POP JUMP JUMPDEST PUSH0 PUSH2 0x9DB DUP3 PUSH2 0x9B2 JUMP JUMPDEST SWAP1 POP SWAP2 SWAP1 POP JUMP JUMPDEST PUSH2 0x9EB DUP2 PUSH2 0x9D1 JUMP JUMPDEST DUP3 MSTORE POP POP JUMP JUMPDEST PUSH0 PUSH1 0x20 DUP3 ADD SWAP1 POP PUSH2 0xA04 PUSH0 DUP4 ADD DUP5 PUSH2 0x9E2 JUMP JUMPDEST SWAP3 SWAP2 POP POP JUMP JUMPDEST PUSH0 DUP1 REVERT JUMPDEST PUSH0 DUP1 REVERT JUMPDEST PUSH32 0x4E487B7100000000000000000000000000000000000000000000000000000000 PUSH0 MSTORE PUSH1 0x41 PUSH1 0x4 MSTORE PUSH1 0x24 PUSH0 REVERT JUMPDEST PUSH2 0xA48 DUP3 PUSH2 0x837 JUMP JUMPDEST DUP2 ADD DUP2 DUP2 LT PUSH8 0xFFFFFFFFFFFFFFFF DUP3 GT OR ISZERO PUSH2 0xA67 JUMPI PUSH2 0xA66 PUSH2 0xA12 JUMP JUMPDEST JUMPDEST DUP1 PUSH1 0x40 MSTORE POP POP POP JUMP JUMPDEST PUSH0 PUSH2 0xA79 PUSH2 0x791 JUMP JUMPDEST SWAP1 POP PUSH2 0xA85 DUP3 DUP3 PUSH2 0xA3F JUMP JUMPDEST SWAP2 SWAP1 POP JUMP JUMPDEST PUSH0 PUSH8 0xFFFFFFFFFFFFFFFF DUP3 GT ISZERO PUSH2 0xAA4 JUMPI PUSH2 0xAA3 PUSH2 0xA12 JUMP JUMPDEST JUMPDEST PUSH2 0xAAD DUP3 PUSH2 0x837 JUMP JUMPDEST SWAP1 POP PUSH1 0x20 DUP2 ADD SWAP1 POP SWAP2 SWAP1 POP JUMP JUMPDEST DUP3 DUP2 DUP4 CALLDATACOPY PUSH0 DUP4 DUP4 ADD MSTORE POP POP POP JUMP JUMPDEST PUSH0 PUSH2 0xADA PUSH2 0xAD5 DUP5 PUSH2 0xA8A JUMP JUMPDEST PUSH2 0xA70 JUMP JUMPDEST SWAP1 POP DUP3 DUP2 MSTORE PUSH1 0x20 DUP2 ADD DUP5 DUP5 DUP5 ADD GT ISZERO PUSH2 0xAF6 JUMPI PUSH2 0xAF5 PUSH2 0xA0E JUMP JUMPDEST JUMPDEST PUSH2 0xB01 DUP5 DUP3 DUP6 PUSH2 0xABA JUMP JUMPDEST POP SWAP4 SWAP3 POP POP POP JUMP JUMPDEST PUSH0 DUP3 PUSH1 0x1F DUP4 ADD SLT PUSH2 0xB1D JUMPI PUSH2 0xB1C PUSH2 0xA0A JUMP JUMPDEST JUMPDEST DUP2 CALLDATALOAD PUSH2 0xB2D DUP5 DUP3 PUSH1 0x20 DUP7 ADD PUSH2 0xAC8 JUMP JUMPDEST SWAP2 POP POP SWAP3 SWAP2 POP POP JUMP JUMPDEST PUSH0 DUP1 PUSH1 0x40 DUP4 DUP6 SUB SLT ISZERO PUSH2 0xB4C JUMPI PUSH2 0xB4B PUSH2 0x79A JUMP JUMPDEST JUMPDEST PUSH0 DUP4 ADD CALLDATALOAD PUSH8 0xFFFFFFFFFFFFFFFF DUP2 GT ISZERO PUSH2 0xB69 JUMPI PUSH2 0xB68 PUSH2 0x79E JUMP JUMPDEST JUMPDEST PUSH2 0xB75 DUP6 DUP3 DUP7 ADD PUSH2 0xB09 JUMP JUMPDEST SWAP3 POP POP PUSH1 0x20 DUP4 ADD CALLDATALOAD PUSH8 0xFFFFFFFFFFFFFFFF DUP2 GT ISZERO PUSH2 0xB96 JUMPI PUSH2 0xB95 PUSH2 0x79E JUMP JUMPDEST JUMPDEST PUSH2 0xBA2 DUP6 DUP3 DUP7 ADD PUSH2 0xB09 JUMP JUMPDEST SWAP2 POP POP SWAP3 POP SWAP3 SWAP1 POP JUMP JUMPDEST PUSH2 0xBB5 DUP2 PUSH2 0x9D1 JUMP JUMPDEST DUP2 EQ PUSH2 0xBBF JUMPI PUSH0 DUP1 REVERT JUMPDEST POP JUMP JUMPDEST PUSH0 DUP2 CALLDATALOAD SWAP1 POP PUSH2 0xBD0 DUP2 PUSH2 0xBAC JUMP JUMPDEST SWAP3 SWAP2 POP POP JUMP JUMPDEST PUSH0 PUSH1 0x20 DUP3 DUP5 SUB SLT ISZERO PUSH2 0xBEB JUMPI PUSH2 0xBEA PUSH2 0x79A JUMP JUMPDEST JUMPDEST PUSH0 PUSH2 0xBF8 DUP5 DUP3 DUP6 ADD PUSH2 0xBC2 JUMP JUMPDEST SWAP2 POP POP SWAP3 SWAP2 POP POP JUMP JUMPDEST PUSH0 PUSH1 0x80 DUP3 ADD SWAP1 POP PUSH2 0xC14 PUSH0 DUP4 ADD DUP8 PUSH2 0x800 JUMP JUMPDEST DUP2 DUP2 SUB PUSH1 0x20 DUP4 ADD MSTORE PUSH2 0xC26 DUP2 DUP7 PUSH2 0x847 JUMP JUMPDEST SWAP1 POP DUP2 DUP2 SUB PUSH1 0x40 DUP4 ADD MSTORE PUSH2 0xC3A DUP2 DUP6 PUSH2 0x847 JUMP JUMPDEST SWAP1 POP PUSH2 0xC49 PUSH1 0x60 DUP4 ADD DUP5 PUSH2 0x800 JUMP JUMPDEST SWAP6 SWAP5 POP POP POP POP POP JUMP JUMPDEST PUSH32 0x4E487B7100000000000000000000000000000000000000000000000000000000 PUSH0 MSTORE PUSH1 0x22 PUSH1 0x4 MSTORE PUSH1 0x24 PUSH0 REVERT JUMPDEST PUSH0 PUSH1 0x2 DUP3 DIV SWAP1 POP PUSH1 0x1 DUP3 AND DUP1 PUSH2 0xC96 JUMPI PUSH1 0x7F DUP3 AND SWAP2 POP JUMPDEST PUSH1 0x20 DUP3 LT DUP2 SUB PUSH2 0xCA9 JUMPI PUSH2 0xCA8 PUSH2 0xC52 JUMP JUMPDEST JUMPDEST POP SWAP2 SWAP1 POP JUMP JUMPDEST PUSH32 0x4F6E6C79206F776E65722063616E20706572666F726D20746869732061637469 PUSH0 DUP3 ADD MSTORE PUSH32 0x6F6E2E0000000000000000000000000000000000000000000000000000000000 PUSH1 0x20 DUP3 ADD MSTORE POP JUMP JUMPDEST PUSH0 PUSH2 0xD09 PUSH1 0x23 DUP4 PUSH2 0x819 JUMP JUMPDEST SWAP2 POP PUSH2 0xD14 DUP3 PUSH2 0xCAF JUMP JUMPDEST PUSH1 0x40 DUP3 ADD SWAP1 POP SWAP2 SWAP1 POP JUMP JUMPDEST PUSH0 PUSH1 0x20 DUP3 ADD SWAP1 POP DUP2 DUP2 SUB PUSH0 DUP4 ADD MSTORE PUSH2 0xD36 DUP2 PUSH2 0xCFD JUMP JUMPDEST SWAP1 POP SWAP2 SWAP1 POP JUMP JUMPDEST PUSH32 0x4E487B7100000000000000000000000000000000000000000000000000000000 PUSH0 MSTORE PUSH1 0x11 PUSH1 0x4 MSTORE PUSH1 0x24 PUSH0 REVERT JUMPDEST PUSH0 PUSH2 0xD74 DUP3 PUSH2 0x7A2 JUMP JUMPDEST SWAP2 POP PUSH32 0xFFFFFFFFFFFFFFFFFFFFFFFFFFFFFFFFFFFFFFFFFFFFFFFFFFFFFFFFFFFFFFFF DUP3 SUB PUSH2 0xDA6 JUMPI PUSH2 0xDA5 PUSH2 0xD3D JUMP JUMPDEST JUMPDEST PUSH1 0x1 DUP3 ADD SWAP1 POP SWAP2 SWAP1 POP JUMP JUMPDEST PUSH0 DUP2 SWAP1 POP DUP2 PUSH0 MSTORE PUSH1 0x20 PUSH0 KECCAK256 SWAP1 POP SWAP2 SWAP1 POP JUMP JUMPDEST PUSH0 PUSH1 0x20 PUSH1 0x1F DUP4 ADD DIV SWAP1 POP SWAP2 SWAP1 POP JUMP JUMPDEST PUSH0 DUP3 DUP3 SHL SWAP1 POP SWAP3 SWAP2 POP POP JUMP JUMPDEST PUSH0 PUSH1 0x8 DUP4 MUL PUSH2 0xE0D PUSH32 0xFFFFFFFFFFFFFFFFFFFFFFFFFFFFFFFFFFFFFFFFFFFFFFFFFFFFFFFFFFFFFFFF DUP3 PUSH2 0xDD2 JUMP JUMPDEST PUSH2 0xE17 DUP7 DUP4 PUSH2 0xDD2 JUMP JUMPDEST SWAP6 POP DUP1 NOT DUP5 AND SWAP4 POP DUP1 DUP7 AND DUP5 OR SWAP3 POP POP POP SWAP4 SWAP3 POP POP POP JUMP JUMPDEST PUSH0 DUP2 SWAP1 POP SWAP2 SWAP1 POP JUMP JUMPDEST PUSH0 PUSH2 0xE52 PUSH2 0xE4D PUSH2 0xE48 DUP5 PUSH2 0x7A2 JUMP JUMPDEST PUSH2 0xE2F JUMP JUMPDEST PUSH2 0x7A2 JUMP JUMPDEST SWAP1 POP SWAP2 SWAP1 POP JUMP JUMPDEST PUSH0 DUP2 SWAP1 POP SWAP2 SWAP1 POP JUMP JUMPDEST PUSH2 0xE6B DUP4 PUSH2 0xE38 JUMP JUMPDEST PUSH2 0xE7F PUSH2 0xE77 DUP3 PUSH2 0xE59 JUMP JUMPDEST DUP5 DUP5 SLOAD PUSH2 0xDDE JUMP JUMPDEST DUP3 SSTORE POP POP POP POP JUMP JUMPDEST PUSH0 SWAP1 JUMP JUMPDEST PUSH2 0xE93 PUSH2 0xE87 JUMP JUMPDEST PUSH2 0xE9E DUP2 DUP5 DUP5 PUSH2 0xE62 JUMP JUMPDEST POP POP POP JUMP JUMPDEST JUMPDEST DUP2 DUP2 LT ISZERO PUSH2 0xEC1 JUMPI PUSH2 0xEB6 PUSH0 DUP3 PUSH2 0xE8B JUMP JUMPDEST PUSH1 0x1 DUP2 ADD SWAP1 POP PUSH2 0xEA4 JUMP JUMPDEST POP POP JUMP JUMPDEST PUSH1 0x1F DUP3 GT ISZERO PUSH2 0xF06 JUMPI PUSH2 0xED7 DUP2 PUSH2 0xDB1 JUMP JUMPDEST PUSH2 0xEE0 DUP5 PUSH2 0xDC3 JUMP JUMPDEST DUP2 ADD PUSH1 0x20 DUP6 LT ISZERO PUSH2 0xEEF JUMPI DUP2 SWAP1 POP JUMPDEST PUSH2 0xF03 PUSH2 0xEFB DUP6 PUSH2 0xDC3 JUMP JUMPDEST DUP4 ADD DUP3 PUSH2 0xEA3 JUMP JUMPDEST POP POP JUMPDEST POP POP POP JUMP JUMPDEST PUSH0 DUP3 DUP3 SHR SWAP1 POP SWAP3 SWAP2 POP POP JUMP JUMPDEST PUSH0 PUSH2 0xF26 PUSH0 NOT DUP5 PUSH1 0x8 MUL PUSH2 0xF0B JUMP JUMPDEST NOT DUP1 DUP4 AND SWAP2 POP POP SWAP3 SWAP2 POP POP JUMP JUMPDEST PUSH0 PUSH2 0xF3E DUP4 DUP4 PUSH2 0xF17 JUMP JUMPDEST SWAP2 POP DUP3 PUSH1 0x2 MUL DUP3 OR SWAP1 POP SWAP3 SWAP2 POP POP JUMP JUMPDEST PUSH2 0xF57 DUP3 PUSH2 0x80F JUMP JUMPDEST PUSH8 0xFFFFFFFFFFFFFFFF DUP2 GT ISZERO PUSH2 0xF70 JUMPI PUSH2 0xF6F PUSH2 0xA12 JUMP JUMPDEST JUMPDEST PUSH2 0xF7A DUP3 SLOAD PUSH2 0xC7F JUMP JUMPDEST PUSH2 0xF85 DUP3 DUP3 DUP6 PUSH2 0xEC5 JUMP JUMPDEST PUSH0 PUSH1 0x20 SWAP1 POP PUSH1 0x1F DUP4 GT PUSH1 0x1 DUP2 EQ PUSH2 0xFB6 JUMPI PUSH0 DUP5 ISZERO PUSH2 0xFA4 JUMPI DUP3 DUP8 ADD MLOAD SWAP1 POP JUMPDEST PUSH2 0xFAE DUP6 DUP3 PUSH2 0xF33 JUMP JUMPDEST DUP7 SSTORE POP PUSH2 0x1015 JUMP JUMPDEST PUSH1 0x1F NOT DUP5 AND PUSH2 0xFC4 DUP7 PUSH2 0xDB1 JUMP JUMPDEST PUSH0 JUMPDEST DUP3 DUP2 LT ISZERO PUSH2 0xFEB JUMPI DUP5 DUP10 ADD MLOAD DUP3 SSTORE PUSH1 0x1 DUP3 ADD SWAP2 POP PUSH1 0x20 DUP6 ADD SWAP5 POP PUSH1 0x20 DUP2 ADD SWAP1 POP PUSH2 0xFC6 JUMP JUMPDEST DUP7 DUP4 LT ISZERO PUSH2 0x1008 JUMPI DUP5 DUP10 ADD MLOAD PUSH2 0x1004 PUSH1 0x1F DUP10 AND DUP3 PUSH2 0xF17 JUMP JUMPDEST DUP4 SSTORE POP JUMPDEST PUSH1 0x1 PUSH1 0x2 DUP9 MUL ADD DUP9 SSTORE POP POP POP JUMPDEST POP POP POP POP POP POP JUMP JUMPDEST PUSH0 PUSH1 0x60 DUP3 ADD SWAP1 POP PUSH2 0x1030 PUSH0 DUP4 ADD DUP7 PUSH2 0x800 JUMP JUMPDEST DUP2 DUP2 SUB PUSH1 0x20 DUP4 ADD MSTORE PUSH2 0x1042 DUP2 DUP6 PUSH2 0x847 JUMP JUMPDEST SWAP1 POP DUP2 DUP2 SUB PUSH1 0x40 DUP4 ADD MSTORE PUSH2 0x1056 DUP2 DUP5 PUSH2 0x847 JUMP JUMPDEST SWAP1 POP SWAP5 SWAP4 POP POP POP POP JUMP JUMPDEST PUSH32 0x596F75206861766520736F6D6520657468657220746F20706572666F726D2074 PUSH0 DUP3 ADD MSTORE PUSH32 0x68697320616374696F6E00000000000000000000000000000000000000000000 PUSH1 0x20 DUP3 ADD MSTORE POP JUMP JUMPDEST PUSH0 PUSH2 0x10BA PUSH1 0x2A DUP4 PUSH2 0x819 JUMP JUMPDEST SWAP2 POP PUSH2 0x10C5 DUP3 PUSH2 0x1060 JUMP JUMPDEST PUSH1 0x40 DUP3 ADD SWAP1 POP SWAP2 SWAP1 POP JUMP JUMPDEST PUSH0 PUSH1 0x20 DUP3 ADD SWAP1 POP DUP2 DUP2 SUB PUSH0 DUP4 ADD MSTORE PUSH2 0x10E7 DUP2 PUSH2 0x10AE JUMP JUMPDEST SWAP1 POP SWAP2 SWAP1 POP JUMP INVALID LOG2 PUSH5 0x6970667358 0x22 SLT KECCAK256 PUSH0 0x22 0xA7 EXTCODEHASH DUP5 JUMP PUSH7 0x3DE9A3B6050EB9 0xD1 ISZERO 0x2D PUSH19 0x6A7979438BC8B6F697D7925CEEDC64736F6C63 NUMBER STOP ADDMOD NOT STOP CALLER "
				},
				"gasEstimates": {
					"creation": {
						"codeDepositCost": "877600",
						"executionCost": "47285",
						"totalCost": "924885"
					},
					"external": {
						"createOrganization(string,string)": "infinite",
						"donate(uint256)": "764",
						"donors(uint256)": "infinite",
						"getOrganizationDetails(uint256)": "infinite",
						"nextOrgId()": "2470",
						"organizationIdByOwner(address)": "2824",
						"organizations(uint256)": "infinite",
						"owner()": "2572"
					}
				},
				"methodIdentifiers": {
					"createOrganization(string,string)": "a411ef20",
					"donate(uint256)": "f14faf6f",
					"donors(uint256)": "4abfa163",
					"getOrganizationDetails(uint256)": "79bb57b4",
					"nextOrgId()": "8a5f067c",
					"organizationIdByOwner(address)": "be21d337",
					"organizations(uint256)": "e792dd8a",
					"owner()": "8da5cb5b"
				}
			},
			"storageLayout": {
				"storage": [
					{
						"astId": 3,
						"contract": "contracts/3_Ballot.sol:Donation",
						"label": "owner",
						"offset": 0,
						"slot": "0",
						"type": "t_address"
					},
					{
						"astId": 22,
						"contract": "contracts/3_Ballot.sol:Donation",
						"label": "nextOrgId",
						"offset": 0,
						"slot": "1",
						"type": "t_uint256"
					},
					{
						"astId": 27,
						"contract": "contracts/3_Ballot.sol:Donation",
						"label": "organizations",
						"offset": 0,
						"slot": "2",
						"type": "t_mapping(t_uint256,t_struct(Organization)12_storage)"
					},
					{
						"astId": 31,
						"contract": "contracts/3_Ballot.sol:Donation",
						"label": "organizationIdByOwner",
						"offset": 0,
						"slot": "3",
						"type": "t_mapping(t_address,t_uint256)"
					},
					{
						"astId": 36,
						"contract": "contracts/3_Ballot.sol:Donation",
						"label": "donors",
						"offset": 0,
						"slot": "4",
						"type": "t_mapping(t_uint256,t_struct(Donor)19_storage)"
					}
				],
				"types": {
					"t_address": {
						"encoding": "inplace",
						"label": "address",
						"numberOfBytes": "20"
					},
					"t_mapping(t_address,t_uint256)": {
						"encoding": "mapping",
						"key": "t_address",
						"label": "mapping(address => uint256)",
						"numberOfBytes": "32",
						"value": "t_uint256"
					},
					"t_mapping(t_uint256,t_struct(Donor)19_storage)": {
						"encoding": "mapping",
						"key": "t_uint256",
						"label": "mapping(uint256 => struct Donation.Donor)",
						"numberOfBytes": "32",
						"value": "t_struct(Donor)19_storage"
					},
					"t_mapping(t_uint256,t_struct(Organization)12_storage)": {
						"encoding": "mapping",
						"key": "t_uint256",
						"label": "mapping(uint256 => struct Donation.Organization)",
						"numberOfBytes": "32",
						"value": "t_struct(Organization)12_storage"
					},
					"t_string_storage": {
						"encoding": "bytes",
						"label": "string",
						"numberOfBytes": "32"
					},
					"t_struct(Donor)19_storage": {
						"encoding": "inplace",
						"label": "struct Donation.Donor",
						"members": [
							{
								"astId": 14,
								"contract": "contracts/3_Ballot.sol:Donation",
								"label": "totalDonated",
								"offset": 0,
								"slot": "0",
								"type": "t_uint256"
							},
							{
								"astId": 16,
								"contract": "contracts/3_Ballot.sol:Donation",
								"label": "numberOfDonations",
								"offset": 0,
								"slot": "1",
								"type": "t_uint256"
							},
							{
								"astId": 18,
								"contract": "contracts/3_Ballot.sol:Donation",
								"label": "name",
								"offset": 0,
								"slot": "2",
								"type": "t_string_storage"
							}
						],
						"numberOfBytes": "96"
					},
					"t_struct(Organization)12_storage": {
						"encoding": "inplace",
						"label": "struct Donation.Organization",
						"members": [
							{
								"astId": 5,
								"contract": "contracts/3_Ballot.sol:Donation",
								"label": "id",
								"offset": 0,
								"slot": "0",
								"type": "t_uint256"
							},
							{
								"astId": 7,
								"contract": "contracts/3_Ballot.sol:Donation",
								"label": "name",
								"offset": 0,
								"slot": "1",
								"type": "t_string_storage"
							},
							{
								"astId": 9,
								"contract": "contracts/3_Ballot.sol:Donation",
								"label": "description",
								"offset": 0,
								"slot": "2",
								"type": "t_string_storage"
							},
							{
								"astId": 11,
								"contract": "contracts/3_Ballot.sol:Donation",
								"label": "total_amount",
								"offset": 0,
								"slot": "3",
								"type": "t_uint256"
							}
						],
						"numberOfBytes": "128"
					},
					"t_uint256": {
						"encoding": "inplace",
						"label": "uint256",
						"numberOfBytes": "32"
					}
				}
			},
			"userdoc": {
				"kind": "user",
				"methods": {},
				"version": 1
			}
		}
	}
}