{
	"contracts/donation.sol": {
		"Donation": {
			"abi": [
				{
					"inputs": [
						{
							"internalType": "contract CreateOrganization",
							"name": "_createOrgContract",
							"type": "address"
						}
					],
					"stateMutability": "nonpayable",
					"type": "constructor"
				},
				{
					"anonymous": false,
					"inputs": [
						{
							"indexed": false,
							"internalType": "uint256",
							"name": "orgId",
							"type": "uint256"
						},
						{
							"indexed": false,
							"internalType": "uint256",
							"name": "amount",
							"type": "uint256"
						}
					],
					"name": "DonationReceived",
					"type": "event"
				},
				{
					"inputs": [
						{
							"internalType": "string",
							"name": "_name",
							"type": "string"
						},
						{
							"internalType": "string",
							"name": "_description",
							"type": "string"
						}
					],
					"name": "createNewOrganization",
					"outputs": [],
					"stateMutability": "nonpayable",
					"type": "function"
				},
				{
					"inputs": [],
					"name": "createOrgContract",
					"outputs": [
						{
							"internalType": "contract CreateOrganization",
							"name": "",
							"type": "address"
						}
					],
					"stateMutability": "view",
					"type": "function"
				},
				{
					"inputs": [
						{
							"internalType": "uint256",
							"name": "_orgId",
							"type": "uint256"
						}
					],
					"name": "donate",
					"outputs": [],
					"stateMutability": "payable",
					"type": "function"
				},
				{
					"inputs": [
						{
							"internalType": "uint256",
							"name": "",
							"type": "uint256"
						}
					],
					"name": "donors",
					"outputs": [
						{
							"internalType": "uint256",
							"name": "totalDonated",
							"type": "uint256"
						},
						{
							"internalType": "uint256",
							"name": "numberOfDonations",
							"type": "uint256"
						}
					],
					"stateMutability": "view",
					"type": "function"
				},
				{
					"inputs": [],
					"name": "owner",
					"outputs": [
						{
							"internalType": "address",
							"name": "",
							"type": "address"
						}
					],
					"stateMutability": "view",
					"type": "function"
				}
			],
			"devdoc": {
				"kind": "dev",
				"methods": {},
				"version": 1
			},
			"evm": {
				"assembly": "    /* \"contracts/donation.sol\":101:1272  contract Donation {... */\n  mstore(0x40, 0x80)\n    /* \"contracts/donation.sol\":286:420  constructor(CreateOrganization _createOrgContract) {... */\n  callvalue\n  dup1\n  iszero\n  tag_1\n  jumpi\n  0x00\n  dup1\n  revert\ntag_1:\n  pop\n  mload(0x40)\n  sub(codesize, bytecodeSize)\n  dup1\n  bytecodeSize\n  dup4\n  codecopy\n  dup2\n  dup2\n  add\n  0x40\n  mstore\n  dup2\n  add\n  swap1\n  tag_2\n  swap2\n  swap1\n  tag_3\n  jump\t// in\ntag_2:\n    /* \"contracts/donation.sol\":355:365  msg.sender */\n  caller\n    /* \"contracts/donation.sol\":347:352  owner */\n  0x00\n  dup1\n    /* \"contracts/donation.sol\":347:365  owner = msg.sender */\n  0x0100\n  exp\n  dup2\n  sload\n  dup2\n  0xffffffffffffffffffffffffffffffffffffffff\n  mul\n  not\n  and\n  swap1\n  dup4\n  0xffffffffffffffffffffffffffffffffffffffff\n  and\n  mul\n  or\n  swap1\n  sstore\n  pop\n    /* \"contracts/donation.sol\":395:413  _createOrgContract */\n  dup1\n    /* \"contracts/donation.sol\":375:392  createOrgContract */\n  0x01\n  0x00\n    /* \"contracts/donation.sol\":375:413  createOrgContract = _createOrgContract */\n  0x0100\n  exp\n  dup2\n  sload\n  dup2\n  0xffffffffffffffffffffffffffffffffffffffff\n  mul\n  not\n  and\n  swap1\n  dup4\n  0xffffffffffffffffffffffffffffffffffffffff\n  and\n  mul\n  or\n  swap1\n  sstore\n  pop\n    /* \"contracts/donation.sol\":286:420  constructor(CreateOrganization _createOrgContract) {... */\n  pop\n    /* \"contracts/donation.sol\":101:1272  contract Donation {... */\n  jump(tag_6)\n    /* \"#utility.yul\":88:205   */\ntag_8:\n    /* \"#utility.yul\":197:198   */\n  0x00\n    /* \"#utility.yul\":194:195   */\n  dup1\n    /* \"#utility.yul\":187:199   */\n  revert\n    /* \"#utility.yul\":334:460   */\ntag_10:\n    /* \"#utility.yul\":371:378   */\n  0x00\n    /* \"#utility.yul\":411:453   */\n  0xffffffffffffffffffffffffffffffffffffffff\n    /* \"#utility.yul\":404:409   */\n  dup3\n    /* \"#utility.yul\":400:454   */\n  and\n    /* \"#utility.yul\":389:454   */\n  swap1\n  pop\n    /* \"#utility.yul\":334:460   */\n  swap2\n  swap1\n  pop\n  jump\t// out\n    /* \"#utility.yul\":466:562   */\ntag_11:\n    /* \"#utility.yul\":503:510   */\n  0x00\n    /* \"#utility.yul\":532:556   */\n  tag_21\n    /* \"#utility.yul\":550:555   */\n  dup3\n    /* \"#utility.yul\":532:556   */\n  tag_10\n  jump\t// in\ntag_21:\n    /* \"#utility.yul\":521:556   */\n  swap1\n  pop\n    /* \"#utility.yul\":466:562   */\n  swap2\n  swap1\n  pop\n  jump\t// out\n    /* \"#utility.yul\":568:690   */\ntag_12:\n    /* \"#utility.yul\":631:638   */\n  0x00\n    /* \"#utility.yul\":660:684   */\n  tag_23\n    /* \"#utility.yul\":678:683   */\n  dup3\n    /* \"#utility.yul\":660:684   */\n  tag_11\n  jump\t// in\ntag_23:\n    /* \"#utility.yul\":649:684   */\n  swap1\n  pop\n    /* \"#utility.yul\":568:690   */\n  swap2\n  swap1\n  pop\n  jump\t// out\n    /* \"#utility.yul\":696:870   */\ntag_13:\n    /* \"#utility.yul\":795:845   */\n  tag_25\n    /* \"#utility.yul\":839:844   */\n  dup2\n    /* \"#utility.yul\":795:845   */\n  tag_12\n  jump\t// in\ntag_25:\n    /* \"#utility.yul\":788:793   */\n  dup2\n    /* \"#utility.yul\":785:846   */\n  eq\n    /* \"#utility.yul\":775:864   */\n  tag_26\n  jumpi\n    /* \"#utility.yul\":860:861   */\n  0x00\n    /* \"#utility.yul\":857:858   */\n  dup1\n    /* \"#utility.yul\":850:862   */\n  revert\n    /* \"#utility.yul\":775:864   */\ntag_26:\n    /* \"#utility.yul\":696:870   */\n  pop\n  jump\t// out\n    /* \"#utility.yul\":876:1071   */\ntag_14:\n    /* \"#utility.yul\":959:964   */\n  0x00\n    /* \"#utility.yul\":990:996   */\n  dup2\n    /* \"#utility.yul\":984:997   */\n  mload\n    /* \"#utility.yul\":975:997   */\n  swap1\n  pop\n    /* \"#utility.yul\":1006:1065   */\n  tag_28\n    /* \"#utility.yul\":1059:1064   */\n  dup2\n    /* \"#utility.yul\":1006:1065   */\n  tag_13\n  jump\t// in\ntag_28:\n    /* \"#utility.yul\":876:1071   */\n  swap3\n  swap2\n  pop\n  pop\n  jump\t// out\n    /* \"#utility.yul\":1077:1480   */\ntag_3:\n    /* \"#utility.yul\":1173:1179   */\n  0x00\n    /* \"#utility.yul\":1222:1224   */\n  0x20\n    /* \"#utility.yul\":1210:1219   */\n  dup3\n    /* \"#utility.yul\":1201:1208   */\n  dup5\n    /* \"#utility.yul\":1197:1220   */\n  sub\n    /* \"#utility.yul\":1193:1225   */\n  slt\n    /* \"#utility.yul\":1190:1309   */\n  iszero\n  tag_30\n  jumpi\n    /* \"#utility.yul\":1228:1307   */\n  tag_31\n  tag_8\n  jump\t// in\ntag_31:\n    /* \"#utility.yul\":1190:1309   */\ntag_30:\n    /* \"#utility.yul\":1348:1349   */\n  0x00\n    /* \"#utility.yul\":1373:1463   */\n  tag_32\n    /* \"#utility.yul\":1455:1462   */\n  dup5\n    /* \"#utility.yul\":1446:1452   */\n  dup3\n    /* \"#utility.yul\":1435:1444   */\n  dup6\n    /* \"#utility.yul\":1431:1453   */\n  add\n    /* \"#utility.yul\":1373:1463   */\n  tag_14\n  jump\t// in\ntag_32:\n    /* \"#utility.yul\":1363:1463   */\n  swap2\n  pop\n    /* \"#utility.yul\":1319:1473   */\n  pop\n    /* \"#utility.yul\":1077:1480   */\n  swap3\n  swap2\n  pop\n  pop\n  jump\t// out\n    /* \"contracts/donation.sol\":101:1272  contract Donation {... */\ntag_6:\n  dataSize(sub_0)\n  dup1\n  dataOffset(sub_0)\n  0x00\n  codecopy\n  0x00\n  return\nstop\n\nsub_0: assembly {\n        /* \"contracts/donation.sol\":101:1272  contract Donation {... */\n      mstore(0x40, 0x80)\n      jumpi(tag_1, lt(calldatasize, 0x04))\n      shr(0xe0, calldataload(0x00))\n      dup1\n      0x1614e668\n      eq\n      tag_2\n      jumpi\n      dup1\n      0x1f9f0d9a\n      eq\n      tag_3\n      jumpi\n      dup1\n      0x4abfa163\n      eq\n      tag_4\n      jumpi\n      dup1\n      0x8da5cb5b\n      eq\n      tag_5\n      jumpi\n      dup1\n      0xf14faf6f\n      eq\n      tag_6\n      jumpi\n    tag_1:\n      0x00\n      dup1\n      revert\n        /* \"contracts/donation.sol\":426:587  function createNewOrganization(string memory _name, string memory _description) public {... */\n    tag_2:\n      callvalue\n      dup1\n      iszero\n      tag_7\n      jumpi\n      0x00\n      dup1\n      revert\n    tag_7:\n      pop\n      tag_8\n      0x04\n      dup1\n      calldatasize\n      sub\n      dup2\n      add\n      swap1\n      tag_9\n      swap2\n      swap1\n      tag_10\n      jump\t// in\n    tag_9:\n      tag_11\n      jump\t// in\n    tag_8:\n      stop\n        /* \"contracts/donation.sol\":151:194  CreateOrganization public createOrgContract */\n    tag_3:\n      callvalue\n      dup1\n      iszero\n      tag_12\n      jumpi\n      0x00\n      dup1\n      revert\n    tag_12:\n      pop\n      tag_13\n      tag_14\n      jump\t// in\n    tag_13:\n      mload(0x40)\n      tag_15\n      swap2\n      swap1\n      tag_16\n      jump\t// in\n    tag_15:\n      mload(0x40)\n      dup1\n      swap2\n      sub\n      swap1\n      return\n        /* \"contracts/donation.sol\":593:629  mapping(uint => Donor) public donors */\n    tag_4:\n      callvalue\n      dup1\n      iszero\n      tag_17\n      jumpi\n      0x00\n      dup1\n      revert\n    tag_17:\n      pop\n      tag_18\n      0x04\n      dup1\n      calldatasize\n      sub\n      dup2\n      add\n      swap1\n      tag_19\n      swap2\n      swap1\n      tag_20\n      jump\t// in\n    tag_19:\n      tag_21\n      jump\t// in\n    tag_18:\n      mload(0x40)\n      tag_22\n      swap3\n      swap2\n      swap1\n      tag_23\n      jump\t// in\n    tag_22:\n      mload(0x40)\n      dup1\n      swap2\n      sub\n      swap1\n      return\n        /* \"contracts/donation.sol\":125:145  address public owner */\n    tag_5:\n      callvalue\n      dup1\n      iszero\n      tag_24\n      jumpi\n      0x00\n      dup1\n      revert\n    tag_24:\n      pop\n      tag_25\n      tag_26\n      jump\t// in\n    tag_25:\n      mload(0x40)\n      tag_27\n      swap2\n      swap1\n      tag_28\n      jump\t// in\n    tag_27:\n      mload(0x40)\n      dup1\n      swap2\n      sub\n      swap1\n      return\n        /* \"contracts/donation.sol\":690:1268  function donate(uint _orgId) public payable {... */\n    tag_6:\n      tag_29\n      0x04\n      dup1\n      calldatasize\n      sub\n      dup2\n      add\n      swap1\n      tag_30\n      swap2\n      swap1\n      tag_20\n      jump\t// in\n    tag_30:\n      tag_31\n      jump\t// in\n    tag_29:\n      stop\n        /* \"contracts/donation.sol\":426:587  function createNewOrganization(string memory _name, string memory _description) public {... */\n    tag_11:\n        /* \"contracts/donation.sol\":523:540  createOrgContract */\n      0x01\n      0x00\n      swap1\n      sload\n      swap1\n      0x0100\n      exp\n      swap1\n      div\n      0xffffffffffffffffffffffffffffffffffffffff\n      and\n        /* \"contracts/donation.sol\":523:559  createOrgContract.createOrganization */\n      0xffffffffffffffffffffffffffffffffffffffff\n      and\n      0xa411ef20\n        /* \"contracts/donation.sol\":560:565  _name */\n      dup4\n        /* \"contracts/donation.sol\":567:579  _description */\n      dup4\n        /* \"contracts/donation.sol\":523:580  createOrgContract.createOrganization(_name, _description) */\n      mload(0x40)\n      dup4\n      0xffffffff\n      and\n      0xe0\n      shl\n      dup2\n      mstore\n      0x04\n      add\n      tag_33\n      swap3\n      swap2\n      swap1\n      tag_34\n      jump\t// in\n    tag_33:\n      0x00\n      mload(0x40)\n      dup1\n      dup4\n      sub\n      dup2\n      0x00\n      dup8\n      dup1\n      extcodesize\n      iszero\n      dup1\n      iszero\n      tag_35\n      jumpi\n      0x00\n      dup1\n      revert\n    tag_35:\n      pop\n      gas\n      call\n      iszero\n      dup1\n      iszero\n      tag_37\n      jumpi\n      returndatasize\n      0x00\n      dup1\n      returndatacopy\n      revert(0x00, returndatasize)\n    tag_37:\n      pop\n      pop\n      pop\n      pop\n        /* \"contracts/donation.sol\":426:587  function createNewOrganization(string memory _name, string memory _description) public {... */\n      pop\n      pop\n      jump\t// out\n        /* \"contracts/donation.sol\":151:194  CreateOrganization public createOrgContract */\n    tag_14:\n      0x01\n      0x00\n      swap1\n      sload\n      swap1\n      0x0100\n      exp\n      swap1\n      div\n      0xffffffffffffffffffffffffffffffffffffffff\n      and\n      dup2\n      jump\t// out\n        /* \"contracts/donation.sol\":593:629  mapping(uint => Donor) public donors */\n    tag_21:\n      mstore(0x20, 0x02)\n      dup1\n      0x00\n      mstore\n      keccak256(0x00, 0x40)\n      0x00\n      swap2\n      pop\n      swap1\n      pop\n      dup1\n      0x00\n      add\n      sload\n      swap1\n      dup1\n      0x01\n      add\n      sload\n      swap1\n      pop\n      dup3\n      jump\t// out\n        /* \"contracts/donation.sol\":125:145  address public owner */\n    tag_26:\n      0x00\n      dup1\n      sload\n      swap1\n      0x0100\n      exp\n      swap1\n      div\n      0xffffffffffffffffffffffffffffffffffffffff\n      and\n      dup2\n      jump\t// out\n        /* \"contracts/donation.sol\":690:1268  function donate(uint _orgId) public payable {... */\n    tag_31:\n        /* \"contracts/donation.sol\":764:765  0 */\n      0x00\n        /* \"contracts/donation.sol\":752:761  msg.value */\n      callvalue\n        /* \"contracts/donation.sol\":752:765  msg.value > 0 */\n      gt\n        /* \"contracts/donation.sol\":744:820  require(msg.value > 0, \"You need to send some ether to perform this action\") */\n      tag_39\n      jumpi\n      mload(0x40)\n      0x08c379a000000000000000000000000000000000000000000000000000000000\n      dup2\n      mstore\n      0x04\n      add\n      tag_40\n      swap1\n      tag_41\n      jump\t// in\n    tag_40:\n      mload(0x40)\n      dup1\n      swap2\n      sub\n      swap1\n      revert\n    tag_39:\n        /* \"contracts/donation.sol\":893:894  0 */\n      0x00\n        /* \"contracts/donation.sol\":838:855  createOrgContract */\n      0x01\n      0x00\n      swap1\n      sload\n      swap1\n      0x0100\n      exp\n      swap1\n      div\n      0xffffffffffffffffffffffffffffffffffffffff\n      and\n        /* \"contracts/donation.sol\":838:878  createOrgContract.getOrganizationDetails */\n      0xffffffffffffffffffffffffffffffffffffffff\n      and\n      0x79bb57b4\n        /* \"contracts/donation.sol\":879:885  _orgId */\n      dup4\n        /* \"contracts/donation.sol\":838:886  createOrgContract.getOrganizationDetails(_orgId) */\n      mload(0x40)\n      dup3\n      0xffffffff\n      and\n      0xe0\n      shl\n      dup2\n      mstore\n      0x04\n      add\n      tag_42\n      swap2\n      swap1\n      tag_43\n      jump\t// in\n    tag_42:\n      0x00\n      mload(0x40)\n      dup1\n      dup4\n      sub\n      dup2\n      dup7\n      gas\n      staticcall\n      iszero\n      dup1\n      iszero\n      tag_45\n      jumpi\n      returndatasize\n      0x00\n      dup1\n      returndatacopy\n      revert(0x00, returndatasize)\n    tag_45:\n      pop\n      pop\n      pop\n      pop\n      mload(0x40)\n      returndatasize\n      0x00\n      dup3\n      returndatacopy\n      returndatasize\n      not(0x1f)\n      0x1f\n      dup3\n      add\n      and\n      dup3\n      add\n      dup1\n      0x40\n      mstore\n      pop\n      dup2\n      add\n      swap1\n      tag_46\n      swap2\n      swap1\n      tag_47\n      jump\t// in\n    tag_46:\n        /* \"contracts/donation.sol\":838:889  createOrgContract.getOrganizationDetails(_orgId).id */\n      0x00\n      add\n      mload\n        /* \"contracts/donation.sol\":838:894  createOrgContract.getOrganizationDetails(_orgId).id != 0 */\n      sub\n        /* \"contracts/donation.sol\":830:927  require(createOrgContract.getOrganizationDetails(_orgId).id != 0, \"Organization does not exist.\") */\n      tag_48\n      jumpi\n      mload(0x40)\n      0x08c379a000000000000000000000000000000000000000000000000000000000\n      dup2\n      mstore\n      0x04\n      add\n      tag_49\n      swap1\n      tag_50\n      jump\t// in\n    tag_49:\n      mload(0x40)\n      dup1\n      swap2\n      sub\n      swap1\n      revert\n    tag_48:\n        /* \"contracts/donation.sol\":938:957  Donor storage donor */\n      0x00\n        /* \"contracts/donation.sol\":960:966  donors */\n      0x02\n        /* \"contracts/donation.sol\":960:993  donors[uint(uint160(msg.sender))] */\n      0x00\n        /* \"contracts/donation.sol\":980:990  msg.sender */\n      caller\n        /* \"contracts/donation.sol\":967:992  uint(uint160(msg.sender)) */\n      0xffffffffffffffffffffffffffffffffffffffff\n      and\n        /* \"contracts/donation.sol\":960:993  donors[uint(uint160(msg.sender))] */\n      dup2\n      mstore\n      0x20\n      add\n      swap1\n      dup2\n      mstore\n      0x20\n      add\n      0x00\n      keccak256\n        /* \"contracts/donation.sol\":938:993  Donor storage donor = donors[uint(uint160(msg.sender))] */\n      swap1\n      pop\n        /* \"contracts/donation.sol\":1025:1034  msg.value */\n      callvalue\n        /* \"contracts/donation.sol\":1003:1008  donor */\n      dup2\n        /* \"contracts/donation.sol\":1003:1021  donor.totalDonated */\n      0x00\n      add\n      0x00\n        /* \"contracts/donation.sol\":1003:1034  donor.totalDonated += msg.value */\n      dup3\n      dup3\n      sload\n      tag_51\n      swap2\n      swap1\n      tag_52\n      jump\t// in\n    tag_51:\n      swap3\n      pop\n      pop\n      dup2\n      swap1\n      sstore\n      pop\n        /* \"contracts/donation.sol\":1071:1072  1 */\n      0x01\n        /* \"contracts/donation.sol\":1044:1049  donor */\n      dup2\n        /* \"contracts/donation.sol\":1044:1067  donor.numberOfDonations */\n      0x01\n      add\n      0x00\n        /* \"contracts/donation.sol\":1044:1072  donor.numberOfDonations += 1 */\n      dup3\n      dup3\n      sload\n      tag_53\n      swap2\n      swap1\n      tag_52\n      jump\t// in\n    tag_53:\n      swap3\n      pop\n      pop\n      dup2\n      swap1\n      sstore\n      pop\n        /* \"contracts/donation.sol\":1083:1100  createOrgContract */\n      0x01\n      0x00\n      swap1\n      sload\n      swap1\n      0x0100\n      exp\n      swap1\n      div\n      0xffffffffffffffffffffffffffffffffffffffff\n      and\n        /* \"contracts/donation.sol\":1083:1123  createOrgContract.addFundsToOrganization */\n      0xffffffffffffffffffffffffffffffffffffffff\n      and\n      0xa9ea4238\n        /* \"contracts/donation.sol\":1124:1130  _orgId */\n      dup4\n        /* \"contracts/donation.sol\":1132:1141  msg.value */\n      callvalue\n        /* \"contracts/donation.sol\":1083:1142  createOrgContract.addFundsToOrganization(_orgId, msg.value) */\n      mload(0x40)\n      dup4\n      0xffffffff\n      and\n      0xe0\n      shl\n      dup2\n      mstore\n      0x04\n      add\n      tag_54\n      swap3\n      swap2\n      swap1\n      tag_23\n      jump\t// in\n    tag_54:\n      0x00\n      mload(0x40)\n      dup1\n      dup4\n      sub\n      dup2\n      0x00\n      dup8\n      dup1\n      extcodesize\n      iszero\n      dup1\n      iszero\n      tag_55\n      jumpi\n      0x00\n      dup1\n      revert\n    tag_55:\n      pop\n      gas\n      call\n      iszero\n      dup1\n      iszero\n      tag_57\n      jumpi\n      returndatasize\n      0x00\n      dup1\n      returndatacopy\n      revert(0x00, returndatasize)\n    tag_57:\n      pop\n      pop\n      pop\n      pop\n        /* \"contracts/donation.sol\":1226:1261  DonationReceived(_orgId, msg.value) */\n      0x7f33cc4ff9ec616b18266ccfe9acb607a1f8b1fb7e411b9a9b9dc03df1fb548a\n        /* \"contracts/donation.sol\":1243:1249  _orgId */\n      dup3\n        /* \"contracts/donation.sol\":1251:1260  msg.value */\n      callvalue\n        /* \"contracts/donation.sol\":1226:1261  DonationReceived(_orgId, msg.value) */\n      mload(0x40)\n      tag_58\n      swap3\n      swap2\n      swap1\n      tag_23\n      jump\t// in\n    tag_58:\n      mload(0x40)\n      dup1\n      swap2\n      sub\n      swap1\n      log1\n        /* \"contracts/donation.sol\":734:1268  {... */\n      pop\n        /* \"contracts/donation.sol\":690:1268  function donate(uint _orgId) public payable {... */\n      pop\n      jump\t// out\n        /* \"#utility.yul\":7:82   */\n    tag_59:\n        /* \"#utility.yul\":40:46   */\n      0x00\n        /* \"#utility.yul\":73:75   */\n      0x40\n        /* \"#utility.yul\":67:76   */\n      mload\n        /* \"#utility.yul\":57:76   */\n      swap1\n      pop\n        /* \"#utility.yul\":7:82   */\n      swap1\n      jump\t// out\n        /* \"#utility.yul\":88:205   */\n    tag_60:\n        /* \"#utility.yul\":197:198   */\n      0x00\n        /* \"#utility.yul\":194:195   */\n      dup1\n        /* \"#utility.yul\":187:199   */\n      revert\n        /* \"#utility.yul\":211:328   */\n    tag_61:\n        /* \"#utility.yul\":320:321   */\n      0x00\n        /* \"#utility.yul\":317:318   */\n      dup1\n        /* \"#utility.yul\":310:322   */\n      revert\n        /* \"#utility.yul\":334:451   */\n    tag_62:\n        /* \"#utility.yul\":443:444   */\n      0x00\n        /* \"#utility.yul\":440:441   */\n      dup1\n        /* \"#utility.yul\":433:445   */\n      revert\n        /* \"#utility.yul\":457:574   */\n    tag_63:\n        /* \"#utility.yul\":566:567   */\n      0x00\n        /* \"#utility.yul\":563:564   */\n      dup1\n        /* \"#utility.yul\":556:568   */\n      revert\n        /* \"#utility.yul\":580:682   */\n    tag_64:\n        /* \"#utility.yul\":621:627   */\n      0x00\n        /* \"#utility.yul\":672:674   */\n      0x1f\n        /* \"#utility.yul\":668:675   */\n      not\n        /* \"#utility.yul\":663:665   */\n      0x1f\n        /* \"#utility.yul\":656:661   */\n      dup4\n        /* \"#utility.yul\":652:666   */\n      add\n        /* \"#utility.yul\":648:676   */\n      and\n        /* \"#utility.yul\":638:676   */\n      swap1\n      pop\n        /* \"#utility.yul\":580:682   */\n      swap2\n      swap1\n      pop\n      jump\t// out\n        /* \"#utility.yul\":688:868   */\n    tag_65:\n        /* \"#utility.yul\":736:813   */\n      0x4e487b7100000000000000000000000000000000000000000000000000000000\n        /* \"#utility.yul\":733:734   */\n      0x00\n        /* \"#utility.yul\":726:814   */\n      mstore\n        /* \"#utility.yul\":833:837   */\n      0x41\n        /* \"#utility.yul\":830:831   */\n      0x04\n        /* \"#utility.yul\":823:838   */\n      mstore\n        /* \"#utility.yul\":857:861   */\n      0x24\n        /* \"#utility.yul\":854:855   */\n      0x00\n        /* \"#utility.yul\":847:862   */\n      revert\n        /* \"#utility.yul\":874:1155   */\n    tag_66:\n        /* \"#utility.yul\":957:984   */\n      tag_108\n        /* \"#utility.yul\":979:983   */\n      dup3\n        /* \"#utility.yul\":957:984   */\n      tag_64\n      jump\t// in\n    tag_108:\n        /* \"#utility.yul\":949:955   */\n      dup2\n        /* \"#utility.yul\":945:985   */\n      add\n        /* \"#utility.yul\":1087:1093   */\n      dup2\n        /* \"#utility.yul\":1075:1085   */\n      dup2\n        /* \"#utility.yul\":1072:1094   */\n      lt\n        /* \"#utility.yul\":1051:1069   */\n      0xffffffffffffffff\n        /* \"#utility.yul\":1039:1049   */\n      dup3\n        /* \"#utility.yul\":1036:1070   */\n      gt\n        /* \"#utility.yul\":1033:1095   */\n      or\n        /* \"#utility.yul\":1030:1118   */\n      iszero\n      tag_109\n      jumpi\n        /* \"#utility.yul\":1098:1116   */\n      tag_110\n      tag_65\n      jump\t// in\n    tag_110:\n        /* \"#utility.yul\":1030:1118   */\n    tag_109:\n        /* \"#utility.yul\":1138:1148   */\n      dup1\n        /* \"#utility.yul\":1134:1136   */\n      0x40\n        /* \"#utility.yul\":1127:1149   */\n      mstore\n        /* \"#utility.yul\":917:1155   */\n      pop\n        /* \"#utility.yul\":874:1155   */\n      pop\n      pop\n      jump\t// out\n        /* \"#utility.yul\":1161:1290   */\n    tag_67:\n        /* \"#utility.yul\":1195:1201   */\n      0x00\n        /* \"#utility.yul\":1222:1242   */\n      tag_112\n      tag_59\n      jump\t// in\n    tag_112:\n        /* \"#utility.yul\":1212:1242   */\n      swap1\n      pop\n        /* \"#utility.yul\":1251:1284   */\n      tag_113\n        /* \"#utility.yul\":1279:1283   */\n      dup3\n        /* \"#utility.yul\":1271:1277   */\n      dup3\n        /* \"#utility.yul\":1251:1284   */\n      tag_66\n      jump\t// in\n    tag_113:\n        /* \"#utility.yul\":1161:1290   */\n      swap2\n      swap1\n      pop\n      jump\t// out\n        /* \"#utility.yul\":1296:1604   */\n    tag_68:\n        /* \"#utility.yul\":1358:1362   */\n      0x00\n        /* \"#utility.yul\":1448:1466   */\n      0xffffffffffffffff\n        /* \"#utility.yul\":1440:1446   */\n      dup3\n        /* \"#utility.yul\":1437:1467   */\n      gt\n        /* \"#utility.yul\":1434:1490   */\n      iszero\n      tag_115\n      jumpi\n        /* \"#utility.yul\":1470:1488   */\n      tag_116\n      tag_65\n      jump\t// in\n    tag_116:\n        /* \"#utility.yul\":1434:1490   */\n    tag_115:\n        /* \"#utility.yul\":1508:1537   */\n      tag_117\n        /* \"#utility.yul\":1530:1536   */\n      dup3\n        /* \"#utility.yul\":1508:1537   */\n      tag_64\n      jump\t// in\n    tag_117:\n        /* \"#utility.yul\":1500:1537   */\n      swap1\n      pop\n        /* \"#utility.yul\":1592:1596   */\n      0x20\n        /* \"#utility.yul\":1586:1590   */\n      dup2\n        /* \"#utility.yul\":1582:1597   */\n      add\n        /* \"#utility.yul\":1574:1597   */\n      swap1\n      pop\n        /* \"#utility.yul\":1296:1604   */\n      swap2\n      swap1\n      pop\n      jump\t// out\n        /* \"#utility.yul\":1610:1758   */\n    tag_69:\n        /* \"#utility.yul\":1708:1714   */\n      dup3\n        /* \"#utility.yul\":1703:1706   */\n      dup2\n        /* \"#utility.yul\":1698:1701   */\n      dup4\n        /* \"#utility.yul\":1685:1715   */\n      calldatacopy\n        /* \"#utility.yul\":1749:1750   */\n      0x00\n        /* \"#utility.yul\":1740:1746   */\n      dup4\n        /* \"#utility.yul\":1735:1738   */\n      dup4\n        /* \"#utility.yul\":1731:1747   */\n      add\n        /* \"#utility.yul\":1724:1751   */\n      mstore\n        /* \"#utility.yul\":1610:1758   */\n      pop\n      pop\n      pop\n      jump\t// out\n        /* \"#utility.yul\":1764:2189   */\n    tag_70:\n        /* \"#utility.yul\":1842:1847   */\n      0x00\n        /* \"#utility.yul\":1867:1933   */\n      tag_120\n        /* \"#utility.yul\":1883:1932   */\n      tag_121\n        /* \"#utility.yul\":1925:1931   */\n      dup5\n        /* \"#utility.yul\":1883:1932   */\n      tag_68\n      jump\t// in\n    tag_121:\n        /* \"#utility.yul\":1867:1933   */\n      tag_67\n      jump\t// in\n    tag_120:\n        /* \"#utility.yul\":1858:1933   */\n      swap1\n      pop\n        /* \"#utility.yul\":1956:1962   */\n      dup3\n        /* \"#utility.yul\":1949:1954   */\n      dup2\n        /* \"#utility.yul\":1942:1963   */\n      mstore\n        /* \"#utility.yul\":1994:1998   */\n      0x20\n        /* \"#utility.yul\":1987:1992   */\n      dup2\n        /* \"#utility.yul\":1983:1999   */\n      add\n        /* \"#utility.yul\":2032:2035   */\n      dup5\n        /* \"#utility.yul\":2023:2029   */\n      dup5\n        /* \"#utility.yul\":2018:2021   */\n      dup5\n        /* \"#utility.yul\":2014:2030   */\n      add\n        /* \"#utility.yul\":2011:2036   */\n      gt\n        /* \"#utility.yul\":2008:2120   */\n      iszero\n      tag_122\n      jumpi\n        /* \"#utility.yul\":2039:2118   */\n      tag_123\n      tag_63\n      jump\t// in\n    tag_123:\n        /* \"#utility.yul\":2008:2120   */\n    tag_122:\n        /* \"#utility.yul\":2129:2183   */\n      tag_124\n        /* \"#utility.yul\":2176:2182   */\n      dup5\n        /* \"#utility.yul\":2171:2174   */\n      dup3\n        /* \"#utility.yul\":2166:2169   */\n      dup6\n        /* \"#utility.yul\":2129:2183   */\n      tag_69\n      jump\t// in\n    tag_124:\n        /* \"#utility.yul\":1848:2189   */\n      pop\n        /* \"#utility.yul\":1764:2189   */\n      swap4\n      swap3\n      pop\n      pop\n      pop\n      jump\t// out\n        /* \"#utility.yul\":2209:2549   */\n    tag_71:\n        /* \"#utility.yul\":2265:2270   */\n      0x00\n        /* \"#utility.yul\":2314:2317   */\n      dup3\n        /* \"#utility.yul\":2307:2311   */\n      0x1f\n        /* \"#utility.yul\":2299:2305   */\n      dup4\n        /* \"#utility.yul\":2295:2312   */\n      add\n        /* \"#utility.yul\":2291:2318   */\n      slt\n        /* \"#utility.yul\":2281:2403   */\n      tag_126\n      jumpi\n        /* \"#utility.yul\":2322:2401   */\n      tag_127\n      tag_62\n      jump\t// in\n    tag_127:\n        /* \"#utility.yul\":2281:2403   */\n    tag_126:\n        /* \"#utility.yul\":2439:2445   */\n      dup2\n        /* \"#utility.yul\":2426:2446   */\n      calldataload\n        /* \"#utility.yul\":2464:2543   */\n      tag_128\n        /* \"#utility.yul\":2539:2542   */\n      dup5\n        /* \"#utility.yul\":2531:2537   */\n      dup3\n        /* \"#utility.yul\":2524:2528   */\n      0x20\n        /* \"#utility.yul\":2516:2522   */\n      dup7\n        /* \"#utility.yul\":2512:2529   */\n      add\n        /* \"#utility.yul\":2464:2543   */\n      tag_70\n      jump\t// in\n    tag_128:\n        /* \"#utility.yul\":2455:2543   */\n      swap2\n      pop\n        /* \"#utility.yul\":2271:2549   */\n      pop\n        /* \"#utility.yul\":2209:2549   */\n      swap3\n      swap2\n      pop\n      pop\n      jump\t// out\n        /* \"#utility.yul\":2555:3389   */\n    tag_10:\n        /* \"#utility.yul\":2643:2649   */\n      0x00\n        /* \"#utility.yul\":2651:2657   */\n      dup1\n        /* \"#utility.yul\":2700:2702   */\n      0x40\n        /* \"#utility.yul\":2688:2697   */\n      dup4\n        /* \"#utility.yul\":2679:2686   */\n      dup6\n        /* \"#utility.yul\":2675:2698   */\n      sub\n        /* \"#utility.yul\":2671:2703   */\n      slt\n        /* \"#utility.yul\":2668:2787   */\n      iszero\n      tag_130\n      jumpi\n        /* \"#utility.yul\":2706:2785   */\n      tag_131\n      tag_60\n      jump\t// in\n    tag_131:\n        /* \"#utility.yul\":2668:2787   */\n    tag_130:\n        /* \"#utility.yul\":2854:2855   */\n      0x00\n        /* \"#utility.yul\":2843:2852   */\n      dup4\n        /* \"#utility.yul\":2839:2856   */\n      add\n        /* \"#utility.yul\":2826:2857   */\n      calldataload\n        /* \"#utility.yul\":2884:2902   */\n      0xffffffffffffffff\n        /* \"#utility.yul\":2876:2882   */\n      dup2\n        /* \"#utility.yul\":2873:2903   */\n      gt\n        /* \"#utility.yul\":2870:2987   */\n      iszero\n      tag_132\n      jumpi\n        /* \"#utility.yul\":2906:2985   */\n      tag_133\n      tag_61\n      jump\t// in\n    tag_133:\n        /* \"#utility.yul\":2870:2987   */\n    tag_132:\n        /* \"#utility.yul\":3011:3074   */\n      tag_134\n        /* \"#utility.yul\":3066:3073   */\n      dup6\n        /* \"#utility.yul\":3057:3063   */\n      dup3\n        /* \"#utility.yul\":3046:3055   */\n      dup7\n        /* \"#utility.yul\":3042:3064   */\n      add\n        /* \"#utility.yul\":3011:3074   */\n      tag_71\n      jump\t// in\n    tag_134:\n        /* \"#utility.yul\":3001:3074   */\n      swap3\n      pop\n        /* \"#utility.yul\":2797:3084   */\n      pop\n        /* \"#utility.yul\":3151:3153   */\n      0x20\n        /* \"#utility.yul\":3140:3149   */\n      dup4\n        /* \"#utility.yul\":3136:3154   */\n      add\n        /* \"#utility.yul\":3123:3155   */\n      calldataload\n        /* \"#utility.yul\":3182:3200   */\n      0xffffffffffffffff\n        /* \"#utility.yul\":3174:3180   */\n      dup2\n        /* \"#utility.yul\":3171:3201   */\n      gt\n        /* \"#utility.yul\":3168:3285   */\n      iszero\n      tag_135\n      jumpi\n        /* \"#utility.yul\":3204:3283   */\n      tag_136\n      tag_61\n      jump\t// in\n    tag_136:\n        /* \"#utility.yul\":3168:3285   */\n    tag_135:\n        /* \"#utility.yul\":3309:3372   */\n      tag_137\n        /* \"#utility.yul\":3364:3371   */\n      dup6\n        /* \"#utility.yul\":3355:3361   */\n      dup3\n        /* \"#utility.yul\":3344:3353   */\n      dup7\n        /* \"#utility.yul\":3340:3362   */\n      add\n        /* \"#utility.yul\":3309:3372   */\n      tag_71\n      jump\t// in\n    tag_137:\n        /* \"#utility.yul\":3299:3372   */\n      swap2\n      pop\n        /* \"#utility.yul\":3094:3382   */\n      pop\n        /* \"#utility.yul\":2555:3389   */\n      swap3\n      pop\n      swap3\n      swap1\n      pop\n      jump\t// out\n        /* \"#utility.yul\":3395:3521   */\n    tag_72:\n        /* \"#utility.yul\":3432:3439   */\n      0x00\n        /* \"#utility.yul\":3472:3514   */\n      0xffffffffffffffffffffffffffffffffffffffff\n        /* \"#utility.yul\":3465:3470   */\n      dup3\n        /* \"#utility.yul\":3461:3515   */\n      and\n        /* \"#utility.yul\":3450:3515   */\n      swap1\n      pop\n        /* \"#utility.yul\":3395:3521   */\n      swap2\n      swap1\n      pop\n      jump\t// out\n        /* \"#utility.yul\":3527:3587   */\n    tag_73:\n        /* \"#utility.yul\":3555:3558   */\n      0x00\n        /* \"#utility.yul\":3576:3581   */\n      dup2\n        /* \"#utility.yul\":3569:3581   */\n      swap1\n      pop\n        /* \"#utility.yul\":3527:3587   */\n      swap2\n      swap1\n      pop\n      jump\t// out\n        /* \"#utility.yul\":3593:3735   */\n    tag_74:\n        /* \"#utility.yul\":3643:3652   */\n      0x00\n        /* \"#utility.yul\":3676:3729   */\n      tag_141\n        /* \"#utility.yul\":3694:3728   */\n      tag_142\n        /* \"#utility.yul\":3703:3727   */\n      tag_143\n        /* \"#utility.yul\":3721:3726   */\n      dup5\n        /* \"#utility.yul\":3703:3727   */\n      tag_72\n      jump\t// in\n    tag_143:\n        /* \"#utility.yul\":3694:3728   */\n      tag_73\n      jump\t// in\n    tag_142:\n        /* \"#utility.yul\":3676:3729   */\n      tag_72\n      jump\t// in\n    tag_141:\n        /* \"#utility.yul\":3663:3729   */\n      swap1\n      pop\n        /* \"#utility.yul\":3593:3735   */\n      swap2\n      swap1\n      pop\n      jump\t// out\n        /* \"#utility.yul\":3741:3867   */\n    tag_75:\n        /* \"#utility.yul\":3791:3800   */\n      0x00\n        /* \"#utility.yul\":3824:3861   */\n      tag_145\n        /* \"#utility.yul\":3855:3860   */\n      dup3\n        /* \"#utility.yul\":3824:3861   */\n      tag_74\n      jump\t// in\n    tag_145:\n        /* \"#utility.yul\":3811:3861   */\n      swap1\n      pop\n        /* \"#utility.yul\":3741:3867   */\n      swap2\n      swap1\n      pop\n      jump\t// out\n        /* \"#utility.yul\":3873:4025   */\n    tag_76:\n        /* \"#utility.yul\":3949:3958   */\n      0x00\n        /* \"#utility.yul\":3982:4019   */\n      tag_147\n        /* \"#utility.yul\":4013:4018   */\n      dup3\n        /* \"#utility.yul\":3982:4019   */\n      tag_75\n      jump\t// in\n    tag_147:\n        /* \"#utility.yul\":3969:4019   */\n      swap1\n      pop\n        /* \"#utility.yul\":3873:4025   */\n      swap2\n      swap1\n      pop\n      jump\t// out\n        /* \"#utility.yul\":4031:4214   */\n    tag_77:\n        /* \"#utility.yul\":4144:4207   */\n      tag_149\n        /* \"#utility.yul\":4201:4206   */\n      dup2\n        /* \"#utility.yul\":4144:4207   */\n      tag_76\n      jump\t// in\n    tag_149:\n        /* \"#utility.yul\":4139:4142   */\n      dup3\n        /* \"#utility.yul\":4132:4208   */\n      mstore\n        /* \"#utility.yul\":4031:4214   */\n      pop\n      pop\n      jump\t// out\n        /* \"#utility.yul\":4220:4494   */\n    tag_16:\n        /* \"#utility.yul\":4339:4343   */\n      0x00\n        /* \"#utility.yul\":4377:4379   */\n      0x20\n        /* \"#utility.yul\":4366:4375   */\n      dup3\n        /* \"#utility.yul\":4362:4380   */\n      add\n        /* \"#utility.yul\":4354:4380   */\n      swap1\n      pop\n        /* \"#utility.yul\":4390:4487   */\n      tag_151\n        /* \"#utility.yul\":4484:4485   */\n      0x00\n        /* \"#utility.yul\":4473:4482   */\n      dup4\n        /* \"#utility.yul\":4469:4486   */\n      add\n        /* \"#utility.yul\":4460:4466   */\n      dup5\n        /* \"#utility.yul\":4390:4487   */\n      tag_77\n      jump\t// in\n    tag_151:\n        /* \"#utility.yul\":4220:4494   */\n      swap3\n      swap2\n      pop\n      pop\n      jump\t// out\n        /* \"#utility.yul\":4500:4577   */\n    tag_78:\n        /* \"#utility.yul\":4537:4544   */\n      0x00\n        /* \"#utility.yul\":4566:4571   */\n      dup2\n        /* \"#utility.yul\":4555:4571   */\n      swap1\n      pop\n        /* \"#utility.yul\":4500:4577   */\n      swap2\n      swap1\n      pop\n      jump\t// out\n        /* \"#utility.yul\":4583:4705   */\n    tag_79:\n        /* \"#utility.yul\":4656:4680   */\n      tag_154\n        /* \"#utility.yul\":4674:4679   */\n      dup2\n        /* \"#utility.yul\":4656:4680   */\n      tag_78\n      jump\t// in\n    tag_154:\n        /* \"#utility.yul\":4649:4654   */\n      dup2\n        /* \"#utility.yul\":4646:4681   */\n      eq\n        /* \"#utility.yul\":4636:4699   */\n      tag_155\n      jumpi\n        /* \"#utility.yul\":4695:4696   */\n      0x00\n        /* \"#utility.yul\":4692:4693   */\n      dup1\n        /* \"#utility.yul\":4685:4697   */\n      revert\n        /* \"#utility.yul\":4636:4699   */\n    tag_155:\n        /* \"#utility.yul\":4583:4705   */\n      pop\n      jump\t// out\n        /* \"#utility.yul\":4711:4850   */\n    tag_80:\n        /* \"#utility.yul\":4757:4762   */\n      0x00\n        /* \"#utility.yul\":4795:4801   */\n      dup2\n        /* \"#utility.yul\":4782:4802   */\n      calldataload\n        /* \"#utility.yul\":4773:4802   */\n      swap1\n      pop\n        /* \"#utility.yul\":4811:4844   */\n      tag_157\n        /* \"#utility.yul\":4838:4843   */\n      dup2\n        /* \"#utility.yul\":4811:4844   */\n      tag_79\n      jump\t// in\n    tag_157:\n        /* \"#utility.yul\":4711:4850   */\n      swap3\n      swap2\n      pop\n      pop\n      jump\t// out\n        /* \"#utility.yul\":4856:5185   */\n    tag_20:\n        /* \"#utility.yul\":4915:4921   */\n      0x00\n        /* \"#utility.yul\":4964:4966   */\n      0x20\n        /* \"#utility.yul\":4952:4961   */\n      dup3\n        /* \"#utility.yul\":4943:4950   */\n      dup5\n        /* \"#utility.yul\":4939:4962   */\n      sub\n        /* \"#utility.yul\":4935:4967   */\n      slt\n        /* \"#utility.yul\":4932:5051   */\n      iszero\n      tag_159\n      jumpi\n        /* \"#utility.yul\":4970:5049   */\n      tag_160\n      tag_60\n      jump\t// in\n    tag_160:\n        /* \"#utility.yul\":4932:5051   */\n    tag_159:\n        /* \"#utility.yul\":5090:5091   */\n      0x00\n        /* \"#utility.yul\":5115:5168   */\n      tag_161\n        /* \"#utility.yul\":5160:5167   */\n      dup5\n        /* \"#utility.yul\":5151:5157   */\n      dup3\n        /* \"#utility.yul\":5140:5149   */\n      dup6\n        /* \"#utility.yul\":5136:5158   */\n      add\n        /* \"#utility.yul\":5115:5168   */\n      tag_80\n      jump\t// in\n    tag_161:\n        /* \"#utility.yul\":5105:5168   */\n      swap2\n      pop\n        /* \"#utility.yul\":5061:5178   */\n      pop\n        /* \"#utility.yul\":4856:5185   */\n      swap3\n      swap2\n      pop\n      pop\n      jump\t// out\n        /* \"#utility.yul\":5191:5309   */\n    tag_81:\n        /* \"#utility.yul\":5278:5302   */\n      tag_163\n        /* \"#utility.yul\":5296:5301   */\n      dup2\n        /* \"#utility.yul\":5278:5302   */\n      tag_78\n      jump\t// in\n    tag_163:\n        /* \"#utility.yul\":5273:5276   */\n      dup3\n        /* \"#utility.yul\":5266:5303   */\n      mstore\n        /* \"#utility.yul\":5191:5309   */\n      pop\n      pop\n      jump\t// out\n        /* \"#utility.yul\":5315:5647   */\n    tag_23:\n        /* \"#utility.yul\":5436:5440   */\n      0x00\n        /* \"#utility.yul\":5474:5476   */\n      0x40\n        /* \"#utility.yul\":5463:5472   */\n      dup3\n        /* \"#utility.yul\":5459:5477   */\n      add\n        /* \"#utility.yul\":5451:5477   */\n      swap1\n      pop\n        /* \"#utility.yul\":5487:5558   */\n      tag_165\n        /* \"#utility.yul\":5555:5556   */\n      0x00\n        /* \"#utility.yul\":5544:5553   */\n      dup4\n        /* \"#utility.yul\":5540:5557   */\n      add\n        /* \"#utility.yul\":5531:5537   */\n      dup6\n        /* \"#utility.yul\":5487:5558   */\n      tag_81\n      jump\t// in\n    tag_165:\n        /* \"#utility.yul\":5568:5640   */\n      tag_166\n        /* \"#utility.yul\":5636:5638   */\n      0x20\n        /* \"#utility.yul\":5625:5634   */\n      dup4\n        /* \"#utility.yul\":5621:5639   */\n      add\n        /* \"#utility.yul\":5612:5618   */\n      dup5\n        /* \"#utility.yul\":5568:5640   */\n      tag_81\n      jump\t// in\n    tag_166:\n        /* \"#utility.yul\":5315:5647   */\n      swap4\n      swap3\n      pop\n      pop\n      pop\n      jump\t// out\n        /* \"#utility.yul\":5653:5749   */\n    tag_82:\n        /* \"#utility.yul\":5690:5697   */\n      0x00\n        /* \"#utility.yul\":5719:5743   */\n      tag_168\n        /* \"#utility.yul\":5737:5742   */\n      dup3\n        /* \"#utility.yul\":5719:5743   */\n      tag_72\n      jump\t// in\n    tag_168:\n        /* \"#utility.yul\":5708:5743   */\n      swap1\n      pop\n        /* \"#utility.yul\":5653:5749   */\n      swap2\n      swap1\n      pop\n      jump\t// out\n        /* \"#utility.yul\":5755:5873   */\n    tag_83:\n        /* \"#utility.yul\":5842:5866   */\n      tag_170\n        /* \"#utility.yul\":5860:5865   */\n      dup2\n        /* \"#utility.yul\":5842:5866   */\n      tag_82\n      jump\t// in\n    tag_170:\n        /* \"#utility.yul\":5837:5840   */\n      dup3\n        /* \"#utility.yul\":5830:5867   */\n      mstore\n        /* \"#utility.yul\":5755:5873   */\n      pop\n      pop\n      jump\t// out\n        /* \"#utility.yul\":5879:6101   */\n    tag_28:\n        /* \"#utility.yul\":5972:5976   */\n      0x00\n        /* \"#utility.yul\":6010:6012   */\n      0x20\n        /* \"#utility.yul\":5999:6008   */\n      dup3\n        /* \"#utility.yul\":5995:6013   */\n      add\n        /* \"#utility.yul\":5987:6013   */\n      swap1\n      pop\n        /* \"#utility.yul\":6023:6094   */\n      tag_172\n        /* \"#utility.yul\":6091:6092   */\n      0x00\n        /* \"#utility.yul\":6080:6089   */\n      dup4\n        /* \"#utility.yul\":6076:6093   */\n      add\n        /* \"#utility.yul\":6067:6073   */\n      dup5\n        /* \"#utility.yul\":6023:6094   */\n      tag_83\n      jump\t// in\n    tag_172:\n        /* \"#utility.yul\":5879:6101   */\n      swap3\n      swap2\n      pop\n      pop\n      jump\t// out\n        /* \"#utility.yul\":6107:6206   */\n    tag_84:\n        /* \"#utility.yul\":6159:6165   */\n      0x00\n        /* \"#utility.yul\":6193:6198   */\n      dup2\n        /* \"#utility.yul\":6187:6199   */\n      mload\n        /* \"#utility.yul\":6177:6199   */\n      swap1\n      pop\n        /* \"#utility.yul\":6107:6206   */\n      swap2\n      swap1\n      pop\n      jump\t// out\n        /* \"#utility.yul\":6212:6381   */\n    tag_85:\n        /* \"#utility.yul\":6296:6307   */\n      0x00\n        /* \"#utility.yul\":6330:6336   */\n      dup3\n        /* \"#utility.yul\":6325:6328   */\n      dup3\n        /* \"#utility.yul\":6318:6337   */\n      mstore\n        /* \"#utility.yul\":6370:6374   */\n      0x20\n        /* \"#utility.yul\":6365:6368   */\n      dup3\n        /* \"#utility.yul\":6361:6375   */\n      add\n        /* \"#utility.yul\":6346:6375   */\n      swap1\n      pop\n        /* \"#utility.yul\":6212:6381   */\n      swap3\n      swap2\n      pop\n      pop\n      jump\t// out\n        /* \"#utility.yul\":6387:6526   */\n    tag_86:\n        /* \"#utility.yul\":6476:6482   */\n      dup3\n        /* \"#utility.yul\":6471:6474   */\n      dup2\n        /* \"#utility.yul\":6466:6469   */\n      dup4\n        /* \"#utility.yul\":6460:6483   */\n      mcopy\n        /* \"#utility.yul\":6517:6518   */\n      0x00\n        /* \"#utility.yul\":6508:6514   */\n      dup4\n        /* \"#utility.yul\":6503:6506   */\n      dup4\n        /* \"#utility.yul\":6499:6515   */\n      add\n        /* \"#utility.yul\":6492:6519   */\n      mstore\n        /* \"#utility.yul\":6387:6526   */\n      pop\n      pop\n      pop\n      jump\t// out\n        /* \"#utility.yul\":6532:6909   */\n    tag_87:\n        /* \"#utility.yul\":6620:6623   */\n      0x00\n        /* \"#utility.yul\":6648:6687   */\n      tag_177\n        /* \"#utility.yul\":6681:6686   */\n      dup3\n        /* \"#utility.yul\":6648:6687   */\n      tag_84\n      jump\t// in\n    tag_177:\n        /* \"#utility.yul\":6703:6774   */\n      tag_178\n        /* \"#utility.yul\":6767:6773   */\n      dup2\n        /* \"#utility.yul\":6762:6765   */\n      dup6\n        /* \"#utility.yul\":6703:6774   */\n      tag_85\n      jump\t// in\n    tag_178:\n        /* \"#utility.yul\":6696:6774   */\n      swap4\n      pop\n        /* \"#utility.yul\":6783:6848   */\n      tag_179\n        /* \"#utility.yul\":6841:6847   */\n      dup2\n        /* \"#utility.yul\":6836:6839   */\n      dup6\n        /* \"#utility.yul\":6829:6833   */\n      0x20\n        /* \"#utility.yul\":6822:6827   */\n      dup7\n        /* \"#utility.yul\":6818:6834   */\n      add\n        /* \"#utility.yul\":6783:6848   */\n      tag_86\n      jump\t// in\n    tag_179:\n        /* \"#utility.yul\":6873:6902   */\n      tag_180\n        /* \"#utility.yul\":6895:6901   */\n      dup2\n        /* \"#utility.yul\":6873:6902   */\n      tag_64\n      jump\t// in\n    tag_180:\n        /* \"#utility.yul\":6868:6871   */\n      dup5\n        /* \"#utility.yul\":6864:6903   */\n      add\n        /* \"#utility.yul\":6857:6903   */\n      swap2\n      pop\n        /* \"#utility.yul\":6624:6909   */\n      pop\n        /* \"#utility.yul\":6532:6909   */\n      swap3\n      swap2\n      pop\n      pop\n      jump\t// out\n        /* \"#utility.yul\":6915:7429   */\n    tag_34:\n        /* \"#utility.yul\":7076:7080   */\n      0x00\n        /* \"#utility.yul\":7114:7116   */\n      0x40\n        /* \"#utility.yul\":7103:7112   */\n      dup3\n        /* \"#utility.yul\":7099:7117   */\n      add\n        /* \"#utility.yul\":7091:7117   */\n      swap1\n      pop\n        /* \"#utility.yul\":7163:7172   */\n      dup2\n        /* \"#utility.yul\":7157:7161   */\n      dup2\n        /* \"#utility.yul\":7153:7173   */\n      sub\n        /* \"#utility.yul\":7149:7150   */\n      0x00\n        /* \"#utility.yul\":7138:7147   */\n      dup4\n        /* \"#utility.yul\":7134:7151   */\n      add\n        /* \"#utility.yul\":7127:7174   */\n      mstore\n        /* \"#utility.yul\":7191:7269   */\n      tag_182\n        /* \"#utility.yul\":7264:7268   */\n      dup2\n        /* \"#utility.yul\":7255:7261   */\n      dup6\n        /* \"#utility.yul\":7191:7269   */\n      tag_87\n      jump\t// in\n    tag_182:\n        /* \"#utility.yul\":7183:7269   */\n      swap1\n      pop\n        /* \"#utility.yul\":7316:7325   */\n      dup2\n        /* \"#utility.yul\":7310:7314   */\n      dup2\n        /* \"#utility.yul\":7306:7326   */\n      sub\n        /* \"#utility.yul\":7301:7303   */\n      0x20\n        /* \"#utility.yul\":7290:7299   */\n      dup4\n        /* \"#utility.yul\":7286:7304   */\n      add\n        /* \"#utility.yul\":7279:7327   */\n      mstore\n        /* \"#utility.yul\":7344:7422   */\n      tag_183\n        /* \"#utility.yul\":7417:7421   */\n      dup2\n        /* \"#utility.yul\":7408:7414   */\n      dup5\n        /* \"#utility.yul\":7344:7422   */\n      tag_87\n      jump\t// in\n    tag_183:\n        /* \"#utility.yul\":7336:7422   */\n      swap1\n      pop\n        /* \"#utility.yul\":6915:7429   */\n      swap4\n      swap3\n      pop\n      pop\n      pop\n      jump\t// out\n        /* \"#utility.yul\":7435:7672   */\n    tag_88:\n        /* \"#utility.yul\":7575:7609   */\n      0x596f75206e65656420746f2073656e6420736f6d6520657468657220746f2070\n        /* \"#utility.yul\":7571:7572   */\n      0x00\n        /* \"#utility.yul\":7563:7569   */\n      dup3\n        /* \"#utility.yul\":7559:7573   */\n      add\n        /* \"#utility.yul\":7552:7610   */\n      mstore\n        /* \"#utility.yul\":7644:7664   */\n      0x6572666f726d207468697320616374696f6e0000000000000000000000000000\n        /* \"#utility.yul\":7639:7641   */\n      0x20\n        /* \"#utility.yul\":7631:7637   */\n      dup3\n        /* \"#utility.yul\":7627:7642   */\n      add\n        /* \"#utility.yul\":7620:7665   */\n      mstore\n        /* \"#utility.yul\":7435:7672   */\n      pop\n      jump\t// out\n        /* \"#utility.yul\":7678:8044   */\n    tag_89:\n        /* \"#utility.yul\":7820:7823   */\n      0x00\n        /* \"#utility.yul\":7841:7908   */\n      tag_186\n        /* \"#utility.yul\":7905:7907   */\n      0x32\n        /* \"#utility.yul\":7900:7903   */\n      dup4\n        /* \"#utility.yul\":7841:7908   */\n      tag_85\n      jump\t// in\n    tag_186:\n        /* \"#utility.yul\":7834:7908   */\n      swap2\n      pop\n        /* \"#utility.yul\":7917:8010   */\n      tag_187\n        /* \"#utility.yul\":8006:8009   */\n      dup3\n        /* \"#utility.yul\":7917:8010   */\n      tag_88\n      jump\t// in\n    tag_187:\n        /* \"#utility.yul\":8035:8037   */\n      0x40\n        /* \"#utility.yul\":8030:8033   */\n      dup3\n        /* \"#utility.yul\":8026:8038   */\n      add\n        /* \"#utility.yul\":8019:8038   */\n      swap1\n      pop\n        /* \"#utility.yul\":7678:8044   */\n      swap2\n      swap1\n      pop\n      jump\t// out\n        /* \"#utility.yul\":8050:8469   */\n    tag_41:\n        /* \"#utility.yul\":8216:8220   */\n      0x00\n        /* \"#utility.yul\":8254:8256   */\n      0x20\n        /* \"#utility.yul\":8243:8252   */\n      dup3\n        /* \"#utility.yul\":8239:8257   */\n      add\n        /* \"#utility.yul\":8231:8257   */\n      swap1\n      pop\n        /* \"#utility.yul\":8303:8312   */\n      dup2\n        /* \"#utility.yul\":8297:8301   */\n      dup2\n        /* \"#utility.yul\":8293:8313   */\n      sub\n        /* \"#utility.yul\":8289:8290   */\n      0x00\n        /* \"#utility.yul\":8278:8287   */\n      dup4\n        /* \"#utility.yul\":8274:8291   */\n      add\n        /* \"#utility.yul\":8267:8314   */\n      mstore\n        /* \"#utility.yul\":8331:8462   */\n      tag_189\n        /* \"#utility.yul\":8457:8461   */\n      dup2\n        /* \"#utility.yul\":8331:8462   */\n      tag_89\n      jump\t// in\n    tag_189:\n        /* \"#utility.yul\":8323:8462   */\n      swap1\n      pop\n        /* \"#utility.yul\":8050:8469   */\n      swap2\n      swap1\n      pop\n      jump\t// out\n        /* \"#utility.yul\":8475:8697   */\n    tag_43:\n        /* \"#utility.yul\":8568:8572   */\n      0x00\n        /* \"#utility.yul\":8606:8608   */\n      0x20\n        /* \"#utility.yul\":8595:8604   */\n      dup3\n        /* \"#utility.yul\":8591:8609   */\n      add\n        /* \"#utility.yul\":8583:8609   */\n      swap1\n      pop\n        /* \"#utility.yul\":8619:8690   */\n      tag_191\n        /* \"#utility.yul\":8687:8688   */\n      0x00\n        /* \"#utility.yul\":8676:8685   */\n      dup4\n        /* \"#utility.yul\":8672:8689   */\n      add\n        /* \"#utility.yul\":8663:8669   */\n      dup5\n        /* \"#utility.yul\":8619:8690   */\n      tag_81\n      jump\t// in\n    tag_191:\n        /* \"#utility.yul\":8475:8697   */\n      swap3\n      swap2\n      pop\n      pop\n      jump\t// out\n        /* \"#utility.yul\":8703:8820   */\n    tag_90:\n        /* \"#utility.yul\":8812:8813   */\n      0x00\n        /* \"#utility.yul\":8809:8810   */\n      dup1\n        /* \"#utility.yul\":8802:8814   */\n      revert\n        /* \"#utility.yul\":8826:8943   */\n    tag_91:\n        /* \"#utility.yul\":8935:8936   */\n      0x00\n        /* \"#utility.yul\":8932:8933   */\n      dup1\n        /* \"#utility.yul\":8925:8937   */\n      revert\n        /* \"#utility.yul\":8949:9092   */\n    tag_92:\n        /* \"#utility.yul\":9006:9011   */\n      0x00\n        /* \"#utility.yul\":9037:9043   */\n      dup2\n        /* \"#utility.yul\":9031:9044   */\n      mload\n        /* \"#utility.yul\":9022:9044   */\n      swap1\n      pop\n        /* \"#utility.yul\":9053:9086   */\n      tag_195\n        /* \"#utility.yul\":9080:9085   */\n      dup2\n        /* \"#utility.yul\":9053:9086   */\n      tag_79\n      jump\t// in\n    tag_195:\n        /* \"#utility.yul\":8949:9092   */\n      swap3\n      swap2\n      pop\n      pop\n      jump\t// out\n        /* \"#utility.yul\":9098:9532   */\n    tag_93:\n        /* \"#utility.yul\":9187:9192   */\n      0x00\n        /* \"#utility.yul\":9212:9278   */\n      tag_197\n        /* \"#utility.yul\":9228:9277   */\n      tag_198\n        /* \"#utility.yul\":9270:9276   */\n      dup5\n        /* \"#utility.yul\":9228:9277   */\n      tag_68\n      jump\t// in\n    tag_198:\n        /* \"#utility.yul\":9212:9278   */\n      tag_67\n      jump\t// in\n    tag_197:\n        /* \"#utility.yul\":9203:9278   */\n      swap1\n      pop\n        /* \"#utility.yul\":9301:9307   */\n      dup3\n        /* \"#utility.yul\":9294:9299   */\n      dup2\n        /* \"#utility.yul\":9287:9308   */\n      mstore\n        /* \"#utility.yul\":9339:9343   */\n      0x20\n        /* \"#utility.yul\":9332:9337   */\n      dup2\n        /* \"#utility.yul\":9328:9344   */\n      add\n        /* \"#utility.yul\":9377:9380   */\n      dup5\n        /* \"#utility.yul\":9368:9374   */\n      dup5\n        /* \"#utility.yul\":9363:9366   */\n      dup5\n        /* \"#utility.yul\":9359:9375   */\n      add\n        /* \"#utility.yul\":9356:9381   */\n      gt\n        /* \"#utility.yul\":9353:9465   */\n      iszero\n      tag_199\n      jumpi\n        /* \"#utility.yul\":9384:9463   */\n      tag_200\n      tag_63\n      jump\t// in\n    tag_200:\n        /* \"#utility.yul\":9353:9465   */\n    tag_199:\n        /* \"#utility.yul\":9474:9526   */\n      tag_201\n        /* \"#utility.yul\":9519:9525   */\n      dup5\n        /* \"#utility.yul\":9514:9517   */\n      dup3\n        /* \"#utility.yul\":9509:9512   */\n      dup6\n        /* \"#utility.yul\":9474:9526   */\n      tag_86\n      jump\t// in\n    tag_201:\n        /* \"#utility.yul\":9193:9532   */\n      pop\n        /* \"#utility.yul\":9098:9532   */\n      swap4\n      swap3\n      pop\n      pop\n      pop\n      jump\t// out\n        /* \"#utility.yul\":9552:9907   */\n    tag_94:\n        /* \"#utility.yul\":9619:9624   */\n      0x00\n        /* \"#utility.yul\":9668:9671   */\n      dup3\n        /* \"#utility.yul\":9661:9665   */\n      0x1f\n        /* \"#utility.yul\":9653:9659   */\n      dup4\n        /* \"#utility.yul\":9649:9666   */\n      add\n        /* \"#utility.yul\":9645:9672   */\n      slt\n        /* \"#utility.yul\":9635:9757   */\n      tag_203\n      jumpi\n        /* \"#utility.yul\":9676:9755   */\n      tag_204\n      tag_62\n      jump\t// in\n    tag_204:\n        /* \"#utility.yul\":9635:9757   */\n    tag_203:\n        /* \"#utility.yul\":9786:9792   */\n      dup2\n        /* \"#utility.yul\":9780:9793   */\n      mload\n        /* \"#utility.yul\":9811:9901   */\n      tag_205\n        /* \"#utility.yul\":9897:9900   */\n      dup5\n        /* \"#utility.yul\":9889:9895   */\n      dup3\n        /* \"#utility.yul\":9882:9886   */\n      0x20\n        /* \"#utility.yul\":9874:9880   */\n      dup7\n        /* \"#utility.yul\":9870:9887   */\n      add\n        /* \"#utility.yul\":9811:9901   */\n      tag_93\n      jump\t// in\n    tag_205:\n        /* \"#utility.yul\":9802:9901   */\n      swap2\n      pop\n        /* \"#utility.yul\":9625:9907   */\n      pop\n        /* \"#utility.yul\":9552:9907   */\n      swap3\n      swap2\n      pop\n      pop\n      jump\t// out\n        /* \"#utility.yul\":9959:11252   */\n    tag_95:\n        /* \"#utility.yul\":10047:10052   */\n      0x00\n        /* \"#utility.yul\":10091:10095   */\n      0x80\n        /* \"#utility.yul\":10079:10088   */\n      dup3\n        /* \"#utility.yul\":10074:10077   */\n      dup5\n        /* \"#utility.yul\":10070:10089   */\n      sub\n        /* \"#utility.yul\":10066:10096   */\n      slt\n        /* \"#utility.yul\":10063:10180   */\n      iszero\n      tag_207\n      jumpi\n        /* \"#utility.yul\":10099:10178   */\n      tag_208\n      tag_90\n      jump\t// in\n    tag_208:\n        /* \"#utility.yul\":10063:10180   */\n    tag_207:\n        /* \"#utility.yul\":10198:10219   */\n      tag_209\n        /* \"#utility.yul\":10214:10218   */\n      0x80\n        /* \"#utility.yul\":10198:10219   */\n      tag_67\n      jump\t// in\n    tag_209:\n        /* \"#utility.yul\":10189:10219   */\n      swap1\n      pop\n        /* \"#utility.yul\":10276:10277   */\n      0x00\n        /* \"#utility.yul\":10316:10376   */\n      tag_210\n        /* \"#utility.yul\":10372:10375   */\n      dup5\n        /* \"#utility.yul\":10363:10369   */\n      dup3\n        /* \"#utility.yul\":10352:10361   */\n      dup6\n        /* \"#utility.yul\":10348:10370   */\n      add\n        /* \"#utility.yul\":10316:10376   */\n      tag_92\n      jump\t// in\n    tag_210:\n        /* \"#utility.yul\":10309:10313   */\n      0x00\n        /* \"#utility.yul\":10302:10307   */\n      dup4\n        /* \"#utility.yul\":10298:10314   */\n      add\n        /* \"#utility.yul\":10291:10377   */\n      mstore\n        /* \"#utility.yul\":10229:10388   */\n      pop\n        /* \"#utility.yul\":10468:10470   */\n      0x20\n        /* \"#utility.yul\":10457:10466   */\n      dup3\n        /* \"#utility.yul\":10453:10471   */\n      add\n        /* \"#utility.yul\":10447:10472   */\n      mload\n        /* \"#utility.yul\":10499:10517   */\n      0xffffffffffffffff\n        /* \"#utility.yul\":10491:10497   */\n      dup2\n        /* \"#utility.yul\":10488:10518   */\n      gt\n        /* \"#utility.yul\":10485:10602   */\n      iszero\n      tag_211\n      jumpi\n        /* \"#utility.yul\":10521:10600   */\n      tag_212\n      tag_91\n      jump\t// in\n    tag_212:\n        /* \"#utility.yul\":10485:10602   */\n    tag_211:\n        /* \"#utility.yul\":10641:10711   */\n      tag_213\n        /* \"#utility.yul\":10707:10710   */\n      dup5\n        /* \"#utility.yul\":10698:10704   */\n      dup3\n        /* \"#utility.yul\":10687:10696   */\n      dup6\n        /* \"#utility.yul\":10683:10705   */\n      add\n        /* \"#utility.yul\":10641:10711   */\n      tag_94\n      jump\t// in\n    tag_213:\n        /* \"#utility.yul\":10634:10638   */\n      0x20\n        /* \"#utility.yul\":10627:10632   */\n      dup4\n        /* \"#utility.yul\":10623:10639   */\n      add\n        /* \"#utility.yul\":10616:10712   */\n      mstore\n        /* \"#utility.yul\":10398:10723   */\n      pop\n        /* \"#utility.yul\":10810:10812   */\n      0x40\n        /* \"#utility.yul\":10799:10808   */\n      dup3\n        /* \"#utility.yul\":10795:10813   */\n      add\n        /* \"#utility.yul\":10789:10814   */\n      mload\n        /* \"#utility.yul\":10841:10859   */\n      0xffffffffffffffff\n        /* \"#utility.yul\":10833:10839   */\n      dup2\n        /* \"#utility.yul\":10830:10860   */\n      gt\n        /* \"#utility.yul\":10827:10944   */\n      iszero\n      tag_214\n      jumpi\n        /* \"#utility.yul\":10863:10942   */\n      tag_215\n      tag_91\n      jump\t// in\n    tag_215:\n        /* \"#utility.yul\":10827:10944   */\n    tag_214:\n        /* \"#utility.yul\":10983:11053   */\n      tag_216\n        /* \"#utility.yul\":11049:11052   */\n      dup5\n        /* \"#utility.yul\":11040:11046   */\n      dup3\n        /* \"#utility.yul\":11029:11038   */\n      dup6\n        /* \"#utility.yul\":11025:11047   */\n      add\n        /* \"#utility.yul\":10983:11053   */\n      tag_94\n      jump\t// in\n    tag_216:\n        /* \"#utility.yul\":10976:10980   */\n      0x40\n        /* \"#utility.yul\":10969:10974   */\n      dup4\n        /* \"#utility.yul\":10965:10981   */\n      add\n        /* \"#utility.yul\":10958:11054   */\n      mstore\n        /* \"#utility.yul\":10733:11065   */\n      pop\n        /* \"#utility.yul\":11132:11134   */\n      0x60\n        /* \"#utility.yul\":11173:11233   */\n      tag_217\n        /* \"#utility.yul\":11229:11232   */\n      dup5\n        /* \"#utility.yul\":11220:11226   */\n      dup3\n        /* \"#utility.yul\":11209:11218   */\n      dup6\n        /* \"#utility.yul\":11205:11227   */\n      add\n        /* \"#utility.yul\":11173:11233   */\n      tag_92\n      jump\t// in\n    tag_217:\n        /* \"#utility.yul\":11166:11170   */\n      0x60\n        /* \"#utility.yul\":11159:11164   */\n      dup4\n        /* \"#utility.yul\":11155:11171   */\n      add\n        /* \"#utility.yul\":11148:11234   */\n      mstore\n        /* \"#utility.yul\":11075:11245   */\n      pop\n        /* \"#utility.yul\":9959:11252   */\n      swap3\n      swap2\n      pop\n      pop\n      jump\t// out\n        /* \"#utility.yul\":11258:11818   */\n    tag_47:\n        /* \"#utility.yul\":11356:11362   */\n      0x00\n        /* \"#utility.yul\":11405:11407   */\n      0x20\n        /* \"#utility.yul\":11393:11402   */\n      dup3\n        /* \"#utility.yul\":11384:11391   */\n      dup5\n        /* \"#utility.yul\":11380:11403   */\n      sub\n        /* \"#utility.yul\":11376:11408   */\n      slt\n        /* \"#utility.yul\":11373:11492   */\n      iszero\n      tag_219\n      jumpi\n        /* \"#utility.yul\":11411:11490   */\n      tag_220\n      tag_60\n      jump\t// in\n    tag_220:\n        /* \"#utility.yul\":11373:11492   */\n    tag_219:\n        /* \"#utility.yul\":11552:11553   */\n      0x00\n        /* \"#utility.yul\":11541:11550   */\n      dup3\n        /* \"#utility.yul\":11537:11554   */\n      add\n        /* \"#utility.yul\":11531:11555   */\n      mload\n        /* \"#utility.yul\":11582:11600   */\n      0xffffffffffffffff\n        /* \"#utility.yul\":11574:11580   */\n      dup2\n        /* \"#utility.yul\":11571:11601   */\n      gt\n        /* \"#utility.yul\":11568:11685   */\n      iszero\n      tag_221\n      jumpi\n        /* \"#utility.yul\":11604:11683   */\n      tag_222\n      tag_61\n      jump\t// in\n    tag_222:\n        /* \"#utility.yul\":11568:11685   */\n    tag_221:\n        /* \"#utility.yul\":11709:11801   */\n      tag_223\n        /* \"#utility.yul\":11793:11800   */\n      dup5\n        /* \"#utility.yul\":11784:11790   */\n      dup3\n        /* \"#utility.yul\":11773:11782   */\n      dup6\n        /* \"#utility.yul\":11769:11791   */\n      add\n        /* \"#utility.yul\":11709:11801   */\n      tag_95\n      jump\t// in\n    tag_223:\n        /* \"#utility.yul\":11699:11801   */\n      swap2\n      pop\n        /* \"#utility.yul\":11502:11811   */\n      pop\n        /* \"#utility.yul\":11258:11818   */\n      swap3\n      swap2\n      pop\n      pop\n      jump\t// out\n        /* \"#utility.yul\":11824:12002   */\n    tag_96:\n        /* \"#utility.yul\":11964:11994   */\n      0x4f7267616e697a6174696f6e20646f6573206e6f742065786973742e00000000\n        /* \"#utility.yul\":11960:11961   */\n      0x00\n        /* \"#utility.yul\":11952:11958   */\n      dup3\n        /* \"#utility.yul\":11948:11962   */\n      add\n        /* \"#utility.yul\":11941:11995   */\n      mstore\n        /* \"#utility.yul\":11824:12002   */\n      pop\n      jump\t// out\n        /* \"#utility.yul\":12008:12374   */\n    tag_97:\n        /* \"#utility.yul\":12150:12153   */\n      0x00\n        /* \"#utility.yul\":12171:12238   */\n      tag_226\n        /* \"#utility.yul\":12235:12237   */\n      0x1c\n        /* \"#utility.yul\":12230:12233   */\n      dup4\n        /* \"#utility.yul\":12171:12238   */\n      tag_85\n      jump\t// in\n    tag_226:\n        /* \"#utility.yul\":12164:12238   */\n      swap2\n      pop\n        /* \"#utility.yul\":12247:12340   */\n      tag_227\n        /* \"#utility.yul\":12336:12339   */\n      dup3\n        /* \"#utility.yul\":12247:12340   */\n      tag_96\n      jump\t// in\n    tag_227:\n        /* \"#utility.yul\":12365:12367   */\n      0x20\n        /* \"#utility.yul\":12360:12363   */\n      dup3\n        /* \"#utility.yul\":12356:12368   */\n      add\n        /* \"#utility.yul\":12349:12368   */\n      swap1\n      pop\n        /* \"#utility.yul\":12008:12374   */\n      swap2\n      swap1\n      pop\n      jump\t// out\n        /* \"#utility.yul\":12380:12799   */\n    tag_50:\n        /* \"#utility.yul\":12546:12550   */\n      0x00\n        /* \"#utility.yul\":12584:12586   */\n      0x20\n        /* \"#utility.yul\":12573:12582   */\n      dup3\n        /* \"#utility.yul\":12569:12587   */\n      add\n        /* \"#utility.yul\":12561:12587   */\n      swap1\n      pop\n        /* \"#utility.yul\":12633:12642   */\n      dup2\n        /* \"#utility.yul\":12627:12631   */\n      dup2\n        /* \"#utility.yul\":12623:12643   */\n      sub\n        /* \"#utility.yul\":12619:12620   */\n      0x00\n        /* \"#utility.yul\":12608:12617   */\n      dup4\n        /* \"#utility.yul\":12604:12621   */\n      add\n        /* \"#utility.yul\":12597:12644   */\n      mstore\n        /* \"#utility.yul\":12661:12792   */\n      tag_229\n        /* \"#utility.yul\":12787:12791   */\n      dup2\n        /* \"#utility.yul\":12661:12792   */\n      tag_97\n      jump\t// in\n    tag_229:\n        /* \"#utility.yul\":12653:12792   */\n      swap1\n      pop\n        /* \"#utility.yul\":12380:12799   */\n      swap2\n      swap1\n      pop\n      jump\t// out\n        /* \"#utility.yul\":12805:12985   */\n    tag_98:\n        /* \"#utility.yul\":12853:12930   */\n      0x4e487b7100000000000000000000000000000000000000000000000000000000\n        /* \"#utility.yul\":12850:12851   */\n      0x00\n        /* \"#utility.yul\":12843:12931   */\n      mstore\n        /* \"#utility.yul\":12950:12954   */\n      0x11\n        /* \"#utility.yul\":12947:12948   */\n      0x04\n        /* \"#utility.yul\":12940:12955   */\n      mstore\n        /* \"#utility.yul\":12974:12978   */\n      0x24\n        /* \"#utility.yul\":12971:12972   */\n      0x00\n        /* \"#utility.yul\":12964:12979   */\n      revert\n        /* \"#utility.yul\":12991:13182   */\n    tag_52:\n        /* \"#utility.yul\":13031:13034   */\n      0x00\n        /* \"#utility.yul\":13050:13070   */\n      tag_232\n        /* \"#utility.yul\":13068:13069   */\n      dup3\n        /* \"#utility.yul\":13050:13070   */\n      tag_78\n      jump\t// in\n    tag_232:\n        /* \"#utility.yul\":13045:13070   */\n      swap2\n      pop\n        /* \"#utility.yul\":13084:13104   */\n      tag_233\n        /* \"#utility.yul\":13102:13103   */\n      dup4\n        /* \"#utility.yul\":13084:13104   */\n      tag_78\n      jump\t// in\n    tag_233:\n        /* \"#utility.yul\":13079:13104   */\n      swap3\n      pop\n        /* \"#utility.yul\":13127:13128   */\n      dup3\n        /* \"#utility.yul\":13124:13125   */\n      dup3\n        /* \"#utility.yul\":13120:13129   */\n      add\n        /* \"#utility.yul\":13113:13129   */\n      swap1\n      pop\n        /* \"#utility.yul\":13148:13151   */\n      dup1\n        /* \"#utility.yul\":13145:13146   */\n      dup3\n        /* \"#utility.yul\":13142:13152   */\n      gt\n        /* \"#utility.yul\":13139:13175   */\n      iszero\n      tag_234\n      jumpi\n        /* \"#utility.yul\":13155:13173   */\n      tag_235\n      tag_98\n      jump\t// in\n    tag_235:\n        /* \"#utility.yul\":13139:13175   */\n    tag_234:\n        /* \"#utility.yul\":12991:13182   */\n      swap3\n      swap2\n      pop\n      pop\n      jump\t// out\n\n    auxdata: 0xa26469706673582212203d78ce661d16c24c1a526a8db91d2265d75307bd6da785a3b2371690db79a12a64736f6c63430008190033\n}\n",
				"bytecode": {
					"linkReferences": {},
					"object": "608060405234801561000f575f80fd5b50604051610c95380380610c9583398181016040528101906100319190610125565b335f806101000a81548173ffffffffffffffffffffffffffffffffffffffff021916908373ffffffffffffffffffffffffffffffffffffffff1602179055508060015f6101000a81548173ffffffffffffffffffffffffffffffffffffffff021916908373ffffffffffffffffffffffffffffffffffffffff16021790555050610150565b5f80fd5b5f73ffffffffffffffffffffffffffffffffffffffff82169050919050565b5f6100e3826100ba565b9050919050565b5f6100f4826100d9565b9050919050565b610104816100ea565b811461010e575f80fd5b50565b5f8151905061011f816100fb565b92915050565b5f6020828403121561013a576101396100b6565b5b5f61014784828501610111565b91505092915050565b610b388061015d5f395ff3fe608060405260043610610049575f3560e01c80631614e6681461004d5780631f9f0d9a146100755780634abfa1631461009f5780638da5cb5b146100dc578063f14faf6f14610106575b5f80fd5b348015610058575f80fd5b50610073600480360381019061006e91906105aa565b610122565b005b348015610080575f80fd5b506100896101af565b604051610096919061069a565b60405180910390f35b3480156100aa575f80fd5b506100c560048036038101906100c091906106e6565b6101d4565b6040516100d3929190610720565b60405180910390f35b3480156100e7575f80fd5b506100f06101f4565b6040516100fd9190610767565b60405180910390f35b610120600480360381019061011b91906106e6565b610217565b005b60015f9054906101000a900473ffffffffffffffffffffffffffffffffffffffff1673ffffffffffffffffffffffffffffffffffffffff1663a411ef2083836040518363ffffffff1660e01b815260040161017e9291906107e0565b5f604051808303815f87803b158015610195575f80fd5b505af11580156101a7573d5f803e3d5ffd5b505050505050565b60015f9054906101000a900473ffffffffffffffffffffffffffffffffffffffff1681565b6002602052805f5260405f205f91509050805f0154908060010154905082565b5f8054906101000a900473ffffffffffffffffffffffffffffffffffffffff1681565b5f3411610259576040517f08c379a000000000000000000000000000000000000000000000000000000000815260040161025090610885565b60405180910390fd5b5f60015f9054906101000a900473ffffffffffffffffffffffffffffffffffffffff1673ffffffffffffffffffffffffffffffffffffffff166379bb57b4836040518263ffffffff1660e01b81526004016102b491906108a3565b5f60405180830381865afa1580156102ce573d5f803e3d5ffd5b505050506040513d5f823e3d601f19601f820116820180604052508101906102f691906109f3565b5f015103610339576040517f08c379a000000000000000000000000000000000000000000000000000000000815260040161033090610a84565b60405180910390fd5b5f60025f3373ffffffffffffffffffffffffffffffffffffffff1681526020019081526020015f20905034815f015f8282546103759190610acf565b925050819055506001816001015f8282546103909190610acf565b9250508190555060015f9054906101000a900473ffffffffffffffffffffffffffffffffffffffff1673ffffffffffffffffffffffffffffffffffffffff1663a9ea423883346040518363ffffffff1660e01b81526004016103f3929190610720565b5f604051808303815f87803b15801561040a575f80fd5b505af115801561041c573d5f803e3d5ffd5b505050507f7f33cc4ff9ec616b18266ccfe9acb607a1f8b1fb7e411b9a9b9dc03df1fb548a8234604051610451929190610720565b60405180910390a15050565b5f604051905090565b5f80fd5b5f80fd5b5f80fd5b5f80fd5b5f601f19601f8301169050919050565b7f4e487b71000000000000000000000000000000000000000000000000000000005f52604160045260245ffd5b6104bc82610476565b810181811067ffffffffffffffff821117156104db576104da610486565b5b80604052505050565b5f6104ed61045d565b90506104f982826104b3565b919050565b5f67ffffffffffffffff82111561051857610517610486565b5b61052182610476565b9050602081019050919050565b828183375f83830152505050565b5f61054e610549846104fe565b6104e4565b90508281526020810184848401111561056a57610569610472565b5b61057584828561052e565b509392505050565b5f82601f8301126105915761059061046e565b5b81356105a184826020860161053c565b91505092915050565b5f80604083850312156105c0576105bf610466565b5b5f83013567ffffffffffffffff8111156105dd576105dc61046a565b5b6105e98582860161057d565b925050602083013567ffffffffffffffff81111561060a5761060961046a565b5b6106168582860161057d565b9150509250929050565b5f73ffffffffffffffffffffffffffffffffffffffff82169050919050565b5f819050919050565b5f61066261065d61065884610620565b61063f565b610620565b9050919050565b5f61067382610648565b9050919050565b5f61068482610669565b9050919050565b6106948161067a565b82525050565b5f6020820190506106ad5f83018461068b565b92915050565b5f819050919050565b6106c5816106b3565b81146106cf575f80fd5b50565b5f813590506106e0816106bc565b92915050565b5f602082840312156106fb576106fa610466565b5b5f610708848285016106d2565b91505092915050565b61071a816106b3565b82525050565b5f6040820190506107335f830185610711565b6107406020830184610711565b9392505050565b5f61075182610620565b9050919050565b61076181610747565b82525050565b5f60208201905061077a5f830184610758565b92915050565b5f81519050919050565b5f82825260208201905092915050565b8281835e5f83830152505050565b5f6107b282610780565b6107bc818561078a565b93506107cc81856020860161079a565b6107d581610476565b840191505092915050565b5f6040820190508181035f8301526107f881856107a8565b9050818103602083015261080c81846107a8565b90509392505050565b7f596f75206e65656420746f2073656e6420736f6d6520657468657220746f20705f8201527f6572666f726d207468697320616374696f6e0000000000000000000000000000602082015250565b5f61086f60328361078a565b915061087a82610815565b604082019050919050565b5f6020820190508181035f83015261089c81610863565b9050919050565b5f6020820190506108b65f830184610711565b92915050565b5f80fd5b5f80fd5b5f815190506108d2816106bc565b92915050565b5f6108ea6108e5846104fe565b6104e4565b90508281526020810184848401111561090657610905610472565b5b61091184828561079a565b509392505050565b5f82601f83011261092d5761092c61046e565b5b815161093d8482602086016108d8565b91505092915050565b5f6080828403121561095b5761095a6108bc565b5b61096560806104e4565b90505f610974848285016108c4565b5f83015250602082015167ffffffffffffffff811115610997576109966108c0565b5b6109a384828501610919565b602083015250604082015167ffffffffffffffff8111156109c7576109c66108c0565b5b6109d384828501610919565b60408301525060606109e7848285016108c4565b60608301525092915050565b5f60208284031215610a0857610a07610466565b5b5f82015167ffffffffffffffff811115610a2557610a2461046a565b5b610a3184828501610946565b91505092915050565b7f4f7267616e697a6174696f6e20646f6573206e6f742065786973742e000000005f82015250565b5f610a6e601c8361078a565b9150610a7982610a3a565b602082019050919050565b5f6020820190508181035f830152610a9b81610a62565b9050919050565b7f4e487b71000000000000000000000000000000000000000000000000000000005f52601160045260245ffd5b5f610ad9826106b3565b9150610ae4836106b3565b9250828201905080821115610afc57610afb610aa2565b5b9291505056fea26469706673582212203d78ce661d16c24c1a526a8db91d2265d75307bd6da785a3b2371690db79a12a64736f6c63430008190033",
					"opcodes": "PUSH1 0x80 PUSH1 0x40 MSTORE CALLVALUE DUP1 ISZERO PUSH2 0xF JUMPI PUSH0 DUP1 REVERT JUMPDEST POP PUSH1 0x40 MLOAD PUSH2 0xC95 CODESIZE SUB DUP1 PUSH2 0xC95 DUP4 CODECOPY DUP2 DUP2 ADD PUSH1 0x40 MSTORE DUP2 ADD SWAP1 PUSH2 0x31 SWAP2 SWAP1 PUSH2 0x125 JUMP JUMPDEST CALLER PUSH0 DUP1 PUSH2 0x100 EXP DUP2 SLOAD DUP2 PUSH20 0xFFFFFFFFFFFFFFFFFFFFFFFFFFFFFFFFFFFFFFFF MUL NOT AND SWAP1 DUP4 PUSH20 0xFFFFFFFFFFFFFFFFFFFFFFFFFFFFFFFFFFFFFFFF AND MUL OR SWAP1 SSTORE POP DUP1 PUSH1 0x1 PUSH0 PUSH2 0x100 EXP DUP2 SLOAD DUP2 PUSH20 0xFFFFFFFFFFFFFFFFFFFFFFFFFFFFFFFFFFFFFFFF MUL NOT AND SWAP1 DUP4 PUSH20 0xFFFFFFFFFFFFFFFFFFFFFFFFFFFFFFFFFFFFFFFF AND MUL OR SWAP1 SSTORE POP POP PUSH2 0x150 JUMP JUMPDEST PUSH0 DUP1 REVERT JUMPDEST PUSH0 PUSH20 0xFFFFFFFFFFFFFFFFFFFFFFFFFFFFFFFFFFFFFFFF DUP3 AND SWAP1 POP SWAP2 SWAP1 POP JUMP JUMPDEST PUSH0 PUSH2 0xE3 DUP3 PUSH2 0xBA JUMP JUMPDEST SWAP1 POP SWAP2 SWAP1 POP JUMP JUMPDEST PUSH0 PUSH2 0xF4 DUP3 PUSH2 0xD9 JUMP JUMPDEST SWAP1 POP SWAP2 SWAP1 POP JUMP JUMPDEST PUSH2 0x104 DUP2 PUSH2 0xEA JUMP JUMPDEST DUP2 EQ PUSH2 0x10E JUMPI PUSH0 DUP1 REVERT JUMPDEST POP JUMP JUMPDEST PUSH0 DUP2 MLOAD SWAP1 POP PUSH2 0x11F DUP2 PUSH2 0xFB JUMP JUMPDEST SWAP3 SWAP2 POP POP JUMP JUMPDEST PUSH0 PUSH1 0x20 DUP3 DUP5 SUB SLT ISZERO PUSH2 0x13A JUMPI PUSH2 0x139 PUSH2 0xB6 JUMP JUMPDEST JUMPDEST PUSH0 PUSH2 0x147 DUP5 DUP3 DUP6 ADD PUSH2 0x111 JUMP JUMPDEST SWAP2 POP POP SWAP3 SWAP2 POP POP JUMP JUMPDEST PUSH2 0xB38 DUP1 PUSH2 0x15D PUSH0 CODECOPY PUSH0 RETURN INVALID PUSH1 0x80 PUSH1 0x40 MSTORE PUSH1 0x4 CALLDATASIZE LT PUSH2 0x49 JUMPI PUSH0 CALLDATALOAD PUSH1 0xE0 SHR DUP1 PUSH4 0x1614E668 EQ PUSH2 0x4D JUMPI DUP1 PUSH4 0x1F9F0D9A EQ PUSH2 0x75 JUMPI DUP1 PUSH4 0x4ABFA163 EQ PUSH2 0x9F JUMPI DUP1 PUSH4 0x8DA5CB5B EQ PUSH2 0xDC JUMPI DUP1 PUSH4 0xF14FAF6F EQ PUSH2 0x106 JUMPI JUMPDEST PUSH0 DUP1 REVERT JUMPDEST CALLVALUE DUP1 ISZERO PUSH2 0x58 JUMPI PUSH0 DUP1 REVERT JUMPDEST POP PUSH2 0x73 PUSH1 0x4 DUP1 CALLDATASIZE SUB DUP2 ADD SWAP1 PUSH2 0x6E SWAP2 SWAP1 PUSH2 0x5AA JUMP JUMPDEST PUSH2 0x122 JUMP JUMPDEST STOP JUMPDEST CALLVALUE DUP1 ISZERO PUSH2 0x80 JUMPI PUSH0 DUP1 REVERT JUMPDEST POP PUSH2 0x89 PUSH2 0x1AF JUMP JUMPDEST PUSH1 0x40 MLOAD PUSH2 0x96 SWAP2 SWAP1 PUSH2 0x69A JUMP JUMPDEST PUSH1 0x40 MLOAD DUP1 SWAP2 SUB SWAP1 RETURN JUMPDEST CALLVALUE DUP1 ISZERO PUSH2 0xAA JUMPI PUSH0 DUP1 REVERT JUMPDEST POP PUSH2 0xC5 PUSH1 0x4 DUP1 CALLDATASIZE SUB DUP2 ADD SWAP1 PUSH2 0xC0 SWAP2 SWAP1 PUSH2 0x6E6 JUMP JUMPDEST PUSH2 0x1D4 JUMP JUMPDEST PUSH1 0x40 MLOAD PUSH2 0xD3 SWAP3 SWAP2 SWAP1 PUSH2 0x720 JUMP JUMPDEST PUSH1 0x40 MLOAD DUP1 SWAP2 SUB SWAP1 RETURN JUMPDEST CALLVALUE DUP1 ISZERO PUSH2 0xE7 JUMPI PUSH0 DUP1 REVERT JUMPDEST POP PUSH2 0xF0 PUSH2 0x1F4 JUMP JUMPDEST PUSH1 0x40 MLOAD PUSH2 0xFD SWAP2 SWAP1 PUSH2 0x767 JUMP JUMPDEST PUSH1 0x40 MLOAD DUP1 SWAP2 SUB SWAP1 RETURN JUMPDEST PUSH2 0x120 PUSH1 0x4 DUP1 CALLDATASIZE SUB DUP2 ADD SWAP1 PUSH2 0x11B SWAP2 SWAP1 PUSH2 0x6E6 JUMP JUMPDEST PUSH2 0x217 JUMP JUMPDEST STOP JUMPDEST PUSH1 0x1 PUSH0 SWAP1 SLOAD SWAP1 PUSH2 0x100 EXP SWAP1 DIV PUSH20 0xFFFFFFFFFFFFFFFFFFFFFFFFFFFFFFFFFFFFFFFF AND PUSH20 0xFFFFFFFFFFFFFFFFFFFFFFFFFFFFFFFFFFFFFFFF AND PUSH4 0xA411EF20 DUP4 DUP4 PUSH1 0x40 MLOAD DUP4 PUSH4 0xFFFFFFFF AND PUSH1 0xE0 SHL DUP2 MSTORE PUSH1 0x4 ADD PUSH2 0x17E SWAP3 SWAP2 SWAP1 PUSH2 0x7E0 JUMP JUMPDEST PUSH0 PUSH1 0x40 MLOAD DUP1 DUP4 SUB DUP2 PUSH0 DUP8 DUP1 EXTCODESIZE ISZERO DUP1 ISZERO PUSH2 0x195 JUMPI PUSH0 DUP1 REVERT JUMPDEST POP GAS CALL ISZERO DUP1 ISZERO PUSH2 0x1A7 JUMPI RETURNDATASIZE PUSH0 DUP1 RETURNDATACOPY RETURNDATASIZE PUSH0 REVERT JUMPDEST POP POP POP POP POP POP JUMP JUMPDEST PUSH1 0x1 PUSH0 SWAP1 SLOAD SWAP1 PUSH2 0x100 EXP SWAP1 DIV PUSH20 0xFFFFFFFFFFFFFFFFFFFFFFFFFFFFFFFFFFFFFFFF AND DUP2 JUMP JUMPDEST PUSH1 0x2 PUSH1 0x20 MSTORE DUP1 PUSH0 MSTORE PUSH1 0x40 PUSH0 KECCAK256 PUSH0 SWAP2 POP SWAP1 POP DUP1 PUSH0 ADD SLOAD SWAP1 DUP1 PUSH1 0x1 ADD SLOAD SWAP1 POP DUP3 JUMP JUMPDEST PUSH0 DUP1 SLOAD SWAP1 PUSH2 0x100 EXP SWAP1 DIV PUSH20 0xFFFFFFFFFFFFFFFFFFFFFFFFFFFFFFFFFFFFFFFF AND DUP2 JUMP JUMPDEST PUSH0 CALLVALUE GT PUSH2 0x259 JUMPI PUSH1 0x40 MLOAD PUSH32 0x8C379A000000000000000000000000000000000000000000000000000000000 DUP2 MSTORE PUSH1 0x4 ADD PUSH2 0x250 SWAP1 PUSH2 0x885 JUMP JUMPDEST PUSH1 0x40 MLOAD DUP1 SWAP2 SUB SWAP1 REVERT JUMPDEST PUSH0 PUSH1 0x1 PUSH0 SWAP1 SLOAD SWAP1 PUSH2 0x100 EXP SWAP1 DIV PUSH20 0xFFFFFFFFFFFFFFFFFFFFFFFFFFFFFFFFFFFFFFFF AND PUSH20 0xFFFFFFFFFFFFFFFFFFFFFFFFFFFFFFFFFFFFFFFF AND PUSH4 0x79BB57B4 DUP4 PUSH1 0x40 MLOAD DUP3 PUSH4 0xFFFFFFFF AND PUSH1 0xE0 SHL DUP2 MSTORE PUSH1 0x4 ADD PUSH2 0x2B4 SWAP2 SWAP1 PUSH2 0x8A3 JUMP JUMPDEST PUSH0 PUSH1 0x40 MLOAD DUP1 DUP4 SUB DUP2 DUP7 GAS STATICCALL ISZERO DUP1 ISZERO PUSH2 0x2CE JUMPI RETURNDATASIZE PUSH0 DUP1 RETURNDATACOPY RETURNDATASIZE PUSH0 REVERT JUMPDEST POP POP POP POP PUSH1 0x40 MLOAD RETURNDATASIZE PUSH0 DUP3 RETURNDATACOPY RETURNDATASIZE PUSH1 0x1F NOT PUSH1 0x1F DUP3 ADD AND DUP3 ADD DUP1 PUSH1 0x40 MSTORE POP DUP2 ADD SWAP1 PUSH2 0x2F6 SWAP2 SWAP1 PUSH2 0x9F3 JUMP JUMPDEST PUSH0 ADD MLOAD SUB PUSH2 0x339 JUMPI PUSH1 0x40 MLOAD PUSH32 0x8C379A000000000000000000000000000000000000000000000000000000000 DUP2 MSTORE PUSH1 0x4 ADD PUSH2 0x330 SWAP1 PUSH2 0xA84 JUMP JUMPDEST PUSH1 0x40 MLOAD DUP1 SWAP2 SUB SWAP1 REVERT JUMPDEST PUSH0 PUSH1 0x2 PUSH0 CALLER PUSH20 0xFFFFFFFFFFFFFFFFFFFFFFFFFFFFFFFFFFFFFFFF AND DUP2 MSTORE PUSH1 0x20 ADD SWAP1 DUP2 MSTORE PUSH1 0x20 ADD PUSH0 KECCAK256 SWAP1 POP CALLVALUE DUP2 PUSH0 ADD PUSH0 DUP3 DUP3 SLOAD PUSH2 0x375 SWAP2 SWAP1 PUSH2 0xACF JUMP JUMPDEST SWAP3 POP POP DUP2 SWAP1 SSTORE POP PUSH1 0x1 DUP2 PUSH1 0x1 ADD PUSH0 DUP3 DUP3 SLOAD PUSH2 0x390 SWAP2 SWAP1 PUSH2 0xACF JUMP JUMPDEST SWAP3 POP POP DUP2 SWAP1 SSTORE POP PUSH1 0x1 PUSH0 SWAP1 SLOAD SWAP1 PUSH2 0x100 EXP SWAP1 DIV PUSH20 0xFFFFFFFFFFFFFFFFFFFFFFFFFFFFFFFFFFFFFFFF AND PUSH20 0xFFFFFFFFFFFFFFFFFFFFFFFFFFFFFFFFFFFFFFFF AND PUSH4 0xA9EA4238 DUP4 CALLVALUE PUSH1 0x40 MLOAD DUP4 PUSH4 0xFFFFFFFF AND PUSH1 0xE0 SHL DUP2 MSTORE PUSH1 0x4 ADD PUSH2 0x3F3 SWAP3 SWAP2 SWAP1 PUSH2 0x720 JUMP JUMPDEST PUSH0 PUSH1 0x40 MLOAD DUP1 DUP4 SUB DUP2 PUSH0 DUP8 DUP1 EXTCODESIZE ISZERO DUP1 ISZERO PUSH2 0x40A JUMPI PUSH0 DUP1 REVERT JUMPDEST POP GAS CALL ISZERO DUP1 ISZERO PUSH2 0x41C JUMPI RETURNDATASIZE PUSH0 DUP1 RETURNDATACOPY RETURNDATASIZE PUSH0 REVERT JUMPDEST POP POP POP POP PUSH32 0x7F33CC4FF9EC616B18266CCFE9ACB607A1F8B1FB7E411B9A9B9DC03DF1FB548A DUP3 CALLVALUE PUSH1 0x40 MLOAD PUSH2 0x451 SWAP3 SWAP2 SWAP1 PUSH2 0x720 JUMP JUMPDEST PUSH1 0x40 MLOAD DUP1 SWAP2 SUB SWAP1 LOG1 POP POP JUMP JUMPDEST PUSH0 PUSH1 0x40 MLOAD SWAP1 POP SWAP1 JUMP JUMPDEST PUSH0 DUP1 REVERT JUMPDEST PUSH0 DUP1 REVERT JUMPDEST PUSH0 DUP1 REVERT JUMPDEST PUSH0 DUP1 REVERT JUMPDEST PUSH0 PUSH1 0x1F NOT PUSH1 0x1F DUP4 ADD AND SWAP1 POP SWAP2 SWAP1 POP JUMP JUMPDEST PUSH32 0x4E487B7100000000000000000000000000000000000000000000000000000000 PUSH0 MSTORE PUSH1 0x41 PUSH1 0x4 MSTORE PUSH1 0x24 PUSH0 REVERT JUMPDEST PUSH2 0x4BC DUP3 PUSH2 0x476 JUMP JUMPDEST DUP2 ADD DUP2 DUP2 LT PUSH8 0xFFFFFFFFFFFFFFFF DUP3 GT OR ISZERO PUSH2 0x4DB JUMPI PUSH2 0x4DA PUSH2 0x486 JUMP JUMPDEST JUMPDEST DUP1 PUSH1 0x40 MSTORE POP POP POP JUMP JUMPDEST PUSH0 PUSH2 0x4ED PUSH2 0x45D JUMP JUMPDEST SWAP1 POP PUSH2 0x4F9 DUP3 DUP3 PUSH2 0x4B3 JUMP JUMPDEST SWAP2 SWAP1 POP JUMP JUMPDEST PUSH0 PUSH8 0xFFFFFFFFFFFFFFFF DUP3 GT ISZERO PUSH2 0x518 JUMPI PUSH2 0x517 PUSH2 0x486 JUMP JUMPDEST JUMPDEST PUSH2 0x521 DUP3 PUSH2 0x476 JUMP JUMPDEST SWAP1 POP PUSH1 0x20 DUP2 ADD SWAP1 POP SWAP2 SWAP1 POP JUMP JUMPDEST DUP3 DUP2 DUP4 CALLDATACOPY PUSH0 DUP4 DUP4 ADD MSTORE POP POP POP JUMP JUMPDEST PUSH0 PUSH2 0x54E PUSH2 0x549 DUP5 PUSH2 0x4FE JUMP JUMPDEST PUSH2 0x4E4 JUMP JUMPDEST SWAP1 POP DUP3 DUP2 MSTORE PUSH1 0x20 DUP2 ADD DUP5 DUP5 DUP5 ADD GT ISZERO PUSH2 0x56A JUMPI PUSH2 0x569 PUSH2 0x472 JUMP JUMPDEST JUMPDEST PUSH2 0x575 DUP5 DUP3 DUP6 PUSH2 0x52E JUMP JUMPDEST POP SWAP4 SWAP3 POP POP POP JUMP JUMPDEST PUSH0 DUP3 PUSH1 0x1F DUP4 ADD SLT PUSH2 0x591 JUMPI PUSH2 0x590 PUSH2 0x46E JUMP JUMPDEST JUMPDEST DUP2 CALLDATALOAD PUSH2 0x5A1 DUP5 DUP3 PUSH1 0x20 DUP7 ADD PUSH2 0x53C JUMP JUMPDEST SWAP2 POP POP SWAP3 SWAP2 POP POP JUMP JUMPDEST PUSH0 DUP1 PUSH1 0x40 DUP4 DUP6 SUB SLT ISZERO PUSH2 0x5C0 JUMPI PUSH2 0x5BF PUSH2 0x466 JUMP JUMPDEST JUMPDEST PUSH0 DUP4 ADD CALLDATALOAD PUSH8 0xFFFFFFFFFFFFFFFF DUP2 GT ISZERO PUSH2 0x5DD JUMPI PUSH2 0x5DC PUSH2 0x46A JUMP JUMPDEST JUMPDEST PUSH2 0x5E9 DUP6 DUP3 DUP7 ADD PUSH2 0x57D JUMP JUMPDEST SWAP3 POP POP PUSH1 0x20 DUP4 ADD CALLDATALOAD PUSH8 0xFFFFFFFFFFFFFFFF DUP2 GT ISZERO PUSH2 0x60A JUMPI PUSH2 0x609 PUSH2 0x46A JUMP JUMPDEST JUMPDEST PUSH2 0x616 DUP6 DUP3 DUP7 ADD PUSH2 0x57D JUMP JUMPDEST SWAP2 POP POP SWAP3 POP SWAP3 SWAP1 POP JUMP JUMPDEST PUSH0 PUSH20 0xFFFFFFFFFFFFFFFFFFFFFFFFFFFFFFFFFFFFFFFF DUP3 AND SWAP1 POP SWAP2 SWAP1 POP JUMP JUMPDEST PUSH0 DUP2 SWAP1 POP SWAP2 SWAP1 POP JUMP JUMPDEST PUSH0 PUSH2 0x662 PUSH2 0x65D PUSH2 0x658 DUP5 PUSH2 0x620 JUMP JUMPDEST PUSH2 0x63F JUMP JUMPDEST PUSH2 0x620 JUMP JUMPDEST SWAP1 POP SWAP2 SWAP1 POP JUMP JUMPDEST PUSH0 PUSH2 0x673 DUP3 PUSH2 0x648 JUMP JUMPDEST SWAP1 POP SWAP2 SWAP1 POP JUMP JUMPDEST PUSH0 PUSH2 0x684 DUP3 PUSH2 0x669 JUMP JUMPDEST SWAP1 POP SWAP2 SWAP1 POP JUMP JUMPDEST PUSH2 0x694 DUP2 PUSH2 0x67A JUMP JUMPDEST DUP3 MSTORE POP POP JUMP JUMPDEST PUSH0 PUSH1 0x20 DUP3 ADD SWAP1 POP PUSH2 0x6AD PUSH0 DUP4 ADD DUP5 PUSH2 0x68B JUMP JUMPDEST SWAP3 SWAP2 POP POP JUMP JUMPDEST PUSH0 DUP2 SWAP1 POP SWAP2 SWAP1 POP JUMP JUMPDEST PUSH2 0x6C5 DUP2 PUSH2 0x6B3 JUMP JUMPDEST DUP2 EQ PUSH2 0x6CF JUMPI PUSH0 DUP1 REVERT JUMPDEST POP JUMP JUMPDEST PUSH0 DUP2 CALLDATALOAD SWAP1 POP PUSH2 0x6E0 DUP2 PUSH2 0x6BC JUMP JUMPDEST SWAP3 SWAP2 POP POP JUMP JUMPDEST PUSH0 PUSH1 0x20 DUP3 DUP5 SUB SLT ISZERO PUSH2 0x6FB JUMPI PUSH2 0x6FA PUSH2 0x466 JUMP JUMPDEST JUMPDEST PUSH0 PUSH2 0x708 DUP5 DUP3 DUP6 ADD PUSH2 0x6D2 JUMP JUMPDEST SWAP2 POP POP SWAP3 SWAP2 POP POP JUMP JUMPDEST PUSH2 0x71A DUP2 PUSH2 0x6B3 JUMP JUMPDEST DUP3 MSTORE POP POP JUMP JUMPDEST PUSH0 PUSH1 0x40 DUP3 ADD SWAP1 POP PUSH2 0x733 PUSH0 DUP4 ADD DUP6 PUSH2 0x711 JUMP JUMPDEST PUSH2 0x740 PUSH1 0x20 DUP4 ADD DUP5 PUSH2 0x711 JUMP JUMPDEST SWAP4 SWAP3 POP POP POP JUMP JUMPDEST PUSH0 PUSH2 0x751 DUP3 PUSH2 0x620 JUMP JUMPDEST SWAP1 POP SWAP2 SWAP1 POP JUMP JUMPDEST PUSH2 0x761 DUP2 PUSH2 0x747 JUMP JUMPDEST DUP3 MSTORE POP POP JUMP JUMPDEST PUSH0 PUSH1 0x20 DUP3 ADD SWAP1 POP PUSH2 0x77A PUSH0 DUP4 ADD DUP5 PUSH2 0x758 JUMP JUMPDEST SWAP3 SWAP2 POP POP JUMP JUMPDEST PUSH0 DUP2 MLOAD SWAP1 POP SWAP2 SWAP1 POP JUMP JUMPDEST PUSH0 DUP3 DUP3 MSTORE PUSH1 0x20 DUP3 ADD SWAP1 POP SWAP3 SWAP2 POP POP JUMP JUMPDEST DUP3 DUP2 DUP4 MCOPY PUSH0 DUP4 DUP4 ADD MSTORE POP POP POP JUMP JUMPDEST PUSH0 PUSH2 0x7B2 DUP3 PUSH2 0x780 JUMP JUMPDEST PUSH2 0x7BC DUP2 DUP6 PUSH2 0x78A JUMP JUMPDEST SWAP4 POP PUSH2 0x7CC DUP2 DUP6 PUSH1 0x20 DUP7 ADD PUSH2 0x79A JUMP JUMPDEST PUSH2 0x7D5 DUP2 PUSH2 0x476 JUMP JUMPDEST DUP5 ADD SWAP2 POP POP SWAP3 SWAP2 POP POP JUMP JUMPDEST PUSH0 PUSH1 0x40 DUP3 ADD SWAP1 POP DUP2 DUP2 SUB PUSH0 DUP4 ADD MSTORE PUSH2 0x7F8 DUP2 DUP6 PUSH2 0x7A8 JUMP JUMPDEST SWAP1 POP DUP2 DUP2 SUB PUSH1 0x20 DUP4 ADD MSTORE PUSH2 0x80C DUP2 DUP5 PUSH2 0x7A8 JUMP JUMPDEST SWAP1 POP SWAP4 SWAP3 POP POP POP JUMP JUMPDEST PUSH32 0x596F75206E65656420746F2073656E6420736F6D6520657468657220746F2070 PUSH0 DUP3 ADD MSTORE PUSH32 0x6572666F726D207468697320616374696F6E0000000000000000000000000000 PUSH1 0x20 DUP3 ADD MSTORE POP JUMP JUMPDEST PUSH0 PUSH2 0x86F PUSH1 0x32 DUP4 PUSH2 0x78A JUMP JUMPDEST SWAP2 POP PUSH2 0x87A DUP3 PUSH2 0x815 JUMP JUMPDEST PUSH1 0x40 DUP3 ADD SWAP1 POP SWAP2 SWAP1 POP JUMP JUMPDEST PUSH0 PUSH1 0x20 DUP3 ADD SWAP1 POP DUP2 DUP2 SUB PUSH0 DUP4 ADD MSTORE PUSH2 0x89C DUP2 PUSH2 0x863 JUMP JUMPDEST SWAP1 POP SWAP2 SWAP1 POP JUMP JUMPDEST PUSH0 PUSH1 0x20 DUP3 ADD SWAP1 POP PUSH2 0x8B6 PUSH0 DUP4 ADD DUP5 PUSH2 0x711 JUMP JUMPDEST SWAP3 SWAP2 POP POP JUMP JUMPDEST PUSH0 DUP1 REVERT JUMPDEST PUSH0 DUP1 REVERT JUMPDEST PUSH0 DUP2 MLOAD SWAP1 POP PUSH2 0x8D2 DUP2 PUSH2 0x6BC JUMP JUMPDEST SWAP3 SWAP2 POP POP JUMP JUMPDEST PUSH0 PUSH2 0x8EA PUSH2 0x8E5 DUP5 PUSH2 0x4FE JUMP JUMPDEST PUSH2 0x4E4 JUMP JUMPDEST SWAP1 POP DUP3 DUP2 MSTORE PUSH1 0x20 DUP2 ADD DUP5 DUP5 DUP5 ADD GT ISZERO PUSH2 0x906 JUMPI PUSH2 0x905 PUSH2 0x472 JUMP JUMPDEST JUMPDEST PUSH2 0x911 DUP5 DUP3 DUP6 PUSH2 0x79A JUMP JUMPDEST POP SWAP4 SWAP3 POP POP POP JUMP JUMPDEST PUSH0 DUP3 PUSH1 0x1F DUP4 ADD SLT PUSH2 0x92D JUMPI PUSH2 0x92C PUSH2 0x46E JUMP JUMPDEST JUMPDEST DUP2 MLOAD PUSH2 0x93D DUP5 DUP3 PUSH1 0x20 DUP7 ADD PUSH2 0x8D8 JUMP JUMPDEST SWAP2 POP POP SWAP3 SWAP2 POP POP JUMP JUMPDEST PUSH0 PUSH1 0x80 DUP3 DUP5 SUB SLT ISZERO PUSH2 0x95B JUMPI PUSH2 0x95A PUSH2 0x8BC JUMP JUMPDEST JUMPDEST PUSH2 0x965 PUSH1 0x80 PUSH2 0x4E4 JUMP JUMPDEST SWAP1 POP PUSH0 PUSH2 0x974 DUP5 DUP3 DUP6 ADD PUSH2 0x8C4 JUMP JUMPDEST PUSH0 DUP4 ADD MSTORE POP PUSH1 0x20 DUP3 ADD MLOAD PUSH8 0xFFFFFFFFFFFFFFFF DUP2 GT ISZERO PUSH2 0x997 JUMPI PUSH2 0x996 PUSH2 0x8C0 JUMP JUMPDEST JUMPDEST PUSH2 0x9A3 DUP5 DUP3 DUP6 ADD PUSH2 0x919 JUMP JUMPDEST PUSH1 0x20 DUP4 ADD MSTORE POP PUSH1 0x40 DUP3 ADD MLOAD PUSH8 0xFFFFFFFFFFFFFFFF DUP2 GT ISZERO PUSH2 0x9C7 JUMPI PUSH2 0x9C6 PUSH2 0x8C0 JUMP JUMPDEST JUMPDEST PUSH2 0x9D3 DUP5 DUP3 DUP6 ADD PUSH2 0x919 JUMP JUMPDEST PUSH1 0x40 DUP4 ADD MSTORE POP PUSH1 0x60 PUSH2 0x9E7 DUP5 DUP3 DUP6 ADD PUSH2 0x8C4 JUMP JUMPDEST PUSH1 0x60 DUP4 ADD MSTORE POP SWAP3 SWAP2 POP POP JUMP JUMPDEST PUSH0 PUSH1 0x20 DUP3 DUP5 SUB SLT ISZERO PUSH2 0xA08 JUMPI PUSH2 0xA07 PUSH2 0x466 JUMP JUMPDEST JUMPDEST PUSH0 DUP3 ADD MLOAD PUSH8 0xFFFFFFFFFFFFFFFF DUP2 GT ISZERO PUSH2 0xA25 JUMPI PUSH2 0xA24 PUSH2 0x46A JUMP JUMPDEST JUMPDEST PUSH2 0xA31 DUP5 DUP3 DUP6 ADD PUSH2 0x946 JUMP JUMPDEST SWAP2 POP POP SWAP3 SWAP2 POP POP JUMP JUMPDEST PUSH32 0x4F7267616E697A6174696F6E20646F6573206E6F742065786973742E00000000 PUSH0 DUP3 ADD MSTORE POP JUMP JUMPDEST PUSH0 PUSH2 0xA6E PUSH1 0x1C DUP4 PUSH2 0x78A JUMP JUMPDEST SWAP2 POP PUSH2 0xA79 DUP3 PUSH2 0xA3A JUMP JUMPDEST PUSH1 0x20 DUP3 ADD SWAP1 POP SWAP2 SWAP1 POP JUMP JUMPDEST PUSH0 PUSH1 0x20 DUP3 ADD SWAP1 POP DUP2 DUP2 SUB PUSH0 DUP4 ADD MSTORE PUSH2 0xA9B DUP2 PUSH2 0xA62 JUMP JUMPDEST SWAP1 POP SWAP2 SWAP1 POP JUMP JUMPDEST PUSH32 0x4E487B7100000000000000000000000000000000000000000000000000000000 PUSH0 MSTORE PUSH1 0x11 PUSH1 0x4 MSTORE PUSH1 0x24 PUSH0 REVERT JUMPDEST PUSH0 PUSH2 0xAD9 DUP3 PUSH2 0x6B3 JUMP JUMPDEST SWAP2 POP PUSH2 0xAE4 DUP4 PUSH2 0x6B3 JUMP JUMPDEST SWAP3 POP DUP3 DUP3 ADD SWAP1 POP DUP1 DUP3 GT ISZERO PUSH2 0xAFC JUMPI PUSH2 0xAFB PUSH2 0xAA2 JUMP JUMPDEST JUMPDEST SWAP3 SWAP2 POP POP JUMP INVALID LOG2 PUSH5 0x6970667358 0x22 SLT KECCAK256 RETURNDATASIZE PUSH25 0xCE661D16C24C1A526A8DB91D2265D75307BD6DA785A3B23716 SWAP1 0xDB PUSH26 0xA12A64736F6C6343000819003300000000000000000000000000 "
				},
				"gasEstimates": {
					"creation": {
						"codeDepositCost": "574400",
						"executionCost": "infinite",
						"totalCost": "infinite"
					},
					"external": {
						"createNewOrganization(string,string)": "infinite",
						"createOrgContract()": "infinite",
						"donate(uint256)": "infinite",
						"donors(uint256)": "infinite",
						"owner()": "2549"
					}
				},
				"methodIdentifiers": {
					"createNewOrganization(string,string)": "1614e668",
					"createOrgContract()": "1f9f0d9a",
					"donate(uint256)": "f14faf6f",
					"donors(uint256)": "4abfa163",
					"owner()": "8da5cb5b"
				}
			},
			"storageLayout": {
				"storage": [
					{
						"astId": 125,
						"contract": "contracts/donation.sol:Donation",
						"label": "owner",
						"offset": 0,
						"slot": "0",
						"type": "t_address"
					},
					{
						"astId": 128,
						"contract": "contracts/donation.sol:Donation",
						"label": "createOrgContract",
						"offset": 0,
						"slot": "1",
						"type": "t_contract(CreateOrganization)120"
					},
					{
						"astId": 169,
						"contract": "contracts/donation.sol:Donation",
						"label": "donors",
						"offset": 0,
						"slot": "2",
						"type": "t_mapping(t_uint256,t_struct(Donor)133_storage)"
					}
				],
				"types": {
					"t_address": {
						"encoding": "inplace",
						"label": "address",
						"numberOfBytes": "20"
					},
					"t_contract(CreateOrganization)120": {
						"encoding": "inplace",
						"label": "contract CreateOrganization",
						"numberOfBytes": "20"
					},
					"t_mapping(t_uint256,t_struct(Donor)133_storage)": {
						"encoding": "mapping",
						"key": "t_uint256",
						"label": "mapping(uint256 => struct Donation.Donor)",
						"numberOfBytes": "32",
						"value": "t_struct(Donor)133_storage"
					},
					"t_struct(Donor)133_storage": {
						"encoding": "inplace",
						"label": "struct Donation.Donor",
						"members": [
							{
								"astId": 130,
								"contract": "contracts/donation.sol:Donation",
								"label": "totalDonated",
								"offset": 0,
								"slot": "0",
								"type": "t_uint256"
							},
							{
								"astId": 132,
								"contract": "contracts/donation.sol:Donation",
								"label": "numberOfDonations",
								"offset": 0,
								"slot": "1",
								"type": "t_uint256"
							}
						],
						"numberOfBytes": "64"
					},
					"t_uint256": {
						"encoding": "inplace",
						"label": "uint256",
						"numberOfBytes": "32"
					}
				}
			},
			"userdoc": {
				"kind": "user",
				"methods": {},
				"version": 1
			}
		}
	}
}